:020000042000DA
:10000000000001109D0200208901002089010020CC
:100010008901002089010020890100208901002038
:100020008901002089010020890100208901002028
:10003000890100208901002089010020B9020020E7
:100040008901002089010020890100208901002008
:1000500089010020890100208901002089010020F8
:1000600089010020890100208901002089010020E8
:1000700089010020890100208901002089010020D8
:1000800089010020890100208901002089010020C8
:1000900089010020890100208901002089010020B8
:1000A00089010020890100208901002089010020A8
:1000B0008901002089010020890100208901002098
:1000C0008901002089010020890100208901002088
:1000D0008901002089010020890100208901002078
:1000E0008901002089010020890100208901002068
:1000F0008901002089010020890100208901002058
:100100008901002089010020890100208901002047
:100110008901002089010020890100208901002037
:100120008901002089010020890100208901002027
:100130008901002089010020890100208901002017
:100140008901002089010020890100208901002007
:1001500089010020890100208901002089010020F7
:1001600089010020890100208901002089010020E7
:1001700089010020890100208901002089010020D7
:100180008901002089010020FEE700000A4B81223E
:100190001A6000209860D8604FF48011196358638A
:1001A0009863186458641A6B42F008011963186C5C
:1001B00040F004021A6470470038024038B5FFF777
:1001C000E5FF4FF0005229488260294B294A9B1ACB
:1001D00010461AD0284991420C4616D006D9002262
:1001E000A15C815401329A42FAD10EE09818591854
:1001F0001A46C3EB010C0CEB020515F8015CC41A9E
:10020000A41804F8015C013AF3D11C4B1C4AD21A21
:1002100003E0002003F8010B013A002AF9D1194B41
:100220001948D8604FF02A41196018485862184B95
:100230001A809A80FF21D9621A64DA639A635A633A
:1002400041F2111EA3F820E046F260001883988363
:100250005A621A820121198048F20000A3F8440072
:100260000C4B0D4A5A600721196038BD00ED00E0C3
:1002700000000010000000107003002000000010BB
:1002800004000010000C0240AAA2AA0000002222D2
:100290000008004010E000E0FF70020008B5054BC8
:1002A000D3F8880040F47002C3F88820FFF786FF77
:1002B00000F00EF800ED00E00721034A1160034B47
:1002C0001868421C1A60704710E000E0000000103F
:1002D000254B00221A601946234B0A68101200F0C1
:1002E0000302022A21D0032A2DD0012A1A680ED037
:1002F00012F0800F186800F07F0218BFC2F1800270
:100300001A4B5A6300201864D8639863E4E712F02C
:10031000800F1B6803F07F0218BFC2F18002134BED
:100320009A6300221A64DA631BE0186810F0800FE9
:100330001A6802F07F0018BFC0F180000B4BD86331
:1003400000221A640CE0186810F0800F1B6803F09C
:100350007F0218BFC2F18002044B1A640022DA63E4
:100360009A635A63B8E700BF00000010000800401D
:040000052000029C39
:00000001FF
