:020000040800F2
:100000007014002069020008690600086B060008E9
:100010006D0600086F060008710600080000000069
:10002000000000000000000000000000730600084F
:10003000750600080000000077060008411400085B
:10004000830200088302000883020008830200087C
:10005000830200088302000883020008830200086C
:10006000830200088302000883020008830200085C
:10007000830200088302000883020008830200084C
:10008000830200088302000883020008830200083C
:10009000830200088302000883020008830200082C
:1000A000830200088302000883020008830200081C
:1000B000A90800088302000883020008ED0D00086B
:1000C00083020008830200088302000883020008FC
:1000D000830200088D170008ED1700084D1800086E
:1000E00083020008830200088302000883020008DC
:1000F00083020008830200088302000883020008CC
:1001000083020008830200088302000883020008BB
:10011000AD1800088302000883020008830200086B
:10012000830200088302000883020008830200089B
:10013000830200088302000883020008830200088B
:10014000830200088302000883020008830200087B
:10015000830200088302000883020008830200086B
:10016000830200088302000883020008830200085B
:10017000830200088302000883020008830200084B
:10018000830200088302000800F002F800F05CF827
:100190000AA090E8000C82448344AAF10107DA45E2
:1001A00001D100F051F8AFF2090EBAE80F0013F0D8
:1001B000010F18BFFB1A43F001031847883F0000E6
:1001C000A83F00000A444FF0000C10F8013B13F068
:1001D000070408BF10F8014B1D1108BF10F8015BA0
:1001E000641E05D010F8016B641E01F8016BF9D193
:1001F00013F0080F1EBF10F8014BAD1C0C1B09D1EA
:100200006D1E58BF01F801CBFAD505E014F8016B5B
:1002100001F8016B6D1EF9D59142D6D370470000ED
:100220000023002400250026103A28BF78C1FBD8FF
:10023000520728BF30C148BF0B6070471FB502F09E
:100240007BFF1FBD10B510BD02F0B2FF1146FFF7D6
:10025000F5FF00F029F802F0D0FF03B4FFF7F2FF3A
:1002600003BC02F09FFF000009488047094800478F
:10027000FEE7FEE7FEE7FEE7FEE7FEE7FEE7FEE756
:10028000FEE7FEE704480549054A064B70470000B3
:100290007906000889010008700E00207014002003
:1002A0007010002070100020ADF5167D282093906E
:1002B00000F090FA40F20A324FF49643511CD048B5
:1002C00001F044FB4FF4EC72CE4902A802F0FEFEAE
:1002D00002A802F097FE86B202A9C94800F001FF09
:1002E000C7481030949001F037FA8FA801F0CDFE86
:1002F000C5A1C34800F035FE0A22C1488F9900F01D
:10030000DCFEC4A1BE4800F02CFE0A22BC48909935
:1003100000F0D3FEC2A1BA4800F023FE0A22B8487A
:10032000919900F0CAFEC1A1B54800F01AFE0A2258
:10033000B348929900F0C1FEB14800F0C6FE94980F
:1003400001F00AFA40F20C47384600F0CDFA40F2CC
:100350000D4A04465546504600F0C6FA0443B81C00
:1003600000F0C2FA0443F81C00F0BEFA0443384619
:1003700000F0B4FA4FF00009CDF8009002230122FA
:100380002146CDF8049000F012FB4FF40272AA4B04
:10039000511CAA4800F070FB9948A849183800F091
:1003A00017FF9748183800F034FF95482E21183869
:1003B00000F0C6FF9248A2A1183800F0D2FDDFF885
:1003C0008C824446404601F0DDFB0090284600F058
:1003D0008BFA01460098C0F30B000143204600F061
:1003E00034FB939800F041FA00F03CFA4FF47A7431
:1003F000B0FBF4F500F036FAB0FBF4F0A842F9D007
:1004000000F030FAB0FBF4F540F20E4B8F4F384657
:1004100001F0B8FB044640F20D4000F065FAC4F369
:100420000B0440EA0401384600F00FFB939800F0FB
:100430001CFA584600F058FA40EA0401384600F029
:1004400004FB939800F011FA40F20F48404600F088
:100450004BFA40EA0401384600F0F7FA939800F0AE
:1004600004FA40F20C4A504600F03EFA40EA040119
:10047000384600F0EAFA939800F0F7F93C20B5FB13
:10048000F0F100FB11510F20B1FBF0F088B1012811
:100490000BD0022805D003280BD1504600F024FAD7
:1004A0000443404600F020FA0443584600F01CFA8A
:1004B000044340F20D4000F017FA40EA04013846C8
:1004C00000F0C3FA4FF47A7700F0CCF9B0FBF7F004
:1004D000A842F9D000F0C6F9B0FBF7F500F0C2F978
:1004E00003F0BEFCDFF86881414603F0F7FB03F040
:1004F000C9FB032402460B464148009400F0DEFD90
:1005000043A13F4800F02DFD3D48183802F0BAFEE7
:1005100001460A223A4800F002FE394800221146FC
:10052000183800F0ECFE00F09DF9B0FBF7F1A6F1F1
:100530001000B1FBF0F200FB121002A90144304898
:100540001022183800F0A5FD2D480122002118388E
:1005500000F0D5FE00F086F903F082FC414603F07E
:10056000BDFB03F08FFB024625480B46183800946C
:1005700000F0A4FD26A1224800F0F3FC2048183822
:1005800002F080FE01460A221D4800F0C8FD00244A
:10059000949801F0F7F800B200287FF737AF78AFF2
:1005A000949801F0EFF800B2002808DD5C2C06D228
:1005B000949801F0C7F83855641CA4B2F0E707F826
:1005C000049024A10E4800F0CCFC78A90C4800F05F
:1005D000C8FC21A10A4800F0C4FC17E7084810B580
:1005E000183802F047FE1D49016005481C4C02F016
:1005F00041FE4FF47A7181601A490461016010BDB7
:10060000A80100201C3F0008535953434C4B203D88
:10061000200000002C2048434C4B203D20000000CF
:100620002C2050434C4B31203D2000002C205043C7
:100630004C4B32203D200000A08601006C000020C1
:1006400057686F6F6F65656521000000000C024000
:1006500000007A443E2000000A0000003C410008EF
:10066000004800400C4100087047FEE7FEE7FEE747
:10067000FEE77047704770474D4810B5016841F07C
:10068000010101604A4A0021083211600268494BA9
:100690001A400260031D484A1A60026822F4802250
:1006A000026043480C30016000F03BF843494FF0D2
:1006B0000060086010BD70B53D4D08352868404B9E
:1006C000404910F00C0004D05E10042803D0082824
:1006D00003D00B601BE00E6019E0354A121D106854
:1006E000C0F38054106800F03F0014B1B6FBF0F086
:1006F00001E0B3FBF0F013681268C3F388135843AA
:10070000C2F30142521C5200B0FBF2F008602868AC
:100710002C4AC0F30310121D105C0A68C2400A6024
:1007200070BD234A0020116841F4803111604FF4FC
:10073000A063116800F1010011F4003F01D198425B
:10074000F7D11068800331D519484030016841F075
:10075000805101601C48016841F4804101601448E7
:10076000083001680160016841F4004101600168DE
:1007700041F4A0510160031F14491960116841F050
:100780008071116011688901FCD5114A40F2056140
:100790001160016821F003010160016841F002016C
:1007A00001600168C1F381010229FAD1704700009C
:1007B00000380240FFFFF6FE1030002408ED00E094
:1007C0000024F4000000002000700040085440079E
:1007D000003C024030B589B004A801F056FC0498F2
:1007E0003C494008B0FBF1F0ADF80000002440F2B5
:1007F000E7300190ADF808400121ADF802408DF8D6
:100800000A40084601F0C3FC4FF08045694628467F
:1008100001F0F6FD0021284601F034FE01221146C8
:10082000284602F076F91C208DF80C008DF80D405A
:1008300001218DF80E108DF80F1003A801F091F82A
:100840000121284601F054FE23480460446009B0A9
:1008500030BD10B54FF0804001F018FE1E49096808
:10086000084410BD1C48406870471B494A68104442
:100870004A68824202D94A688242FCD24A6882426D
:10088000FCD3704710B50446FFF7E3FF0444FFF7BD
:10089000E0FFA04203D9FFF7DCFFA042FBD2FFF745
:1008A000D8FFA042FBD310BD10B501218C07204614
:1008B00002F043F900280BD00121204602F049F94B
:1008C0000548016801F57A7101604168491C416081
:1008D00010BD000040420F00140000205C49C0F32E
:1008E000032051F82000704700F00F0101208840DC
:1008F00080B2704700F00F0070477CB50546544841
:10090000C5F3032428380E4650F82400012101F0D5
:1009100020FC2846FFF7E8FF00908DF804600020D7
:100920008DF806008DF8070002208DF80500484874
:10093000694650F8240001F0C7F87CBD10B5444B5F
:10094000C0F3032241B1FFF7CFFF014653F8220065
:10095000BDE8104001F019B9FFF7C6FF014653F892
:100960002200BDE8104001F012B90346384810B526
:10097000C3F3032150F821201846FFF7B5FF4100CB
:100980001068C840C0B20128184609D0FFF7ACFF74
:100990000146104601F0E5F8002800D0012010BD06
:1009A000FFF7A2FF0146104601F0E5F8F4E72DE954
:1009B000FC470446DDE90A8926481D4616460F46CF
:1009C000844202D1012102202EE02348844202D138
:1009D0000121042028E02148844202D1012108207D
:1009E00022E01F48844202D1012110201CE01D4852
:1009F000844202D10121202016E01B48844202D10A
:100A00000121402010E01948844202D101218020B8
:100A10000AE01748844202D10121801504E01548FC
:100A2000844203D10121084601F093FB8DF8046054
:100A30008DF806808DF8079000978DF8055069466F
:100A4000204601F041F8BDE8FC8701F0A7B800009E
:100A5000440000200004024000080240000C024054
:100A6000001002400014024000180240001C024026
:100A700000200240000002402DE9F047044688B003
:100A8000A180E2808A4690460426FC4A2168F00450
:100A90001D46914201D1400004E0F94A914201D142
:100AA0004FF40000012101F072FB4046FFF71CFFEC
:100AB00081464046FFF712FF0127022300971A469E
:100AC00049460197FFF773FF5046FFF70DFF814638
:100AD0005046FFF703FF022300971A464946019745
:100AE000FFF765FF4046FFF705FF81464046FFF7E9
:100AF000F5FE3246494601F057F85046FFF7FAFE38
:100B000080465046FFF7EAFE3246414601F04CF877
:100B1000DC48281804D0DC49401801D0D94D6D427A
:100B20000026ADF810604BF6FF70ADF812004FF4E0
:100B30008060ADF816000001ADF81800039503A918
:100B4000206801F06FF81F208DF808008DF809600B
:100B50008DF80A608DF80B7002A800F002FF02A861
:100B600000F0FFFE20208DF8080002A800F0F9FE3A
:100B70000121206801F0BAF86672FF20A072267287
:100B800008B0BDE8F0872DE9F0410F460546006842
:100B9000012101F0B5F8052440F29B26DFF8EC8234
:100BA00005E014B33046FFF76DFE641EA4B2414663
:100BB000286801F06BF90028F3D07806010E0022B6
:100BC000286801F0B1F80524B14F05E06CB130465A
:100BD000FFF758FE641EA4B23946286801F056F9A2
:100BE0000028F3D0FF20BDE8F0810020FBE72DE9CD
:100BF000F05F01268A461F46904604464672052548
:100C000040F29B294FF4003B06E0002D51D04846AE
:100C1000FFF738FE6D1EADB25946206801F049F964
:100C20000028F2D1E672A07AA0B184F808A03A4672
:100C3000414604F1100002F004FAE7810220E0725C
:100C400001225102206801F019F90121206801F008
:100C500057F829E051462046FFF795FF002826D097
:100C6000DFF82CA200260AF1020A14E018F8061098
:100C7000206801F0C6F8052505E0D5B14846FFF724
:100C800001FE6D1EADB25146206801F0FFF800284C
:100C9000F3D0761CB6B2BE42E8D372B62068018BA0
:100CA000012101F037F862B600206072FF20BDE834
:100CB000F09F0020FBE72DE9F04704460220DDF815
:100CC00020A0607288461F4615462046FFF75BFF4E
:100CD000002870D02946206801F093F8DFF8B09121
:100CE000052540F29B2609F1020906E0002D7BD084
:100CF0003046FFF7C7FD6D1EADB24946206801F0D2
:100D0000C5F80028F2D00121206800F0F9FF052580
:100D1000DFF8789106E0002D66D03046FFF7B2FD8F
:100D20006D1EADB24946206801F0B0F80028F2D03F
:100D30004FEA4860010E0122206800F0F5FFDFF85D
:100D40004C91052509F10109B04605E095B34046EF
:100D5000FFF798FD6D1EADB24946206801F096F888
:100D60000028F3D0DFF82491012609F13F0914E0AF
:100D7000052505E0F5B14046FFF784FD6D1EADB2D7
:100D80004946206801F082F80028F3D0206801F07D
:100D90003AF8761C07F8010BB6B25645E8D30021A5
:100DA000206800F0C9FF0121206800F0B3FF05258D
:100DB0004E4607E018E016E0B5B14046FFF762FD89
:100DC0006D1EADB23146206801F060F80028F3D006
:100DD000206801F018F838700121206800F0ACFF9D
:100DE00000206072FF20CCE60020CAE62DE9F04723
:100DF000294C2849204601F06EF8284D012802D1DF
:100E0000E87A02280CD02349A046491C204601F06C
:100E100062F8224C00261034042701280DD00FE080
:100E20001821204601F028F8287A00224006010EF9
:100E3000204600F079FF03201DE0E87A032809D05E
:100E400014494046C91C01F046F84FF400790128C6
:100E500006D008E01821404601F00EF8AE812AE0E5
:100E6000E87A04281CD000224946404601F006F8E2
:100E7000E87A40F08000E87283E600000058004005
:100E8000005C00406079FEFF206CFBFF0100030066
:100E90008200070001000002005400406C000020A6
:100EA0001821404600F0E8FFA889401CA881A889C5
:100EB000E989884206D2A889015D286800F0A1FF6F
:100EC000EF725EE600224946404600F0D7FF01215E
:100ED000286800F01FFF0520E8726E7251E60000DE
:100EE00010B58AB0002308AC8DF82030022A00D259
:100EF0000A220B46B1FBF2F102FB1133DBB20A2BE3
:100F000001D2303300E0373304F8013D0029F0D13D
:100F1000214602F09EF90AB010BD0268126810471F
:100F200070B50C4605461AB10A2A08D0D2B214E0B0
:100F30002868C9B202682846BDE870401047002CF6
:100F40000ADA2D21FFF7E9FF064661420A22284608
:100F5000FFF7C6FF304470BD0A22BDE87040BFE70E
:100F6000DEE702F076B90AB1D2B2B9E70268C9B2D7
:100F7000126810472DE9F0471600089C1D4681466F
:100F80004FF0000801D0012000E0002045EA0001F8
:100F900021F000407C49081AC00F01D07BA115E068
:100FA0007B48B0EB450F00D1A6B14FF060473A4601
:100FB000784B3046294602F039FD06D33A46764B47
:100FC0003046294602F0F8FB06D274A14846BDE837
:100FD000F047C6E772A1F9E70022134630462946DA
:100FE00002F0EAFB06D22D214846FFF796FF804625
:100FF00085F0004500206B490746DFF8ACA105E00D
:101000000022534602F0F8F97F1CFFB2A742F7D343
:1010100032462B4602F03CF906460F4602F074FBBE
:10102000054602F0B5FB32463B4602F035FD06466A
:101030000F460A2229464846FFF795FF00EB0805B0
:10104000FCB15AA14846FFF78CFF054419E0002285
:1010500053463046394602F0EBFB06460F4602F097
:1010600023FB804601460A224846FFF779FF0544E4
:10107000404602F076FB32463B4602F00DFD064646
:101080000F462000A4F10104E4B2E0D12846BDE8F7
:10109000F0872DE9F04115460C460746002606E08C
:1010A000386814F8011B02683846904706446D1EE4
:1010B000F6D23046BDE8F08155E754E708B502990D
:1010C000C9B20091FFF756FF08BD70B505460D2166
:1010D000FFF723FF04460A212846FFF71EFF20449E
:1010E00070BD70B50546FFF73CFF04462846FFF784
:1010F000ECFF204470BD70B50546FFF70EFF0446B7
:101100002846FFF7E2FF204470BD70B50546FFF7A3
:10111000D3FF04462846FFF7D8FF204470BD70B5C2
:101120000546FFF71DFF04462846FFF7CEFF204483
:1011300070BD70B50546FFF7C0FF04462846FFF7AF
:10114000C4FF204470BD70B50546FFF7E9FE0446B4
:101150002846FFF7BAFF204470BD70B50546FFF77B
:1011600002FF04462846FFF7B0FF204470BD38B5A3
:101170000546049800902846FFF7A0FF044628463D
:10118000FFF7A3FF204438BD0000F07F6E616E00C2
:101190000000E0FFFFFFEF41FFFFEFC16F76660049
:1011A000696E66000000E03F000024402E00000051
:1011B00008B500228DF800208DF80110417D0069EE
:1011C00002236A46FFF713FD3220FFF75BFB08BDE1
:1011D0000222027310224273002282733E22427561
:1011E0002A220275FF22C2820161704710B50446AF
:1011F0000121FFF7DDFF0021A173BDE81040C820E9
:10120000FFF733BB417A41F00401417241F008011C
:10121000CEE710B504463821FFF7CAFF3921204632
:10122000FFF7C6FF0220FFF720FB14212046FFF73F
:10123000BFFF207D00F00F0040F070012046FFF757
:10124000B7FF0220FFF711FB207DC0F3011040F033
:101250005C012046FFF7ACFF6C212046FFF7A8FF9A
:101260004FF49670FFF701FB38212046FFF7A0FFEF
:101270000C212046FFF79CFF0220FFF7F6FA012120
:101280002046FFF795FF0220FFF7EFFA02212046E4
:10129000FFF78EFF0220FFF7E8FA207A40F02001E6
:1012A0002046FFF785FF042060722046FFF7AAFF63
:1012B0002046FFF79BFF0220A0722046BDE81040A9
:1012C000062175E708B540228DF800208DF8011041
:1012D000417D006902236A46FFF789FC3220FFF74F
:1012E000D1FA012008BD10B504460221FFF760FFC6
:1012F0000021A173BDE81040C820FFF7B6BA7FB542
:101300004E4B93E87000DB68CDE90045CDE9026300
:10131000037B934203D8B2FBF3F403FB14221DF8C2
:1013200022201144C9B2817341F08001FFF740FFD0
:101330007FBD417A21F00401417241F0080137E795
:1013400010B5044601F07F00207538212046FFF7D4
:101350002FFF39212046FFF72BFF0220FFF785FAE8
:10136000207D00F00F0040F070012046FFF720FFC5
:101370000220FFF77AFA207DC0F3011040F05C01F3
:101380002046FFF715FF38212046FFF711FFBDE883
:1013900010400220FFF769BA417A21F00101417241
:1013A00041F0080104E7417A41F00101417241F046
:1013B0000801FDE6417A21F00201417241F0080185
:1013C000F6E6417A41F00201417241F00801EFE690
:1013D0001821EDE61C21EBE6817A41F002018172D1
:1013E00041F00401E4E6817A21F00201817241F0CA
:1013F0000401DDE6817A41F00101817241F00401CE
:10140000D6E6817A21F00101817241F00401CFE634
:1014100070B5064601F00700402141EAC0011546BB
:101420003046FFF7C5FE00243068295D036830466A
:101430009847641C082CF7DB70BD0000F4400008DE
:1014400014480168491C0160704712490A680B681A
:101450009B1A8342FBD370471FB5684600F015FE08
:1014600001984FF47A71B0FBF1F0B0F1807F0CD2AB
:1014700020F07F414FF0E020491E4161064AF021F3
:10148000117000218161072101611FBD01480068C1
:10149000704700007C01002023ED00E000F5807023
:1014A00000210180418081807047B0F804017047BD
:1014B000B0F90011B0F90221914204D1B0F8040151
:1014C00008B1012070470020704710B50C46034654
:1014D000FFF7EEFF10B14FF6FF7010BDB3F900013A
:1014E0004100401CA3F800015C5203F5807398880A
:1014F000401C9880B3F90000C11700EB516121F046
:101500007F01401A1880204610BDB0F80421A2B116
:10151000B0F90211521E4B00491C09B2A0F8021189
:10152000C35AA0F80421CA1701EB526222F07F02CD
:10153000891AA0F80211184670474FF6FF707047DD
:10154000B0F8041121B1B0F9021130F81100704760
:101550004FF6FF7070472DE9F04F8A460446006849
:10156000EB490727252587B093469946884208D13D
:101570000121102000F015FEE648606000F22460B2
:101580003FE0E549884209D10121480400F0FFFD10
:10159000E2486060262500F2246032E0E04988429B
:1015A00009D10121880400F0F2FDDE4860602725A2
:1015B00000F2246025E0DC4988420AD10121C804F8
:1015C00000F0E5FDD94808276060342500F224606A
:1015D00017E0D74988424FF0010109D1080500F012
:1015E000D6FDD44808276060352500F2246008E065
:1015F000202000F0D6FDD04808276060472500F283
:101600002460A0605046FFF76FF980465046FFF710
:1016100065F90026022300961A4641460196FFF717
:10162000C6F95846FFF760F980465846FFF756F965
:10163000022300961A4641460196FFF7B8F9504634
:10164000FFF758F980465046FFF748F93A464146B9
:1016500000F0AAFA5846FFF74DF980465846FFF7C2
:101660003DF93A46414600F09FFAADF80C60ADF8FE
:1016700010600C20CDF80890ADF80E60ADF8146045
:10168000ADF8120002A9206801F053FB012240F2DC
:101690002551206801F062FC002240F22771206889
:1016A00001F05CFC8DF818508DF819608DF81A6007
:1016B00001208DF81B0006A800F053F96068FFF7C1
:1016C000EDFEA068FFF7EAFE0121206801F0A7FB0C
:1016D00007B0BDE8F08F70B50D4604468021206844
:1016E00001F054FC0028F9D029462068BDE870407C
:1016F00001F0BBBB2DE9F0410F460546032440F243
:101700009B2604E03046FFF7BDF8641EA4B2A8682B
:10171000FFF7CEFE08B1002CF4D140F2277400226E
:101720002146286801F01AFC3946A868FFF7CDFE6B
:1017300001222146286801F011FC0120BDE8F0815A
:1017400001F097BB00B54068FFF7DFFEA0F57F41D1
:10175000FF3900D1002000BD70B50546FFF782F8C3
:1017600000F1640403E0FFF77DF8A04204D8A96803
:10177000B1F804010028F6D16868BDE870408DE634
:101780004068DDE64068B0F80401704770B5604C11
:1017900040F22551204601F003FC30B1204601F013
:1017A00068FB01465B48FFF790FE40F2277529462B
:1017B000204601F0F5FB002817D06048B0F804017E
:1017C00040B15E48FFF7A1FE01462046BDE87040EB
:1017D00001F04BBB00222946204601F0BFFB294601
:1017E0002046BDE8704001F0FABB70BD70B54A4CB0
:1017F00040F22551204601F0D3FB30B1204601F0E4
:1018000038FB01464548FFF760FE40F22775294640
:10181000204601F0C5FB002817D04848B0F80A025E
:1018200040B14748FFF771FE01462046BDE87040D1
:1018300001F01BBB00222946204601F08FFB294600
:101840002046BDE8704001F0CABB70BD70B5344C95
:1018500040F22551204601F0A3FB30B1204601F0B3
:1018600008FB01462F48FFF730FE40F22775294656
:10187000204601F095FB002817D03048B0F810033F
:1018800040B13048FFF741FE01462046BDE87040B8
:1018900001F0EBBA00222946204601F05FFB294601
:1018A0002046BDE8704001F09ABB70BD70B51E4D7A
:1018B00040F22551284601F073FB234C30B12846F5
:1018C00001F0D7FA01462046FFF7FFFD40F22776E8
:1018D0003146284601F064FB002817D01748B0F8BD
:1018E000160440B12046FFF710FE01462846BDE829
:1018F000704001F0BABA00223146284601F02EFBB2
:1019000031462846BDE8704001F069BB70BD00005B
:1019100000100140C401002000440040CA02002021
:1019200000480040D0030020004C0040D6040020B6
:1019300000500040DC050020E2060020E8070020FF
:10194000EE080020F4090020FA0A00201030FFF70A
:1019500002BE1030FFF7CEBE274908432749086072
:10196000704770B50F23C278017801254FF0E0264B
:10197000E2B1224A126802F4E062C2F5E062C2F308
:101980000722C2F10404D3404278A24084781C406C
:101990001B4B14432201CA54007800F01F018D40F4
:1019A000400906EB8000C0F8005170BD01F01F0037
:1019B0008540480906EB8000C0F8805170BD114A8F
:1019C000114001430D48001F016070470B4A121D72
:1019D0000029116801D0014300E081431160704784
:1019E0004FF0E0210428086903D020F004000861CA
:1019F000704740F00400FAE70000FA050CED00E043
:101A000000E400E080FFFF1F6F4910B5884206D157
:101A10000121084600F0CFFB002101204FE06B4977
:101A2000884206D10121022000F0C5FB00210220DE
:101A300045E06749884206D10121042000F0BBFB44
:101A4000002104203BE06349884206D1012108209F
:101A500000F0B1FB0021082031E05F49884206D147
:101A60000121102000F0A7FB0021102027E05B4996
:101A7000884206D10121202000F09DFB002120207A
:101A80001DE05749884206D10121402000F093FB18
:101A90000021402013E05349884206D101218020D3
:101AA00000F089FB0021802009E04F4988420AD1DB
:101AB00084150121204600F07EFB00212046BDE870
:101AC000104000F078BB10BDF0B5002201274FF0A8
:101AD000030C0B6807FA02F52B40AB422CD10668C9
:101AE00053000CFA03F4A64306600E79D0F800E028
:101AF0009E4046EA0E0606600E79012E01D0022EA7
:101B000012D18668A64386604E79D0F808E09E40E0
:101B100046EA0E0686604668AE43466045688E79A2
:101B20009640B6B235434560C568A543C560CC79DB
:101B30009C40C3681C43C460521C102AC9D3F0BD2A
:101B40004FF6FF7101600021017141718171C17116
:101B5000704741F48032C261C161C261C169C0692C
:101B600070470246002012690A4200D001207047E7
:101B7000006980B270470246002052690A4200D0D4
:101B800001207047406980B27047018370474183EC
:101B900070470AB1018370474183704741617047C4
:101BA00042694A40426170474B07DB0E9A40C908C0
:101BB00010B500EB8100016A0F249C40A143016233
:101BC000016A1143016210BD00000240000402409E
:101BD00000080240000C02400010024000140240C5
:101BE00000180240001C024000200240C44910B509
:101BF000884202D101214C050AE0C249884202D143
:101C000001218C0504E0C04988420AD10121CC059C
:101C1000204600F0EEFA2046BDE81040002100F01A
:101C2000E8BA10BD7FB5044680880D4620F03F0617
:101C3000684600F02AFAB5490298B0FBF1F189B282
:101C40000E43A680228822F001022280B04B2A682F
:101C50009A421BD85200B0FBF2F080B2042800D2A6
:101C60000420491C2184A083208840F001002080AA
:101C700020884FF6F5310840A9886A89114301434D
:101C80002180A8892989084320817FBDEB88A3F59D
:101C90003F46FF3E05D102EB4202B0FBF2F080B2BC
:101CA00008E002EBC20303EB0212B0FBF2F080B2D9
:101CB00040F48040020501D140F001004FF49672DB
:101CC00051434FF47A72B1FBF2F140F40040C8E79F
:101CD00041F288310160002181804BF6FF72C280A1
:101CE000018141814FF48041818170470029018841
:101CF00002D041F0010101E021F0010101807047B3
:101D00000029018802D041F4807101E021F4807142
:101D1000018070470029018802D041F4007101E080
:101D200021F400710180704712B141F0010101E01E
:101D300001F0FE01018270470029018802D041F4C0
:101D4000806101E021F4806101807047828901F0A7
:101D5000FE0122F0FE021143818170470029818932
:101D600002D041F0010101E021F0010181817047C1
:101D70000029018802D041F0400101E021F040013A
:101D8000018070470029018802D041F4004101E040
:101D9000C1F30E01018070470029018803D021F0B2
:101DA00080010180704741F08001FAE7B1F5804F72
:101DB000818B02D021F4804101E041F48041818394
:101DC0007047B1F5006F018803D021F400610180F4
:101DD000704741F40061FAE7B1F5005F018803D074
:101DE00021F400510180704741F40051FAE70029C5
:101DF000018802D041F0100101E021F010010180C2
:101E0000704701827047008AC0B27047002901887C
:101E100002D041F4805101E021F4805101807047EB
:101E2000B1F5006F018803D021F400610180704793
:101E300041F40061FAE70029018802D041F0200155
:101E400001E021F0200101807047008B000A7047FB
:101E50000029818802D041F4006101E021F4006191
:101E6000818070470029818802D041F4805101E0CF
:101E700021F4805181807047405A7047002A82883F
:101E800001D00A4300E08A43828070470346002065
:101E90009A8A1B8B42EA034222F07F42914300D18F
:101EA00001207047818A008B41EA004121F07F4088
:101EB000704700220B0F21F07F4101D0143001E068
:101EC000090C18300068084200D001221046704703
:101ED000C9438182704710B502460020938801F003
:101EE000E064928A03EA144321F07F410A4202D05F
:101EF000002B00D0012010BDC94381827047000033
:101F00000054004000580040005C004040420F0078
:101F1000A0860100E948016841F001010160E74A3B
:101F20000021083211600268E54B1A400260031D6F
:101F3000E44A1A60026822F480220260DF480C3012
:101F400001607047DD490022891C0A7008707047E3
:101F500002460020510901290CD002290CD0D74992
:101F60007431096802F01F02012393400B4200D034
:101F700001207047D149F4E7D0497031F1E730B51D
:101F800000244FF4A0653120FFF7E2FF641CAC424F
:101F900001D00028F7D03120FFF7DAFF002800D069
:101FA000012030BDC54A116821F0F80141EAC000A6
:101FB00010607047C44908607047C0490022703102
:101FC0000A700A70012802D0042801D10520087087
:101FD0007047BE490860704741EA82115A0810B53F
:101FE000BB4B029C03EB02421143014341EA0460F4
:101FF000B249091D086010BDB349086670478001E9
:1020000040EA0170AD49843108607047AE49886686
:102010007047AD49C8647047A84B08331A68084335
:1020200022F0EC62104318607047A44B08331A6822
:10203000084322F078421043186070479F4A0832E4
:10204000116821F003010143116070479B4808307B
:10205000006800F00C007047984A0832116821F0BF
:10206000F001014311607047944A0832116821F46D
:10207000E051014311607047904A0832116821F421
:10208000604141EAC0001060704770B58B4B083367
:102090001968904C11F00C0104D06610042903D08B
:1020A000082903D004601BE0066019E0834A121D72
:1020B0001168C1F38055116801F03F0115B1B6FBFD
:1020C000F1F101E0B4FBF1F114681268C4F3881473
:1020D0006143C2F30142521C5200B1FBF2F10160B4
:1020E00019687D4A01F0F0010909545C0168E1407A
:1020F00041601C6804F4E054A40A145D21FA04F45D
:1021000084601B6803F460435B0BD25CD140C16008
:1021100070BDC0F30121032908D1684B0833196849
:102120006E4A21F4F81102400A431A606349703183
:102130000A68C0F30B0002430A60704763494439E0
:102140000860704761494039086070476449086019
:1021500070475A4A30320029116801D0014300E02B
:10216000814311607047554A34320029116801D00B
:10217000014300E0814311607047504A3832002922
:10218000116801D0014300E08143116070474B4A60
:1021900040320029116801D0014300E08143116001
:1021A0007047464A44320029116801D0014300E0DB
:1021B000814311607047414A10320029116801D0F3
:1021C000014300E08143116070473C4A143200290A
:1021D000116801D0014300E0814311607047374A24
:1021E00018320029116801D0014300E081431160D9
:1021F0007047324A20320029116801D0014300E0C3
:102200008143116070472D4A24320029116801D0A2
:10221000014300E0814311607047284A5032002991
:10222000116801D0014300E0814311607047234AE7
:1022300054320029116801D0014300E0814311604C
:1022400070471E4A58320029116801D0014300E04E
:10225000814311607047194A60320029116801D02A
:10226000014300E0814311607047144A6432002941
:10227000116801D0014300E08143116070470F4AAB
:102280000D320029117801D0014300E08143117023
:1022900070470A487430016841F0807101607047EE
:1022A0000146064A00200C3212680A4200D0012082
:1022B000704702490E310870704700000038024034
:1022C000FFFFF6FE1030002400004742800E474218
:1022D0000000FFFF0024F40080010020FFFCFF0F3E
:1022E0005C014742FE4910B5884206D101210846EB
:1022F000FFF789FF002101205BE0B0F1804F09D09A
:10230000F84988420DD101210220FFF772FF002118
:10231000022070E001210846FFF76BFF0021012039
:1023200069E0F149884206D101210420FFF761FFED
:10233000002104205FE0ED49884206D101210820F8
:10234000FFF757FF0021082055E0E949884206D1F0
:1023500001211020FFF74DFF002110204BE0E5493F
:10236000884206D101212020FFF743FF00212020D1
:1023700041E0E149884206D101210220FFF743FFF5
:102380000021022015E0DD49884202D101210C0420
:102390000AE0DB49884202D101214C0404E0D9491A
:1023A00088420AD101218C042046FFF72CFF00212E
:1023B0002046BDE81040FFF726BFD349884206D12A
:1023C00001214020FFF715FF0021402013E0CF49F5
:1023D000884206D101218020FFF70BFF00218020D9
:1023E00009E0CB4988420AD1841501212046FFF734
:1023F00000FF00212046BDE81040FFF7FABE10BDE7
:1024000030B50288B64CBC4DA0420DD0A8420BD0CE
:10241000B0F1804F08D0B34B984205D0B24B9842F0
:1024200002D0B24B984203D122F070034A881A437B
:10243000AF4B984206D0AF4B984203D022F4407382
:102440000A891A4302804A68C2620A880285A04249
:1024500001D0A84201D1897A01860121818230BD53
:102460004FF0FF3141600021018001814180817284
:102470007047018582827047028822F070020A4309
:102480000280704741627047C1627047406A70477E
:10249000008D70470029018802D041F0020101E05F
:1024A00021F00201018070470029018802D041F02B
:1024B000040101E021F00401018070470029018836
:1024C00002D041F0800101E021F0800101807047DD
:1024D000028822F00802028002880A4302807047C4
:1024E000028822F44072028002880A430280704708
:1024F0000029018802D041F0010101E021F0010131
:102500000180704730B5028C22F001020284028CF7
:102510008388048B22F0020224F073050C882C437C
:102520008D8915434A882A436D4DA84202D0724DC9
:10253000A8420DD122F00805CA8923F440732A432A
:1025400022F004058A882A430D8A1D434B8A2B43B7
:102550008380048389684163028430BD70B5028C36
:1025600022F010020284028C8388048B0D8824F4EC
:10257000E6464FF6FF7404EA052535438E8922F0BE
:10258000200204EA061616434A8804EA021232437D
:10259000534EB04202D0584EB04215D122F08006C0
:1025A000CA8923F4406304EA0212324322F040064F
:1025B0008A8804EA021232430E8A04EA86061E431F
:1025C0004B8A04EA830333438380058389688163EC
:1025D000028470BD70B5028C22F480720284028C79
:1025E0008388848B0D8824F0730425438E894FF6ED
:1025F000FF7422F4007204EA062616434A8804EAAD
:1026000002223243364EB04202D03B4EB04215D188
:1026100022F40066CA8923F4405304EA02223243BA
:1026200022F480668A8804EA022232430E8A04EA8F
:1026300006161E434B8A04EA0313334383808583C3
:102640008968C163028470BD70B5028C22F4805227
:102650000284058C8288838B0C8823F4E6464FF62F
:10266000FF7303EA0424344325F400568D8903EAFA
:10267000053535434E8803EA06362E43184DA842E9
:1026800002D01D4DA84205D122F480450A8A03EAF2
:1026900082122A438280848389680164068470BD23
:1026A000002101804180818081608181C18101821E
:1026B0004182704730B50124058C00F118038C402D
:1026C000A543058431B308292CD0091FC1F34E005E
:1026D0001844016848F6FF731940016001681AE068
:1026E000000001400004004000080040000C0040D1
:1026F0000010004000140040000401400040014070
:10270000004401400048014000180040001C004007
:102710000020004006E04FF6FF7303EA0222114357
:10272000016030BD03EB510001684FF68F73194013
:1027300001600168F3E74163704781637047C163DB
:10274000704701647047028B22F070020A430283D3
:102750007047028B4FF6FF7322F4E04203EA012137
:10276000114301837047828B22F070020A438283F7
:102770007047828B4FF6FF7322F4E04203EA012197
:10278000114381837047028B22F008020A430283BF
:102790007047028B4FF6FF7322F4006203EA0121B7
:1027A000114301837047828B22F008020A4382831F
:1027B0007047828B4FF6FF7322F4006203EA012117
:1027C000114381837047028B22F004020A43028383
:1027D0007047028B4FF6FF7322F4806203EA0121F7
:1027E000114301837047828B22F004020A438283E3
:1027F0007047828B4FF6FF7322F4806203EA012157
:10280000114381837047028B22F080020A430283C6
:102810007047028B4FF6FF73C2F30E0203EA0121E9
:10282000114301837047828B22F080020A43828326
:102830007047828B4FF6FF73C2F30E0203EA012149
:10284000114381837047028C22F002020A43028402
:102850007047028C22F008020A4302847047028CFF
:102860004FF6FF7322F0200203EA011111430184A5
:102870007047028C4FF6FF7322F0800203EA0111C9
:10288000114301847047028C4FF6FF7322F40072EB
:1028900003EA0121114301847047028C4FF6FF7354
:1028A00022F4006203EA0121114301847047028C83
:1028B0004FF6FF7322F4005203EA01311143018401
:1028C000704710B50123048C8B409C430484038C17
:1028D0008A401343038410BD10B50423048C8B403D
:1028E0009C430484038C8A401343038410BD828B71
:1028F00022F440628283828B4FF6FF7303EA012148
:102900000A4382837047828B22F00C028283828B7F
:102910000A4382837047028B22F440620283028B57
:102920004FF6FF7303EA01210A4302837047F0B5B3
:10293000048C24F010040484078B068C4FF6FF747B
:1029400004EA011527F4734704EA0331394304EA22
:1029500002220A4326F0A001294341F0100102831C
:102960000184F0BD028B22F00C020283028B0A4329
:10297000028370472DE9F0410C460E884988A288F1
:10298000238905460EB3042E26D0082E2E8C4FF632
:10299000FF7028D026F480562E84AF8B2E8C00EA50
:1029A000022200EA013127F473473A4300EA033078
:1029B000104326F420420A4342F48051A88329841C
:1029C000E1882846BDE8F04191E700F061F9E1882F
:1029D0002846BDE8F041C5E7FFF7A9FFE188284692
:1029E000BDE8F04197E726F480762E84AF8B2E8CDD
:1029F00000EA012100EA0310104327F0F3073843EF
:102A000026F420620A4342F48071A8832984E18875
:102A10002846BDE8F04176E700210180418001228F
:102A20008280C180018170472DE9F0410C4600256C
:102A300049880746012601B90225A288012A00D14A
:102A40000226208823890028384610D0FFF76FFF20
:102A5000E1883846FFF75FFF23893246294638462A
:102A600000F016F9E1883846BDE8F0417AE700F059
:102A70000FF9E1883846FFF775FF2389324629466A
:102A80003846FFF754FFE1883846BDE8F04142E799
:102A9000406B7047806B7047C06B7047006C70472D
:102AA00010B50A884B88CC881A438B8823431A4375
:102AB0000B891A434B8989891A430A43A0F8442099
:102AC00010BD0021018041808180C1800181418150
:102AD00081817047002930F8441F02D041F4004141
:102AE00001E0C1F30E01018070470029818802D006
:102AF00041F0040101E021F00401818070470029C8
:102B0000818802D041F0010101E021F001018180C2
:102B10007047002A828901D00A4300E08A438281FB
:102B200070478182704702460020128A0A4200D014
:102B300001207047C94301827047034600201A8A6A
:102B40009B890A4203EA010302D0002B00D0012036
:102B50007047C943018270471143A0F8481070477D
:102B6000002A828901D00A4300E08A4382817047AB
:102B70000029818802D041F0080101E021F008011C
:102B800081807047018921F0070101817047028926
:102B900022F070020A430281704700B50346FFF736
:102BA000F6FF188940F00700188100BD70B50D468A
:102BB00011460446602D4FF001020AD000F068F87B
:102BC00029462046FFF7E3FF208940F007002081D7
:102BD00070BDFFF7ACFEF3E730B504894FF6FF7523
:102BE00005EA03231343E4B20B432343038130BDBF
:102BF00010B50446FFF7F0FF208940F077002081F0
:102C000010BD10B50446FFF7E7FF208940F480406F
:102C1000208110BD828822F07002828082880A435F
:102C200082807047028922F00702028102890A43EA
:102C300002817047028922F08002028102890A43E0
:102C40000281704770B50589048B068C25F0070555
:102C50000D434FF6FC410C4040F201110C434FF67E
:102C6000FF7101EA031126F0220611433143058169
:102C70000483018470BD0029818802D041F0800165
:102C800001E021F0800181807047A0F8501070476A
:102C900070B5048C24F001040484058B048C4FF679
:102CA000FF7606EA0313134325F0F3052B4324F0C4
:102CB0000A020A4342F001010383018470BD00004F
:102CC000CA4910B5884206D101211020FFF79BFAAE
:102CD0000021102028E0C649884202D101214C047D
:102CE00010E0C449884202D101218C040AE0C249A3
:102CF000884202D10121CC0404E0C04988420AD1B3
:102D000001210C052046FFF774FA2046BDE810406B
:102D10000021FFF76EBABA49884209D1012120206B
:102D2000FFF771FA00212020BDE81040FFF76BBAD1
:102D300010BD7FB50446008A0D46C98820F4405076
:102D400001432182A08941F20C618843A9882A8924
:102D500011436A8902431143A181A08A20F4407182
:102D6000A8890843A0826846FFF78FF99F488442EC
:102D700002D0A348844201D1039800E00298A189BF
:102D80000904002900EBC00101EB0010296802DAF8
:102D90004FEA410101E04FEA8101B0FBF1F064220A
:102DA000B0FBF2F14FEA01114FEA11136FF0180571
:102DB0006B4300EB8300A3891D044FF0320306D55B
:102DC00003EBC000B0FBF2F000F0070005E003EBFE
:102DD0000010B0FBF2F000F00F00084320817FBD2F
:102DE0004FF41651016000218180C18001810C22C5
:102DF00042818181704710B5028A4C8822F4706349
:102E00000A8822438C88C9880C4322431A430282D1
:102E100010BD0021018041808180C1807047002960
:102E2000818902D041F4005101E021F400518181F7
:102E30007047028B02F47F420283028B0A430283B3
:102E400070470029818902D041F4004101E0C1F3BB
:102E50000E01818170470029818A02D041F400610E
:102E600001E021F4006181827047C1F30801818093
:102E700070478088C0F308007047028A22F00F0272
:102E80000282028A0A43028270470029818902D0A5
:102E900041F0020101E021F0020181817047828945
:102EA00022F40062828182890A4382817047028A09
:102EB00022F020020282028A0A430282704700291D
:102EC000018A02D041F4804101E021F48041018275
:102ED0007047818941F00101818170470029818A11
:102EE00002D041F0080101E021F008018182704721
:102EF000028BD2B20283028B42EA01210183704726
:102F00000029818A02D041F0200101E021F0200156
:102F1000818270470029818A02D041F0100101E0CE
:102F200021F0100181827047828A22F0040282829D
:102F3000828A0A43828270470029818A02D041F046
:102F4000020101E021F0020181827047002A828A99
:102F500001D00A4300E08A438282704710B5C1F372
:102F6000421301F01F040121A140012B07D0022BC5
:102F700007D01430002A026805D00A4304E00C3060
:102F8000F8E71030F6E78A43026010BD02460020E1
:102F900012880A4200D001207047C943018070475F
:102FA00070B501F01F0501260024C1F3421306FA93
:102FB00005F2012B0FD0022B0FD0838A4FEA11218B
:102FC0000088134206FA01F600EA060001D000B1BB
:102FD0000124204670BD8389F0E7038AEEE70A0AE0
:102FE00001219140C9430180704700000010014059
:102FF0000044004000480040004C004000500040A9
:103000000014014010B5431C02E010F8011B71B11F
:103010008107FAD14FF0013202C88C1A8C4314EAAE
:10302000C211F9D0C01A0A0603D0C01E10BDC01AC2
:1030300010BD0A0401D0801E10BD0902FCD0401E44
:1030400010BD032A40F2308010F0030C00F0158010
:1030500011F8013BBCF1020F624498BF11F801CB9B
:1030600000F8013B38BF11F8013BA2F1040298BF00
:1030700000F801CB38BF00F8013B11F0030300F06A
:103080002580083AC0F0088051F8043B083A51F80E
:1030900004CBA0E80810F5E7121D5CBF51F8043B13
:1030A00040F8043BAFF30080D20724BF11F8013B86
:1030B00011F801CB48BF11F8012B24BF00F8013BE8
:1030C00000F801CB48BF00F8012B704710B5203A3B
:1030D000C0F00B80B1E81850203AA0E81850B1E8D1
:1030E0001850A0E81850BFF4F5AF5FEA027C24BF87
:1030F000B1E81850A0E8185044BF18C918C0BDE87E
:1031000010405FEA827C24BF51F8043B40F8043B46
:1031100008BF7047D20728BF31F8023B48BF11F8FB
:10312000012B28BF20F8023B48BF00F8012B704755
:10313000704770477047000070B5064C7C44064DE0
:103140007D4403E0206820448047241DAC42F9D12F
:1031500070BD0000241000002410000010B500F025
:1031600009F8BDE81040AFF30080002801D000F05E
:1031700019B8704710B5002102A000F044F80120F2
:1031800010BD00005349475056464E3A20507572C4
:1031900065207669727475616C20666E2063616C5F
:1031A0006C65640001491820ABBEFEE726000200F2
:1031B000754600F049F8AE4605006946534620F0D2
:1031C0000700854618B020B5FDF75CF8BDE8204043
:1031D0004FF000064FF000074FF000084FF0000BD3
:1031E00021F00701AC46ACE8C009ACE8C009ACE886
:1031F000C009ACE8C0098D4670470446AFF30080B3
:103200002046FDF72AF870B505460C460A2000E076
:103210006D1C00F011F835B128780028F8D102E0D3
:10322000641C00F009F814B120780028F8D1BDE83A
:1032300070400A20AFF3008008B569468DF80000A1
:103240000320ABBE08BD0000004870470C0E0020F4
:10325000704770B505460C000AD00846FFF7D2FE4D
:1032600002462868214643682846BDE87040184752
:10327000002070BD024901600021416070470000DC
:103280002C410008807B70470020FFF767BF0000DB
:1032900010B591EA030F48BF83F0004300F110849A
:1032A000841A71EB030C05D2121943EB0C03001BBB
:1032B00061EB0C01DFF824E14FEA1154A4EB135C3D
:1032C0001EEA430F18BF9EEA445F73D023EA0E0341
:1032D000DCF1200E21EA045143F4801332D322FAA8
:1032E0000CFE10EB0E0023FA0CFE41EB0E01CCF1AC
:1032F000200E03FA0EFE10EB0E0051F10001B1F5A5
:10330000801FCCF1200E32D201EB045112FA0EF2E2
:10331000BDE8104058BF7047401C38BF5FEA42020A
:1033200018BF7047002814BF20F0010041F10001D0
:103330004FEA410313F5001F38BF7047A1F1C041A8
:1033400000F06EBB012A43EB0302ACF1200CDCF170
:103350001F0E32BF4FF0000E23FA0CF310EB0300E8
:1033600041EB0451B4EB115FD0D0A1EB045101F556
:10337000801149085FEA300001EB04510ED350F18F
:10338000000038BF12FA0EFE08D1BDE81040C9E7B0
:10339000401C38BF5FEA4202CAD1C3E7BDE8104013
:1033A0004FEA410313F5001F38BF7047A1F1C04138
:1033B00000F036BB9EEA445F08D011EA5E0FBDE81C
:1033C000104004BF01F0004100207047BDE81040EC
:1033D00070B500F0D7FA00BF64FBBE3E0000E0FF0E
:1033E000491058BFC1F140415B1058BFC3F1404381
:1033F0008B42EFF3008070472DE9C04130B4DFF815
:10340000A0C23CEA111418BF3CEA131400F0EC808F
:1034100081EA03051CEA111444EAD57418BF1CEABA
:10342000131500F0C780A4EB05044FF0004545EAF2
:10343000C12145EAC32341EA505143EA525304F102
:103440007F74994204F500344FEAC0204FEAC2224B
:1034500008BF904200F09C804FEA13650FF24016BF
:10346000765D4FEA134506FB05F7C7F1807706FB4B
:1034700007F74FEAD737A7FB03687642C8F58038CD
:10348000A7FB06CE38BFA8F1010807FB08E64FF0FE
:10349000000EA6FB028CE6FB03CEDCF1000CCEF1A5
:1034A000004E38BFAEF1010EA6FB0C584FF00007DE
:1034B0004FF00005E6FB0E87A1FB08C6A0FB07CE78
:1034C00016EB0E0645F10005E1FB076515F1E04E30
:1034D0007EBFA4F580345FEA46066D4116F1800791
:1034E00045F100054FEA17274FEA066647EA0567E8
:1034F000A6F1DE46B6F1805F4FEA15251FD93846A2
:1035000024F0010C05EBC471BCF1FE6F01EB0C1152
:1035100002D8F0BCBDE8008124425CBF01F5801EEA
:103520009EEAC47F02D4F0BCBDE80081244238D4B6
:10353000F0BCA1F1C041BDE8004100F071BA4FEA12
:10354000D22242EA43524FEAD323A7FB02864FEA34
:10355000D02040EA415007FB03661EEA0E0F4FEAF7
:10356000D12105FB026658BFA6EB0056B6EB00560C
:103570004FEA520E4EEAC37E18EB0E0E56EB530E78
:10358000BDD518EB02085E417F1C55F10005B6E77A
:103590004FF480154FF000074FF000064FF0000881
:1035A000ADE7F0BC4FF0000001F1C04101F0004177
:1035B000BDE8008111EA0C1F0CEA131500D00CE0E5
:1035C00013EA0C1F00F025804FF00000F0BC81EAE8
:1035D000030101F00041BDE80081F0BCBDE80041FD
:1035E00081EA030100F01CBAF0BCBDE8004170B5EF
:1035F00000F0C8F9097EFC3E00F007B881EA03013B
:103600004FF0000001F00041704781EA030100F033
:1036100007BAF0BCBDE800414FF0000021497047F7
:10362000FFFDFBF9F7F5F4F2F0EEEDEBE9E8E6E487
:10363000E3E1E0DEDDDBDAD8D7D5D4D3D1D0CFCD0E
:10364000CCCBCAC8C7C6C5C4C2C1C0BFBEBDBCBB47
:10365000BAB9B8B7B6B5B4B3B2B1B0AFAEADACAB42
:10366000AAA9A8A8A7A6A5A4A3A3A2A1A09F9F9E1C
:103670009D9C9C9B9A9999989797969595949393CE
:10368000929191908F8F8E8E8D8C8C8B8B8A898965
:1036900088888787868585848483838282818180E8
:1036A0000000FF070000F87F4FEA41034FEA535341
:1036B000A3F58063D3F11E03C8BFD3F1210C0CDD49
:1036C0004FF0004242EAC12242EA505232FA03FC71
:1036D0008CEAE17CACEBE1707047102BC4BF00209A
:1036E000704703F5787CBCF1FF3F04D06FF00042D7
:1036F00082EA2100704770B500F044F949922480B5
:1037000000207047F2E700004FEA1153A3F58063F1
:10371000D3F11E03A8BFD3F1200C08DB4FF0004209
:1037200042EAC12252EA505232FA03F0704709428B
:103730000BD4102BC4BF0020704703F5787CBCF17C
:10374000FF3F05D04FF0FF3070474FF0000070474B
:1037500070B500F017F900BF49922480002070472F
:10376000F0E710F0004248BF4042B0FA80F310FA90
:1037700003F10AD0C3F11D0303F580634FEA415002
:1037800002EB035202EBD12170474FF0000070476B
:10379000B0FA80F310FA03F10AD0C3F11D0303F568
:1037A00080634FEA41504FEA035202EBD121704748
:1037B0004FF000007047000051EA030C17D41CF5CD
:1037C000801F58BFBCF5801F00F10680994218BFCA
:1037D000704708BF9042704707D711F5801F58BF48
:1037E00013F5801F19D499427047894270471CF520
:1037F000801F08D5BCF5801FF7D58B4218BF7047D6
:1038000008BF824270474FF4001C1CEB410F38BFC9
:103810001CEB430F01D28B42704770B500F0B2F839
:10382000922449004FF000514FF08053FFF7D8BD6C
:10383000DFF848C170B51CEA111E1EBF1CEA131543
:103840009EEA0C0F95EA0C0F00F06F8081EA0304EA
:1038500023EA4C134EEAD47E21EA4C1141F4801144
:1038600043F48013AE44A1FB024CA0FB0365AEF110
:103870007F7E361955EB0C05A1FB034C4CF1000380
:10388000A0FB021C16EB0C06654153F10003094234
:1038900018BF46F0010613F4007F0BD14FEA033145
:1038A0004FEA0530340341EA155140EA16506FF0F3
:1038B00003020AE04FEAC3214FEAC520F40241EABD
:1038C000555140EA56506FF0020202EB2E4201EBD6
:1038D000025585EACE710AD05FEA440C18BF24F085
:1038E000004450F1000041F1000120EAD47040F2A0
:1038F000FE7C624500D270BDA84214BF4FF08044E8
:103900004FF04044002E08BF0024BEF1806FA8BFD6
:10391000A1F1C041BDE8704080F282804FF000000C
:1039200001F1C04101F0004170479EEA0C0F0CEA22
:10393000131518BF95EA0C0F06D04FF0000081EA6E
:10394000030E0EF0004170BD00F01CF88900013E2E
:1039500000F007B800F009B84FEA430C5FEA5C5C7E
:1039600008D081EA030100F05BB84FEA410C5FEA3E
:103970005C5CF6D14FF00000014970470000FF0782
:103980000000F87F0EF1020E2EF0030E5EF8046BBD
:10399000364205D4012A43EB030515F5001F12D862
:1039A000012841EB010C1CF5001F0CD80ED14FEA89
:1039B000D17C15F5001F0CEB4C0C0CF1020C08BF70
:1039C0004CEBD37C04E04FF0080C01E04FEAD37CD1
:1039D0000CEB4C0526FA05F606F00706B6F1040CCA
:1039E00006D20EEB860CBDE870404CF0010C60472F
:1039F000DFE80CF0090B02024FF000414FF000002D
:103A0000A1F5002170BD19461046012851EB0104B3
:103A100018BFD4F5001484BF002001F0004170BD30
:103A20000808A0F500114FEA3101704753EA010C74
:103A300017D41CF5801F58BFBCF5801F00F106800D
:103A40008B4218BF704708BF8242704707D713F5F3
:103A5000801F58BF11F5801F19D48B4270479B42BD
:103A600070471CF5801F08D5BCF5801FF7D599421B
:103A700018BF704708BF904270474FF4001C1CEB02
:103A8000430F38BF1CEB410F01D2994270470FB46E
:103A90000CBC03BCFFF7C1BE91EA030F10B581F067
:103AA00000413FF5FDAB83F0004300F009B8000092
:103AB00010B591EA030F48BF83F000433FF5F0AB28
:103AC000841A71EB030C07D212198CF0004C43EBF3
:103AD0000C03001B61EB0C01DFF8A4E14FEA115469
:103AE000A4EB135C1EEA430F18BF9EEA445F00F08C
:103AF000B08023EA6E03524221EA0451C3EB6E0305
:103B000038BF5B1EDCF1200E25D322FA0CFE10EB31
:103B10000E0043FA0CFE41EB0E01CCF1200E03FA2D
:103B20000EFE10EB0E0051F10001CCF1200E29D455
:103B300012FA0EF201EB0451BDE8104058BF704775
:103B4000401C1CBFB2F1004F704700280CBF491C3D
:103B500020F00100704712EB020E43EB030218BF86
:103B60004FF0010E4EEA4202ACF1200CDCF11E0EC9
:103B700054D943FA0CFE10EB0E0051F1FF31CCF199
:103B80001E0ED5D50EF1010E12FA0EFE404141EB8C
:103B9000010101EB445C5FEA5C5C10D910EBDE7064
:103BA00001EB045138BFBEF1004FBDE8104018BF13
:103BB000704700280CBF491C20F00100704730D22C
:103BC0004FEAD42C11F5001124F400641BD0B1FA93
:103BD00081F20B3AA41AA41ED2F12003914030FACC
:103BE00003F31943904001EBCC71002C01EB04511D
:103BF000BDE81040A8BF704701F1C0414FF0000080
:103C000001F000417047B0FA80F310FA03F100D1DF
:103C100010BDE41A173C4805C90AE4E701EB04515A
:103C200010BD491001EB0451BDE810404FEA3000CF
:103C300002E04FF0000170474A0008BF0042F8D090
:103C4000B2F5001F28BF704701F000414FF000009F
:103C500070479EEA445F07D011EA5E0FBDE810404E
:103C600004BF002100207047BDE8104070B5FFF789
:103C700089FE00BF40DFF63E83F0004110467047EA
:103C80000000E0FF43004FEAD30C4FEA3C0C4340F6
:103C90001FBF40070CF1605113F0FE4F70471CF03E
:103CA000006F03D100200CF0004170470CF000437E
:103CB00043EA507010B540EACC0000F0E4F800BFD1
:103CC000000000924FEA0001FFF7AABE4FF000414A
:103CD0004FF00000A1F50021704700004FF47F0C69
:103CE0001CEAD0121EBF1CEAD11392EA0C0F93EA11
:103CF0000C0F00F0858090EA010F48BF42F48072FB
:103D000040F4000C41F400002CF07F4120F07F4093
:103D100000B58142A2EB03020FF2081CACEB504E3F
:103D2000C0F100009EF800E04FEA4E0E00FB0EFCD2
:103D300038BF49004FEA2C1C02F5FA020CFB0EF3C7
:103D40004FEACE1E4FEA112C4FEAC1210EEB635E03
:103D500042EB22420EFB0CFC4FEA1C5300FB03110A
:103D60004FEA112C4FEA01310EFB0CFC4FEADC4C00
:103D700000FB0C11C14228BF09184CEB03335DF85E
:103D800004EB10EB410143EBC250B2F57C0F38BF9E
:103D9000704729D512F0F00F1CBF00F1C04000F0B1
:103DA00000407047008182838485868788898B8C58
:103DB0008D8E8F919293959697999A9C9D9FA0A294
:103DC000A3A5A7A8AAACAEB0B2B3B5B7B9BCBEC0E4
:103DD000C2C5C7C9CCCED1D4D7D9DCDFE2E6E9EC85
:103DE000F0F3F7FAFE0000004FEA400C0CF1807C83
:103DF000BCF17E4F28BF7047B0F1C04000F089B8D9
:103E000090EA010F0CEAD11348BF42F48072624578
:103E100038BF634507D213F47F0F16D080EA010044
:103E200000F00040704710B500F02DF8097EFC3E10
:103E300000F005B880EA010000F00040704780EA19
:103E4000010000F0004000F064B812F47F0F04BFDE
:103E50000248704780EA010000F05BB80000C07FB4
:103E6000B0FA80F310FA03F2C3F19D030AD0D9052A
:103E700001EB1220530638BF704700F1010008BF64
:103E800020F0010070470EF1020E2EF0030E5EF8D6
:103E9000044B244204D44FEA4102B2F17F4F11D8BF
:103EA0004FEA4003B3F17F4F0CD80ED14FEAD07CDC
:103EB000B2F17F4F0CEB4C0C0CF1020C08BF4CEB39
:103EC000D17C04E04FF0080C01E04FEAD17C0CEB10
:103ED0004C0324FA03F404F00704B4F1040C06D2F2
:103EE0000EEB840CBDE810404CF0010C6047DFE89D
:103EF0000CF0070802024FF00040A0F5800010BD52
:103F00000846420018BFD2F1807288BF00F000401E
:103F100010BDFF2141EAD050C00570475468697355
:103F200020726F79616C207468726F6E65206F66A5
:103F3000206B696E67732C207468697320736365E6
:103F40007074657227642069736C652C200A54684C
:103F50006973206561727468206F66206D616A659F
:103F60007374792C20746869732073656174206F91
:103F700066204D6172732C200A54686973206F7437
:103F8000686572204564656E2C2064656D692D70CE
:103F9000617261646973652C200A546869732066D4
:103FA0006F727472657373206275696C74206279C4
:103FB000204E617475726520666F72206865727339
:103FC000656C660A416761696E737420696E666527
:103FD0006374696F6E20616E642074686520686127
:103FE0006E64206F66207761722C200A54686973B2
:103FF000206861707079206272656564206F662048
:104000006D656E2C2074686973206C6974746C65BE
:1040100020776F726C642C0A546869732070726523
:1040200063696F75732073746F6E65207365742098
:10403000696E207468652073696C7665722073659B
:10404000612C200A5768696368207365727665730E
:1040500020697420696E20746865206F66666963E4
:1040600065206F6620612077616C6C2C200A4F728E
:104070002061732061206D6F617420646566656ED8
:104080007369766520746F206120686F7573652C85
:10409000200A416761696E73742074686520656EDB
:1040A0007679206F66206C65737320686170706923
:1040B0006572206C616E64732C200A5468697320E9
:1040C000626C657373656420706C6F742C20746807
:1040D00069732065617274682C207468697320723A
:1040E00065616C6D2C207468697320456E676C6126
:1040F0006E642C000000000040000000140000006E
:1041000054000000000000000000000053190008E7
:1041100093100008000000000000000000000000F4
:1041200000000000000000000000000089320008CC
:10413000931000080000000000000000C5120008F5
:104140009310000868410008000000209001000062
:10415000C4010008B841000890010020E0120000EE
:104160002002000879C4FFFF11847A030AC0090104
:10417000020304060708093201320232043208320F
:1041800010322032406A8021511302401A04041A6E
:1041900008041A0C041A10041A14041A18041A1C1D
:1041A000041A20043A543701FF01122D01020304BE
:0841B0000405000607080900E0
:040000050800018965
:00000001FF
