:020000040800F2
:10000000C816002039020008190800081B0800085B
:100010001F08000823080008270800080000000047
:100020000000000000000000000000002B08000895
:100030002D080008000000002F080008CD19000856
:10004000530200085302000853020008530200083C
:10005000530200085302000853020008530200082C
:10006000530200085302000853020008530200081C
:10007000530200085302000853020008530200080C
:1000800053020008530200085302000853020008FC
:1000900053020008530200085302000853020008EC
:1000A00053020008530200085302000853020008DC
:1000B0000D0B0008530200085302000875110008D8
:1000C0007911000853020008530200085302000887
:1000D00053020008E51D0008411E00089D1E00088F
:1000E000530200085302000853020008530200089C
:1000F000530200085302000853020008530200088C
:10010000530200085302000853020008530200087B
:10011000F91E0008530200085302000853020008A9
:10012000530200085302000853020008530200085B
:10013000530200085302000853020008530200084B
:10014000530200085302000853020008530200083B
:10015000530200085302000853020008530200082B
:10016000530200085302000853020008530200081B
:10017000530200085302000853020008530200080B
:10018000530200085302000800F002F800F045F89E
:100190000AA090E8000C82448344AAF10107DA45E2
:1001A00001D100F03AF8AFF2090EBAE80F0013F0EF
:1001B000010F18BFFB1A43F00103184760510000FC
:1001C00080510000103A24BF78C878C1FAD852078D
:1001D00024BF30C830C144BF04680C6070470000C1
:1001E0000023002400250026103A28BF78C1FBD840
:1001F000520728BF30C148BF0B6070471FB504F0DD
:100200001FF804000020002104F008F9401C606081
:1002100003F09EFF1FBD10B510BD04F047F8114656
:10022000FFF7ECFF00F028F804F065F803B4FFF7DF
:10023000F2FF03BC04F034F809488047094800473E
:10024000FEE7FEE7FEE7FEE7FEE7FEE7FEE7FEE786
:10025000FEE7FEE704480549054A064B70470000E3
:10026000F708000889010008C8100020C8160020FF
:10027000C8120020C8120020ADF51E7D28209D90D8
:100280004FF0000900F0CAFB4FF4964340F20A32E7
:10029000511CF94801F086FE4FF4EC72F74907A8AB
:1002A00003F021FF07A803F0BAFE1FFA80FA07A99E
:1002B000F14801F042F9F04804F084F803A802F094
:1002C00044FCEFA1EC4800F0CDFF0A22EA48039974
:1002D00000F0D0FFEDA1E84800F0C4FF0A22E64894
:1002E000049900F0C7FFECA1E34800F0BBFF0A222D
:1002F000E148059900F0BEFFEAA1DF4800F0B2FF37
:100300000A22DD48069900F0B5FFDB4801F007F945
:10031000D94804F057F840F20C4000F01AFC80462F
:1003200040F20D4000F015FC48EA000840F20E4093
:1003300000F00FFC48EA000840F20F4000F009FC12
:1003400048EA000540F20C4000F0FCFB07460020A4
:1003500000900223012229460190384600F070FCEB
:10036000D3484FF402735A1CD2490090D24800F08F
:10037000E3FCD149D14801F093F9D04801F0C1F92B
:100380002E21CE4801F064FACDA1CC4800F06AFFDE
:10039000CD4802F09FF8044640F20D4000F0D9FB32
:1003A000C4F30B0140EA01052946C74800F0A6FC4A
:1003B0009D9800F083FB00F07EFB4FF47A71B0FB58
:1003C000F1F600BF00F077FB4FF47A71B0FBF1F06B
:1003D000B042F7D000F06FFB4FF47A71B0FBF1F64A
:1003E000E3E1B94802F076F8044640F20D4000F02F
:1003F000B0FBC4F30B0140EA01073946B24800F0F4
:100400007DFC9D9800F05AFB40F20E4000F0A1FBED
:10041000C4F30B0140EA01073946AB4800F06EFC1B
:100420009D9800F04BFB40F20F4000F092FBC4F3AC
:100430000B0140EA01073946A34800F05FFC9D9894
:1004400000F03CFB40F20C4000F083FBC4F30B01D6
:1004500040EA010739469C4800F050FC9D9800F0A6
:100460002DFBC4F30B043C20B6FBF0F100FB116044
:100470000F21B0FBF1F0B8B101280FD0022807D04E
:10048000032812D140F20C4000F063FB044300BF8C
:1004900040F20F4000F05DFB044300BF40F20E400D
:1004A00000F057FB044300BF00BF40F20D4000F0D6
:1004B00050FB044300BF00BF2146834800F01EFCF0
:1004C00000BF00F0F8FA4FF47A71B0FBF1F0B042DF
:1004D000F7D000F0F0FA4FF47A71B0FBF1F600F0CB
:1004E000EAFA019004F098FD7849029004F0D2FCF9
:1004F000834604F0A3FC074603203A460B460090CF
:100500005D4800F0B8FF60A15B4800F0ABFE00BFA3
:1005100000206A49897B11F0400F00D00120674913
:10052000897B21F04001142901DB811CC8B200BF86
:1005300007460A223946504800F07FFF52A14E4834
:1005400000F090FE00BF5D49897B21F0400014213E
:1005500090FBF1F201FB1201C9B20F460A22464894
:1005600000F06BFF48A1444800F07CFE00F0A3FAC5
:100570004FF47A71B0FBF1F1AAF11000B1FBF0F287
:1005800000FB121007A94718102239463A4800F01C
:100590003FFF4F4801F044FD4EA1374800F062FE96
:1005A0004B484168344800F09EFF494801F045FD42
:1005B00035A1314800F056FE454881682E4800F0CC
:1005C00092FF2D4800F0ABFF002211463B4801F09E
:1005D00016F900F070FA4FF47A71B0FBF1F1AAF15C
:1005E0001000B1FBF0F200FB121007A9471810220F
:1005F0003946324800F00CFF2F48C06810F0004F19
:1006000009D037A11C4800F02DFE2B48C1681022EC
:10061000194800F0F6FF01220021284801F0EFF808
:1006200000F049FA019004F0F7FC2849029004F028
:1006300031FC834604F002FC074603203A460B4691
:1006400000901E4800F017FF0B4803F0C2FE002880
:100650007ADD53E0084F07F1100001F094FBC5B2BA
:100660000A2D03D00D2D01D0202D41D100207DA9D0
:1006700001F809004AE00000BC000020D450000846
:10068000535953434C4B203D200000002C2048433D
:100690004C4B203D200000002C2050434C4B31207F
:1006A0003D2000002C2050434C4B32203D200000C8
:1006B000A086010000540040E4000020A4000020B7
:1006C00048656C6C6F210000000C024000007A4409
:1006D000D80000202C20436C6F636B3A2000000090
:1006E0002049324320537461747573200000000068
:1006F0004846411C1FFA81F97DA90D543C4803F07E
:1007000068FE002802DDB9F15C0FA3DB00BF7DA805
:1007100003F085FC002847D00D2D01D00A2D43D1D0
:100720009DF8F401742810D1102200210DF2F5106B
:1007300003F03DFC2F49486008464068029002A93A
:100740002C4801F088FC14E02EE09DF8F4016328A9
:100750000FD1102200210DF2F51003F028FC2549DD
:10076000886008468068029002A9224801F07DFC5A
:1007700000BF21A11E4800F075FD1E4810224168EF
:100780001B4800F077FDAFF20011194800F06AFD38
:10079000184810228168164800F06CFD17A1144813
:1007A00000F060FD4FF0000900BF1AE670B5144C70
:1007B000204603F027FE0446124820600C4D124EDE
:1007C0002C46204603F01EFE0446104820604FF4DD
:1007D0007A70A06000BF25460D4820602E6100BFE2
:1007E00004480C49016000224260826000BF70BD75
:1007F000BC000020D80000203E2000000A000000BD
:10080000A40000201453000800480040F4520008DF
:10081000C4520008E4000020704700BFFEE700BF9C
:10082000FEE700BFFEE700BFFEE770477047704776
:10083000002100206E4A126842F480326C4B1A602C
:1008400000BF6B4A126802F40030491C10B9B1F5C0
:10085000A06FF6D1664A126812F4003F01D0012061
:1008600000E00020012845D1614A4032126842F080
:1008700080525F4B40331A605E4A126842F48042F5
:100880005C4B1A605A4A08321268594B08331A6096
:100890001A46126842F400421A601A46126842F47C
:1008A000A0521A60544A1B1F1A601A1F126842F0A5
:1008B00080721B1F1A6000BF4D4A126812F0007F41
:1008C000FAD040F205624D4B1A60494A083212686C
:1008D00022F00302464B08331A601A46126842F0AF
:1008E00002021A6000BF424A0832126802F00C028B
:1008F000082AF8D1704710B53D48006840F0010063
:100900003B49086000203A490831086038480068CF
:100910003B490840364908603A48091D0860081FED
:10092000006820F48020091F0860002030490C3145
:100930000860FFF77DFF4FF000603349086010BD8D
:1009400070B500200022022300240221284D083522
:100950002D6805F00C0020B1042806D0082834D1F9
:1009600007E02A4D2A4E356033E02A4D284E356087
:100970002FE01F4D2D1D2D68C5F380541C4D2D1DDE
:100980002D6805F03F0154B1224DB5FBF1F5184E2D
:10099000361D3668C6F3881605FB06F209E01B4DC6
:1009A000B5FBF1F5124E361D3668C6F3881605FB09
:1009B00006F20F4D2D1D2D68C5F301456D1C6B0012
:1009C000B2FBF3F5124E356003E0104D104E35606A
:1009D00000BF00BF064D08352D68C5F303150E4E48
:1009E000705D0B4D2D68C540094E356070BD00002F
:1009F000003802400070004008544007003C0240AC
:100A0000FFFFF6FE1030002408ED00E00024F400A3
:100A10000000002000127A000400002000B589B018
:100A200001A802F092F8019840084349B0FBF1F0A8
:100A300080B2ADF818000020ADF81A0040F2E7309F
:100A400007900020ADF820008DF822000121084613
:100A500002F043F906A94FF0804002F0F6FA0021B7
:100A60004FF0804002F03AFB01221146900702F05D
:100A70008DFF1C208DF8140000208DF8150001203A
:100A80008DF816008DF8170005A801F0D8FB01219C
:100A9000880702F063FB00202849086028490860A5
:100AA00009B000BD10B54FF0804002F01BFB234998
:100AB0000968084410BD22480068704700B5024626
:100AC000FFF7F9FF8118FFF7F6FF884204D900BF4E
:100AD000FFF7F1FF8842FBD200BFFFF7ECFF88422F
:100AE000FBD300BD70B50546FFF7DCFF4419FFF7E7
:100AF000D9FFA04204D900BFFFF7D4FFA042FBD228
:100B000000BFFFF7CFFFA042FBD370BD10B501219E
:100B1000880702F052FF70B10121880702F05EFFE2
:100B20000648006800F57A700449086004480068C7
:100B3000401C0349086010BD40420F001400002013
:100B40001800002001467148C1F3032250F822002A
:100B50007047014601F00F020120904080B27047BB
:100B6000014601F00F0070477CB504460D46684908
:100B7000C4F3032251F82200012102F07BF8204641
:100B8000FFF7E7FF00908DF8045000208DF8060075
:100B90008DF8070002208DF805005C49C4F303229C
:100BA00051F82200694601F025FC7CBD70B5044671
:100BB0000D4665B12046FFF7CCFF06465349C4F306
:100BC000032251F82200314601F088FC0BE0204658
:100BD000FFF7BFFF06464D49C4F3032251F8220038
:100BE000314601F07DFC70BD2DE9F04104464748D7
:100BF000C4F3032150F821502046FFF7AAFF41001B
:100C00002868C840C6B2012E0DD12046FFF7A1FFCB
:100C100007463946284601F054FC10B10120BDE8D2
:100C2000F0810020FBE72046FFF793FF0746394697
:100C3000284601F039FC08B10120F0E70020EEE77A
:100C40002DE9FC4704460D4616461F46DDE90A8994
:100C50003048844204D10121022002F00BF83EE02A
:100C60002D48844204D10121042002F003F836E02B
:100C70002A48844204D10121082001F0FBFF2EE024
:100C80002748844204D10121102001F0F3FF26E01F
:100C90002448844204D10121202001F0EBFF1EE012
:100CA0002148844204D10121402001F0E3FF16E0F5
:100CB0001E48844204D10121802001F0DBFF0EE0B8
:100CC0001B48844204D10121801501F0D3FF06E0C6
:100CD0001848844203D10121084601F0CBFF00955A
:100CE0008DF804608DF806808DF807908DF80570FA
:100CF0006946204601F07EFBBDE8FC8770B50446DE
:100D00000D462946204601F0F2FB70BD440000204C
:100D10001C0000200004024000080240000C0240B9
:100D2000001002400014024000180240001C024063
:100D300000200240000002402DE9F04F89B0044637
:100D40000F4615461E46DDF848804FF004094FF463
:100D5000001A2760A580E680F9492068884203D1FF
:100D600000BF4FF4800A0EE0F6492068884204D1A3
:100D70004FF004094FF4000A05E0F34820604FF0FB
:100D800004094FF4001A0121504601F0A6FF304635
:100D9000FFF7DFFE83463046FFF7D4FE03900120C5
:100DA000009002231A46594601900398FFF748FF26
:100DB0002846FFF7CEFE83462846FFF7C3FE039082
:100DC0000120009002231A46594601900398FFF72C
:100DD00037FF3046FFF7C4FE83463046FFF7B2FECA
:100DE0004A465946039001F088FB2846FFF7B8FEB3
:100DF00083462846FFF7A6FE4A465946039001F06F
:100E00007CFBD24818EB000003D0D149401802D136
:100E100000E000BF04E0DFF83483C8F1000800BF41
:100E200000BF0020ADF818004BF6FF70ADF81A00B7
:100E30004FF48060ADF81E000001ADF82000CDF841
:100E4000148005A9206801F0B6FB1F208DF8100062
:100E500000208DF811008DF8120001208DF813008C
:100E600004A801F0ECF904A801F0E9F920208DF8BC
:100E7000100004A801F0E3F90121206801F017FC3B
:100E80000020E060607200224FF4E061206801F011
:100E900004FDFF2009B0BDE8F08F2DE9F0410446C4
:100EA000FFF709FE05464FF0640808E0FFF703FE70
:100EB00005F16401884202D90020BDE8F0814FF4B9
:100EC0000031206801F014FD0128EFD0FFF7F3FD99
:100ED00005460121206801F0F6FB0F20FFF702FE16
:100EE00007E0FFF7E8FD05F16401884201D9002021
:100EF000E3E79849206801F0D9FC0028F1D0227A74
:100F00005206110E0022206801F0F5FB07E0FFF702
:100F1000D2FD05F16401884201D90020CDE78E4958
:100F2000206801F0C3FC0028F1D004F1140700266A
:100F300019E0FFF7C0FD054617F8011B206801F016
:100F40005EFC07E0FFF7B7FD05F16401884201D9B7
:100F50000020B2E78049891C206801F0A7FC002826
:100F6000F0D0701C86B2608AB042E2DC607A012860
:100F700003D10121206801F0B2FBFF209DE72DE99C
:100F8000F04104460E4617461D4601206072267247
:100F900065822A46394604F1140003F05FF8002008
:100FA00020822046FFF779FF20B100206072FF20E9
:100FB000BDE8F081206801F08EFC40F00040E06068
:100FC0000020F5E72DE9F04104460E4617461D4680
:100FD00002206072267265822A46394604F11400A6
:100FE00003F03CF8002020822046FFF756FF20B196
:100FF00000206072FF20BDE8F081206801F06BFCEA
:1010000040F00040E0600121206801F068FB002012
:10101000F1E72DE9F0410446FFF74DFD06464FF09C
:1010200064080121206801F04EFB0F20FFF75AFDF4
:1010300008E0FFF740FD06F16401884202D9002074
:10104000BDE8F0814349206801F030FC0028F0D071
:10105000227A5206110E0122206801F04CFB07E0B3
:10106000FFF729FD06F16401884201D90020E7E776
:101070003849491C206801F019FC0028F0D004F11F
:101080001405678A19E0FFF716FD064607E0FFF72B
:1010900012FD06F16401884201D90020D0E72D49F4
:1010A0003F31206801F002FC0028F0D0206801F0F8
:1010B000A8FB05F8010B781E87B2012FE3DCFFF7D0
:1010C000FAFC06460021206801F01DFB0121206882
:1010D00001F005FB07E0FFF7EEFC06F16401884232
:1010E00001D90020ACE71B493F31206801F0DEFB4D
:1010F0000028F0D0206801F084FB287001212068CE
:1011000001F001FB0F20FFF7EDFCFF2098E72DE930
:10111000F04104460D461646032060726682204662
:10112000FFF777FF0746628A04F11401284602F0B0
:1011300095FF9FB100206072FF20BDE8F0810000A4
:1011400000580040005C0040005400406079FEFF01
:10115000206CFBFF0100030082000700206801F003
:10116000BAFB40F00040E0600121206801F0B7FACE
:101170000020E2E70C48704770B50B4C0B4801F0BB
:10118000AAFB054610F4806F07D00121074801F043
:10119000A6FA0749054801F0C0FB0020607245F03F
:1011A0000040E06070BD0000E400002000540040FA
:1011B00000040010F0B589B007460C46154608AE8D
:1011C00000203070022D00DA0A2500BF2146B4FB52
:1011D000F5F405FB1412D0B20A2802DA00F130024D
:1011E00001E000F13702D3B2721E16461370002CD4
:1011F000ECD13146384603F0F4F809B0F0BD70B5D3
:1012000004460D462068294602682046904770BD76
:101210002DE9F04106460C46154635B9E1B2306875
:10122000026830469047BDE8F0810A2D14D1002CA9
:101230000CDA2D213046FFF7E2FF074664420A220E
:1012400021463046FFF7B6FF3844ECE70A22214634
:101250003046FFF7AFFFE6E72A4621463046FFF764
:10126000A9FFE0E770B504460D462946204603F085
:10127000B8F870BD70B504460D4616462EB9E9B2F1
:10128000206802682046904770BD324629462046B5
:10129000FFF790FFF8E72DE9FF5F84B014461D4685
:1012A000DDF848B04FF0000ACDE90045DDE9002146
:1012B0000AB1012200E0002241EA020020F00041D0
:1012C000E44A511AC90F31B1E3A10498FFF7CAFFEC
:1012D00008B0BDE8F09FCDE90045E0490198B1EBC9
:1012E000400F03D1009808B9012000E0002020B190
:1012F000DBA10498FFF7B6FFEAE74FF06042D94B55
:101300002046294603F06EFC04D2D7A10498FFF7CB
:10131000A9FFDDE74FF06042D44B2046294603F099
:1013200027FB04D2D0A10498FFF79CFFD0E700224E
:1013300013462046294603F01BFB06D22D210498B4
:10134000FFF75DFF824485F000450026C84F00206E
:1013500002900BE00022C74B3046394603F028F9D3
:1013600006460F460298401CC0B2029002985845AB
:10137000F0DB32463B462046294603F065F804463A
:101380000D462046294603F09BFA0390039803F08C
:10139000DBFA22462B46CDE9000103F059FC8046DA
:1013A00089460A22DDE90310FFF764FF8244BBF19E
:1013B000000F04DDB0A10498FFF754FF82441EE043
:1013C0000022AC4B4046494603F00EFB804689465E
:1013D0004046494603F044FA02900A2202990498D2
:1013E000FFF716FF8244029803F097FA42464B46F5
:1013F000CDE9000103F02CFC8046894600BFBBF11B
:101400000000ABF1010101F0FF0BD9DC50465FE7B2
:101410002DE9F04105460C461646002706E014F873
:10142000011B286802682846904707443000A6F14F
:101430000106F4D13846BDE8F08170B504460D468A
:101440001646324629462046FFF714FF70BD70B598
:1014500004460D461646324629462046FFF7D8FE7A
:1014600070BD70B504460D461646324629462046E4
:10147000FFF700FF70BDF8B5064614461D46069FEF
:1014800022462B4630460097FFF705FFF8BD70B5A2
:1014900006460C460025211110223046FFF7B8FE03
:1014A000054404F00F0110223046FFF7B1FE054459
:1014B000284670BD2DE9F04781460E4617469846EE
:1014C000002500240AE0315D4846FFF7E0FF0544AF
:1014D00041464846FFF793FE0544641CBC42F2D3E4
:1014E0002846BDE8F08770B506460C460025210E5B
:1014F0003046FFF7CCFF0544C4F307413046FFF701
:10150000C6FF0544C4F307213046FFF7C0FF05447A
:10151000E1B23046FFF7BBFF0544284670BD70B509
:1015200005460D212846FFF76AFE04460A21284693
:10153000FFF765FE0444204670BD70B505460E46B3
:1015400031462846FFF78EFE04462846FFF7E7FFA0
:101550000444204670BD70B505460E463146284607
:10156000FFF74DFE04462846FFF7D9FF0444204606
:1015700070BD2DE9F04105460E4617463A46314604
:101580002846FFF75AFF04462846FFF7C8FF0444E1
:101590002046BDE8F0812DE9F04105460E4617468C
:1015A0003A4631462846FFF752FF04462846FFF7E1
:1015B000B6FF04442046BDE8F0812DE9F041054620
:1015C0000E4617463A4631462846FFF74AFF04467C
:1015D0002846FFF7A4FF04442046BDE8F0812DE92A
:1015E000F04105460E4617463A4631462846FFF773
:1015F0000FFE04462846FFF792FF04442046BDE84C
:10160000F0812DE9F04105460E4617463A4631462F
:101610002846FFF72FFE04462846FFF780FF0444C4
:101620002046BDE8F0812DE9F843074615461E46E1
:10163000DDF820802A4633463846CDF80080FFF793
:101640001AFF04463846FFF76AFF04442046BDE807
:10165000F88300000000F07F6E616E000000E0FF84
:10166000696E6600FFFFEF416F766600FFFFEFC116
:101670000000E03F000024402E00000038B5044682
:101680000D4600208DF800008DF80150617D022389
:101690006A462069FFF773FC3220FFF723FA38BD52
:1016A00070B504460D4602202073102060730020A0
:1016B000A0733E2060752A202075FF20E0822561FE
:1016C000E08AFF2803D0E08A0121FFF74DFA70BDC0
:1016D00010B5044601212046FFF7D0FF0020A0737B
:1016E000C820FFF7EBF910BD10B50446607A40F052
:1016F00004006072607A40F008012046FFF7BEFFE8
:1017000010BD10B5044638212046FFF7B7FF392138
:101710002046FFF7B3FF0220FFF7D0F9142120463F
:10172000FFF7ACFF207D00F00F0040F07001204675
:10173000FFF7A4FF0220FFF7C1F9207DC0F30110DD
:1017400040F05C012046FFF799FF6C212046FFF72F
:1017500095FF4FF49670FFF7B1F938212046FFF757
:101760008DFF0C212046FFF789FF0220FFF7A6F925
:1017700001212046FFF782FF0220FFF79FF9022197
:101780002046FFF77BFF0220FFF798F9207A40F010
:1017900020012046FFF772FF042060722046FFF709
:1017A000A3FF2046FFF794FF0220A072A07A40F02A
:1017B00004012046FFF762FF10BD38B504460D4610
:1017C00040208DF800008DF80150617D02236A46AB
:1017D0002069FFF7D4FB3220FFF784F9A07B401C7F
:1017E000A073012038BD10B5044602212046FFF742
:1017F00045FF0020A073C820FFF760F910BD7FB53A
:1018000004460E461546704B0FCB8DE80F00207B2B
:10181000A84205DC207B95FBF0F100FB1150C5B21E
:101820001DF825003044A073A07B40F080012046C5
:10183000FFF724FF7FBD10B50446607A20F0040056
:101840006072607A40F008012046FFF717FF10BD74
:1018500070B504460D4605F07F00207538212046FE
:10186000FFF70CFF39212046FFF708FF0220FFF7A2
:1018700025F9207D00F00F0040F070012046FFF7B1
:10188000FDFE0220FFF71AF9207DC0F3011040F0A1
:101890005C012046FFF7F2FE38212046FFF7EEFEFE
:1018A0000220FFF70BF970BD10B50446607A20F0F6
:1018B00001006072607A40F008012046FFF7DEFE0A
:1018C00010BD10B50446607A40F001006072607A85
:1018D00040F008012046FFF7D1FE10BD10B50446C8
:1018E000607A20F002006072607A40F008012046C1
:1018F000FFF7C4FE10BD10B50446607A40F0020048
:101900006072607A40F008012046FFF7B7FE10BD14
:1019100010B5044618212046FFF7B0FE10BD10B5E3
:1019200004461C212046FFF7A9FE10BD10B5044651
:10193000A07A40F00200A072A07A40F00401204694
:10194000FFF79CFE10BD10B50446A07A20F00200FF
:10195000A072A07A40F004012046FFF78FFE10BD70
:1019600010B50446A07A40F00100A072A07A40F0C1
:1019700004012046FFF782FE10BD10B50446A07A90
:1019800020F00100A072A07A40F004012046FFF789
:1019900075FE10BD2DE9F04106460C46174604F0D1
:1019A0000704402040EAC4013046FFF767FE0025E7
:1019B00005E0795D30680268304690476D1C082D5F
:1019C000F7DBBDE8F0810000AC5200081E4800685B
:1019D000401C1D49086070471B4A116800BF1A4A25
:1019E0001268521A8242FAD370477FB5684601F0F6
:1019F000ACF84FF47A720198B0FBF2F1B1F1807F4C
:101A000000D31DE021F07F40401E4FF0E0225061E6
:101A100050170F22002807DA13071D0E0B4B00F09A
:101A20000F04241F1D5503E013071C0E084B1C5404
:101A300000BF00204FF0E02290610720106100BF3E
:101A40007FBD0148006870479000002018ED00E05D
:101A500000E400E00021A0F80011A0F80211A0F8B5
:101A6000041170470146B1F8040170470146B1F90D
:101A70000001B1F90221904205D1B1F8040100281A
:101A800001DD012070470020FCE710B503460C463D
:101A90001846FFF7EBFF10B14FF6FF7010BDB3F91A
:101AA000001188B2401C00B2A3F8000123F81140D5
:101AB000B3F80401401CA3F80401B3F90001C117F5
:101AC00000EB5161C911A0EBC111A3F80011204630
:101AD000E4E700B502461046FFF7C4FF10B94FF621
:101AE000FF7000BDB2F9021188B2401C00B2A2F82A
:101AF000020132F81130B2F80401401EA2F80401CC
:101B0000B2F90201C11700EB5161C911A0EBC1117B
:101B1000A2F802111846E4E700B502461046FFF7A6
:101B2000A1FF10B94FF6FF7000BDB2F9020132F803
:101B30001000F9E72DE9F04F89B004460D4616462E
:101B40001F46DDF848804FF007094FF0250A256051
:101B5000FC49206888420AD10121102001F0CEF80A
:101B600000BF00BFF8486060F848A0604FE0F84947
:101B7000206888420CD10121480401F0AEF84FF0F2
:101B800007094FF0260AF3486060F348A0603EE082
:101B9000F249206888420CD10121880401F09DF8A7
:101BA0004FF007094FF0270AED486060ED48A0604C
:101BB0002DE0ED49206888420CD10121C80401F0D4
:101BC0008CF84FF008094FF0340AE8486060E848A4
:101BD000A0601CE0E749206888420CD1012108057B
:101BE00001F07BF84FF008094FF0350AE2486060D9
:101BF000E248A0600BE00121202001F07FF84FF0C7
:101C000008094FF0470ADE486060DE48A0603046B1
:101C1000FEF79FFF83463046FEF794FF03900020B7
:101C2000009002231A46594601900398FFF708F8DE
:101C30003846FEF78EFF83463846FEF783FF039053
:101C40000020009002231A46594601900398FEF79F
:101C5000F7FF3046FEF784FF83463046FEF772FFFB
:101C60004A465946039000F048FC3846FEF778FF94
:101C700083463846FEF766FF4A465946039000F011
:101C80003CFCCDF814800020ADF81800ADF81A0027
:101C9000ADF81C00ADF820000C20ADF81E0005A921
:101CA000206801F0C5FF012240F22551206802F0B2
:101CB000FDF8002240F22771206802F0F7F80AF0E0
:101CC000FF008DF8100000208DF811008DF8120033
:101CD00001208DF8130004A800F0B1FA6068FFF746
:101CE000B9FEA068FFF7B6FE0121206802F028F8CF
:101CF00009B0BDE8F08F70B504460D4600BF8021E5
:101D0000206802F0F8F80028F9D02946206802F08F
:101D100042F870BD70B504460E46032505E040F25A
:101D20009B20FEF7DFFE681E85B2A068FFF79EFECF
:101D300008B1002DF3DC002240F22771206802F088
:101D4000B5F83146A068FFF7A0FE012240F22771E6
:101D5000206802F0ABF8012070BD70B506460C4655
:101D6000002505E014F8011B3046FFF7D3FF6D1C7A
:101D700020780028F6D1284670BD10B504462046CC
:101D800002F00DF810BD30B504466068FFF7A1FE03
:101D90000546A5F57F40FF3800D130BD2846FCE759
:101DA00070B50446FEF787FE00F1640504E0FEF717
:101DB00082FEA84200D904E0A068FFF753FE002885
:101DC000F5DC00BF6068FFF745FE70BD00B5034657
:101DD0005868FFF7A1FE00BD00B502465068FFF746
:101DE00041FE00BD10B540F22551564802F099F869
:101DF00038B1544801F0D3FF044621465248FFF75A
:101E000044FE40F227714F4802F08BF8B8B14F48BA
:101E1000B0F8040158B9002240F22771494802F095
:101E200045F840F22771474802F0B2F807E047480A
:101E3000FFF74FFE04462146424801F0ACFF10BDBB
:101E400010B540F22551424802F06BF838B14048D5
:101E500001F0A5FF044621463E48FFF716FE40F27A
:101E600027713B4802F05DF8B8B13848B0F80A0273
:101E700058B9002240F22771354802F017F840F2B5
:101E80002771334802F084F807E03348FFF721FE5A
:101E9000044621462E4801F07EFF10BD10B540F2E9
:101EA00025512E4802F03DF838B12C4801F077FF5B
:101EB000044621462A48FFF7E8FD40F227712748EB
:101EC00002F02FF8B8B12148B0F8100358B9002239
:101ED00040F22771214801F0E9FF40F227711F48C5
:101EE00002F056F807E01F48FFF7F3FD04462146CD
:101EF0001A4801F050FF10BD10B540F225511A48A4
:101F000002F00FF838B1184801F049FF04462146A5
:101F10001748FFF7BAFD40F22771134802F001F8A5
:101F200078B10A48B0F8160470BB002240F227715D
:101F30000D4801F0BBFF40F227710B4802F028F872
:101F40002BE02AE00010014020040020440A002079
:101F500000440040260500204A0B002000480040B5
:101F60002C060020500C0020004C004032070020BE
:101F7000560D002000500040380800205C0E002064
:101F80003E090020620F0020FFE70448FFF7A1FD93
:101F900004462146024801F0FEFE10BD560D002009
:101FA000004C0040F8B504460D4616461F46009703
:101FB00033462A4604F110002169FFF7BBFDF8BD46
:101FC00070B504460D46294604F11000FFF7A2FE45
:101FD00070BD00007FB5044615461E46012301AAC8
:101FE00068212068FEF7EEFF324629462068FFF799
:101FF0008EF87FBD2DE9FC4105460E4617461C466E
:102000008DF80060224639460DF1010002F026F8F5
:10201000631C6A4668212868FEF7B1FFBDE8FC81B1
:1020200010B504460323221D00212046FFF7D2FFEE
:10203000794960680840606010BD10B5044603230C
:1020400004F1080204212046FFF7C4FF7349A06889
:102050000840A06010BD70B505460C46032322461B
:1020600000212846FFF7C6FF70BD70B505460C4637
:102070000323224604212846FFF7BCFF70BDF7B5B5
:1020800006460C462546E01704EB90608011A4EB51
:102090008010C1B2012302AA3046FFF7ABFFFEBD9C
:1020A000F8B506460C462546E01704EB9060801113
:1020B000A4EB8010C1B201236A463046FFF78AFFC5
:1020C0009DF80000F8BD38B50446002000900123BB
:1020D0006A4600212046FFF78DFF38BD38B504461B
:1020E00001236A4600212046FFF774FF9DF8000097
:1020F00040F08000009001236A4600212046FFF74F
:1021000079FF38BD2DE9F04F8FB006460D46914658
:10211000022D04DC701EC6B205F10C00C5B26420AD
:1021200096FBF0F42046E11704EB9171C4F1020232
:1021300002EBA10A504602F0F0FBCDE90A0130465D
:1021400002F0EBFB07460022354B02F04DFCCDE9D7
:10215000020102F085FB0746681C02F0DEFB314AF3
:10216000314BCDE9000102F03FFCCDE9020102F064
:1021700077FB384400EB090B584602F0CEFB4FF0DA
:1021800040422A4BCDE9040102F05EF90022284BBF
:10219000CDE9060102F058F9CDE90801DDE90A238D
:1021A00002F052F9CDE90C0102F05AFB0FB0BDE884
:1021B000F08F2DE9F04104462068C0F307452088E0
:1021C000C0F30726277805F00F0029090A2212FB21
:1021D0000100C5B206F00F00310912FB0100C6B2C2
:1021E00007F00F00390912FB0100C7B23A46314629
:1021F0002846FFF787FFBDE8F08138B50446A068A0
:1022000000906846FFF7D5FF401C072190FBF1F2D4
:1022100001FB1200C0B238BD7F7F3F003F3FFF008F
:1022200000D4764061545227A0993E400BB44241FD
:102230000000E03F33490143334A1160704770B5F5
:10224000002100230F22C47824B32F4C246804F407
:10225000E064C4F5E064C4F30721C1F10404E3B20F
:102260000A4144789C40E1B28478144021430C0731
:10227000210E264C05786155047804F01F050124D1
:10228000AC4005786D114FF0E02606EB8505C5F8EA
:10229000004109E0047804F01F040125A5401C4C0E
:1022A0000678761144F8265070BD1A4A0A40024357
:1022B000154B1B1F1A60704739B1134A121D126863
:1022C0000243114B1B1D1A6006E00F4A121D1268D3
:1022D00082430D4B1B1D1A607047042808D14FF034
:1022E000E021096941F004014FF0E022116107E0AB
:1022F0004FF0E021096921F004014FF0E022116163
:10230000704700000000FA050CED00E000E400E07A
:1023100080E100E080FFFF1F10B50446884884423A
:1023200008D10121084600F0FAFC0021012000F04C
:10233000F6FC5EE08348844208D10121022000F0CF
:10234000EEFC0021022000F0EAFC52E07E488442CC
:1023500008D10121042000F0E2FC0021042000F05B
:10236000DEFC46E07948844208D10121082000F0D3
:10237000D6FC0021082000F0D2FC3AE074488442E8
:1023800008D10121102000F0CAFC0021102000F02B
:10239000C6FC2EE06F48844208D10121202000F0C5
:1023A000BEFC0021202000F0BAFC22E06A488442F2
:1023B00008D10121402000F0B2FC0021402000F0B3
:1023C000AEFC16E06548844208D10121802000F06F
:1023D000A6FC0021802000F0A2FC0AE060488442B4
:1023E00007D10121801500F09AFC0021A01500F012
:1023F00096FC10BDF0B50A4600210023002400BF62
:102400003DE0012505FA01F3156805EA03049C4245
:1024100034D105684F000326BE40B54305601579E9
:102420004E00B5400668354305601579012D02D090
:102430001579022D16D185684F000326BE40B5439D
:10244000856055794E00B54086683543856045689E
:1024500001268E40B5434560456896798E40B6B2F8
:1024600035434560C5684F000326BE40B543C5608F
:10247000D5794E00B540C6683543C560491C102962
:10248000BFD3F0BD4FF6FF710160002101714171B2
:102490008171C17170474FF480320A43C261C161DA
:1024A000C261C269C26970470246002013690B42CB
:1024B00001D0012000E0002070470146086980B289
:1024C00070470246002053690B4201D0012000E012
:1024D000002070470146486980B270470183704709
:1024E000418370470AB1018300E041837047416135
:1024F000704742694A4042617047F0B500230024AA
:102500004D07ED0E02FA05F3CE1000F1200555F847
:1025100026504E07F70E0F26BE40B543CF1000F1F0
:10252000200646F82750CE1000F1200555F8265019
:1025300045EA0304CE1000F1200545F82640F0BD21
:10254000000002400004024000080240000C02406B
:10255000001002400014024000180240001C02401B
:102560000020024010B50446F748844209D10121F9
:10257000480500F01AFC00214FF4001000F015FC93
:1025800018E0F248844209D10121880500F00DFCD1
:1025900000214FF4800000F008FC0BE0EC4884427E
:1025A00008D10121C80500F000FC00214FF4000013
:1025B00000F0FBFB10BD2DE9FF4704460D46002649
:1025C000B1460427DFF88C83A6884FF6C07006401A
:1025D000684600F0BAFADDF80880DF48B8FBF0F092
:1025E0001FFA80F946EA0906A68020884FF6FE7198
:1025F000084020800026D949286888420CD82868DD
:102600004000B8FBF0F087B2042F00DA04273E4305
:1026100009F10100208427E0E888A0F53F41FF3957
:1026200006D1286800EB4000B8FBF0F087B209E063
:10263000286800EBC00101EB0010B8FBF0F087B296
:1026400047F480473805000D01D147F0010747F4F2
:10265000004006434FF4967009FB00F04FF47A7186
:1026600090FBF1F0401C2084A683208840F00100FC
:10267000208026884FF6F5300640A88869890843EF
:1026800006432680A889298908432081BDE8FF8761
:1026900041F288310160002181804BF6FF71C180D9
:1026A0000021018141814FF480418181704721B136
:1026B000028842F00102028004E002884FF6FE73B5
:1026C0001A400280704721B1028842F48072028071
:1026D00004E002884FF6FF631A400280704721B180
:1026E000028842F40072028004E002884FF6FF5331
:1026F0001A400280704712B141F0010101E001F07F
:10270000FE010182704721B1028842F4806202809A
:1027100004E002884FF6FF331A40028070470A46F1
:10272000002181894FF60173194002F0FE0319431D
:102730008181704721B1828942F00102828104E0E7
:1027400082894FF6FE731A408281704721B1028858
:1027500042F04002028004E002884FF6BF731A4044
:102760000280704721B1028842F40042028003E0F7
:102770000288C2F30E020280704721B9028842F03B
:102780008002028004E002884FF67F731A400280C4
:102790007047B1F5804F05D0828B4BF6FF731A401E
:1027A000828303E0828B42F4804282837047B1F5DA
:1027B000006F04D1028842F40062028004E00288C3
:1027C0004FF2FF731A4002807047B1F5005F04D1E9
:1027D000028842F40052028004E002884DF6FF7342
:1027E0001A400280704721B1028842F01002028034
:1027F00004E002884FF6EF731A40028070470182AE
:1028000070470146088AC0B2704721B1028842F47D
:102810008052028004E002884EF6FF731A40028064
:102820007047B1F5006F04D1028842F40062028063
:1028300004E002884FF2FF731A400280704721B112
:10284000028842F02002028004E002884FF6DF7323
:102850001A40028070470146088B0012704721B170
:10286000828842F40062828004E082884FF2FF7323
:102870001A408280704721B1828842F4805282805F
:1028800004E082884EF6FF731A4082807047024649
:10289000002313460B44188870471AB183880B43F2
:1028A000838002E083888B438380704770B5024643
:1028B0000024002500230020958A138B1B0445EA81
:1028C000030626F07F4404EA01068E4201D101206E
:1028D00000E0002070BD10B501460020002300225A
:1028E0008B8A0A8B120443EA020424F07F4010BD55
:1028F00030B503460020002400221A460C0F21F0B8
:102900007F410CB1143201E0090C183215680D42F8
:1029100001D0012000E0002030BD002221F07F42E4
:10292000D3438382704730B5024600200023948849
:1029300001F0E06504EA154321F07F41948A0C42DE
:102940000ED06BB101200CE0005400400058004054
:10295000005C004000127A0040420F00A086010097
:10296000002030BD002221F07F42D3438382704794
:10297000F848006840F00100F64908600020F54979
:1029800008310860F3480068F3490840F1490860DD
:10299000F248091D0860081F006820F48020091F04
:1029A00008600020EB490C31086070470021E94ABB
:1029B000921C117011460870704710B50146002234
:1029C000002300204A11012A02D1E24C236808E0CA
:1029D000022A03D1DF4C7034236802E0DD4C7434EA
:1029E000236801F01F02012494401C4201D0012001
:1029F00000E0002010BD70B500240025002600BFB7
:102A00003120FFF7DAFF0646641CB4F5A06F01D051
:102A1000002EF5D03120FFF7D0FF08B1012500E0EE
:102A20000025284670BD01460020CA4A106820F0E3
:102A3000F80040EAC10010607047C949086070475B
:102A40000021C44A703211701170012802D004288C
:102A50000AD104E00121BF4A7032117005E005215E
:102A6000BC4A7032117000E000BF00BF7047BD4922
:102A70000860704770B5049C41EA82150126C6EBD8
:102A8000530645EA0645054345EA0465B14E361D41
:102A9000356070BDB24908667047820142EA017232
:102AA000AC4B84331A607047AD4988667047AC49B7
:102AB000C864704702460020A64B0833186820F00F
:102AC000EC6042EA01031843A24B083318607047D8
:102AD000024600209F4B0833186820F0784042EAF5
:102AE000010318439B4B08331860704701460020D0
:102AF000984A0832106820F00300084310607047BD
:102B000094480830006800F00C007047014600202F
:102B1000904A0832106820F0F000084310607047B7
:102B2000014600208B4A0832106820F4E050084328
:102B30001060704701460020864A0832106820F471
:102B4000604040EAC10010607047F0B500210022EB
:102B500000240225002602237E4F08373F6807F035
:102B60000C0121B1042905D0082937D105E07E4F99
:102B7000076036E07D4F076033E0764F3F1D3F68CA
:102B8000C7F38056734F3F1D3F6807F03F036EB198
:102B9000764FB7FBF3F7DFF8BCC10CF1040CDCF89F
:102BA00000C0CCF3881C07FB0CF40CE06E4FB7FBA5
:102BB000F3F7DFF8A0C10CF1040CDCF800C0CCF393
:102BC000881C07FB0CF4634F3F1D3F68C7F30147A8
:102BD0007F1C7D00B4FBF5F7076002E0624F0760E1
:102BE00000BF00BF5B4F08373F6807F0F0010909DD
:102BF0005F4F7A5C0768D7404760564F08373F6899
:102C000007F4E051890A5A4F7A5C4768D7408760D9
:102C1000504F08373F6807F46041490B544F7A5CC6
:102C20004768D740C760F0BD002100F44072B2F59C
:102C3000407F0AD1474A0832116821F4F8114D4A01
:102C400002401143434A08321160424A703212680E
:102C5000C0F30B031A433F4B70331A60704741496E
:102C60004439086070473F4940390860704742491D
:102C70000860704739B1374A303212680243354B29
:102C800030331A6006E0334A303212688243314BE7
:102C900030331A60704739B12E4A34321268024319
:102CA0002C4B34331A6006E02A4A343212688243CD
:102CB000284B34331A60704739B1264A38321268CB
:102CC0000243244B38331A6006E0224A3832126835
:102CD0008243204B38331A60704739B11D4A403265
:102CE000126802431B4B40331A6006E0194A403217
:102CF00012688243174B40331A60704739B1154A46
:102D0000443212680243134B44331A6006E0114AFE
:102D10004432126882430F4B44331A60704739B112
:102D20000C4A1032126802430A4B10331A6006E054
:102D3000084A103212688243064B10331A607047FB
:102D4000E1B1044A143212680243024B14331A6090
:102D500019E0000000380240FFFFF6FE10300024AA
:102D600000004742800E47420024F40000127A001F
:102D700094000020FFFCFF0F5C0147425B4A126891
:102D800082435A4B1A60704739B1584A121D126873
:102D90000243564B1B1D1A6006E0544A121D12686E
:102DA0008243524B1B1D1A60704739B14F4A0C3297
:102DB000126802434D4B0C331A6006E04B4A0C324A
:102DC00012688243494B0C331A60704739B1474A45
:102DD000103212680243454B10331A6006E0434A32
:102DE000103212688243414B10331A60704739B178
:102DF0003E4A3C32126802433C4B3C331A6006E0C8
:102E00003A4A3C3212688243384B3C331A6070476E
:102E100039B1364A403212680243344B40331A60AB
:102E200006E0324A403212688243304B40331A6027
:102E3000704739B12D4A4432126802432B4B443358
:102E40001A6006E0294A443212688243274B443311
:102E50001A60704739B1254A4C3212680243234B3D
:102E60004C331A6006E0214A4C32126882431F4BF1
:102E70004C331A60704739B11C4A50321268024311
:102E80001A4B50331A6006E0184A503212688243D7
:102E9000164B50331A60704739B1144AD21F12785A
:102EA0000243124BDB1F1A7006E0104AD21F127841
:102EB00082430E4BDB1F1A7070470C48603000686D
:102EC00040F0807009496031086070470146002079
:102ED000064A083A12680A4201D0012000E00020A8
:102EE00070470249891F087070470000143802407B
:102EF00010B50446FE48844208D101210846FFF778
:102F000065FF00210120FFF761FF9DE0B4F1804FD4
:102F100008D101210846FFF748FF00210120FFF7F3
:102F200044FF91E0F348844208D101210220FFF7D9
:102F30003CFF00210220FFF738FF85E0EE48844285
:102F400008D101210420FFF730FF00210420FFF702
:102F50002CFF79E0E948844208D101210820FFF7DD
:102F600024FF00210820FFF720FF6DE0E4488442A1
:102F700008D101211020FFF718FF00211020FFF7D2
:102F800014FF61E0DF48844208D101212020FFF7CF
:102F90000CFF00212020FFF708FF55E0DA488442AB
:102FA00008D101210220FFF711FF00210220FFF7C5
:102FB0000DFF49E0D548844209D101210804FFF7FB
:102FC00005FF00214FF48030FFF700FF3CE0D048C0
:102FD000844209D101214804FFF7F8FE00214FF493
:102FE0000030FFF7F3FE2FE0CA48844209D10121E7
:102FF0008804FFF7EBFE00214FF48020FFF7E6FE88
:1030000022E0C548844208D101214020FFF7CDFECF
:1030100000214020FFF7C9FE16E0C048844208D1D5
:1030200001218020FFF7C1FE00218020FFF7BDFEB7
:103030000AE0BB48844207D101218015FFF7B5FEA5
:103040000021A015FFF7B1FE10BD00220288A84B99
:1030500098420ED0AC4B98420BD0B0F1804F08D0C4
:10306000A44B984205D0A44B984202D0A34B98425F
:1030700004D14FF68F731A404B881A43A04B9842E5
:1030800007D0A04B984204D04FF6FF431A400B895B
:103090001A4302804B68C3620B880385944B9842A5
:1030A00002D0994B984201D18B7A03860123838207
:1030B00070474FF0FF314160002101800181418064
:1030C000817270470185828270470A46002101881B
:1030D0004FF68F731940114301807047416270476A
:1030E000C16270470146486A70470146088D7047C3
:1030F00021B1028842F00202028004E002884FF609
:10310000FD731A400280704721B1028842F0040228
:10311000028004E002884FF6FB731A400280704779
:1031200021B1028842F08002028004E002884FF65A
:103130007F731A400280704702884FF6F7731A4077
:10314000028002880A430280704702884FF6FF43DC
:103150001A40028002880A430280704721B1028827
:1031600042F00102028004E002884FF6FE731A402A
:103170000280704770B5002400220023058C4FF6B2
:10318000FE7635400584028C8388048B4FF68F755C
:103190002C40B51E2C400D882C43751E2A408D896D
:1031A0002A434D882A43524DA84202D0564DA84288
:1031B00013D14FF6F7752A40CD892A434FF6FB7598
:1031C0002A408D882A434FF6FF652B404FF6FF5566
:1031D0002B400D8A2B434D8A2B43838004838D68BB
:1031E0004563028470BD70B5002400220023058C65
:1031F0004FF6EF7635400584028C8388048B48F6C1
:10320000FF752C404FF6FF452C400D884FF6FF769A
:1032100006EA05252C434FF6DF752A408D8906EA1C
:1032200005152A434D8806EA05152A43304DA84264
:1032300002D0354DA8421DD14FF67F752A40CD8969
:103240004FF6FF7606EA05152A434FF6BF752A406A
:103250008D8806EA05152A434FF6FF352B404FF2BD
:10326000FF752B400D8A06EA85052B434D8A06EA39
:1032700085052B43838004838D688563028470BD3C
:1032800070B5002400220023058C4FF6FF66354000
:103290000584028C8388848B4FF68F752C404FF603
:1032A000FC752C400D882C434FF6FF552A408D8924
:1032B0004FF6FF7606EA05252A434D8806EA0525DE
:1032C0002A430B4DA84202D00F4DA84238D14FF2ED
:1032D000FF752A40CD894FF6FF7606EA05252A4379
:1032E0004FF6FF352A408D8806EA05252A4319E066
:1032F000000001400004004000080040000C0040B5
:103300000010004000140040000401400040014053
:10331000004401400048014000180040001C0040EB
:10332000002000404EF6FF752B404DF6FF752B40F8
:103330000D8A06EA05152B434D8A06EA05152B432F
:10334000838084838D68C563028470BD70B500225C
:1033500000230024058C4EF6FF7635400584038C4F
:103360008488828B48F6FF752A404FF6FF452A4035
:103370000D884FF6FF7606EA05252A434DF6FF75C0
:103380002B408D8906EA05352B434D8806EA053525
:103390002B43FE4DA84202D0FD4DA84208D14BF66A
:1033A000FF752C400D8A4FF6FF7606EA85152C43F3
:1033B000848082838D680564038470BD0021018050
:1033C0004180818081608181C18101824182704719
:1033D00070B50346002000241846183001258D40A2
:1033E000ACB21D8CA5431D8409B108290AD100EB9C
:1033F000610005684FF68F76354005600568154316
:1034000005600FE00D1FC5F34E052844056848F61A
:10341000FF763540056005684FF6FF7606EA02261E
:103420003543056070BD4163704781637047C16378
:103430007047016470470A460021018B4FF68F7375
:1034400019401143018370470A460021018B48F659
:10345000FF7319404FF6FF7303EA022319430183F8
:1034600070470A460021818B4FF68F731940114334
:10347000818370470A460021818B48F6FF7319400B
:103480004FF6FF7303EA02231943818370470A460C
:103490000021018B4FF6F7731940114301837047E8
:1034A0000A460021018B4FF2FF7319404FF6FF735C
:1034B00003EA02231943018370470A460021818BE6
:1034C0004FF6F77319401143818370470A46002174
:1034D000818B4FF2FF7319404FF6FF7303EA02230B
:1034E0001943818370470A460021018B4FF6FB7315
:1034F00019401143018370470A460021018B4FF6A2
:10350000FF3319404FF6FF7303EA02231943018387
:1035100070470A460021818B4FF6FB731940114317
:10352000818370470A460021818B4FF6FF33194093
:103530004FF6FF7303EA02231943818370470A465B
:103540000021018B4FF67F731940114301837047AF
:103550000A460021018BC1F30E014FF6FF7303EA07
:1035600002231943018370470A460021818B4FF6DD
:103570007F7319401143818370470A460021818B74
:10358000C1F30E014FF6FF7303EA0223194381834F
:1035900070470A460021018C4FF6FD731940114314
:1035A000018470470A460021018C4FF6F7731940D9
:1035B0001143018470470A460021018C4FF6DF73E6
:1035C00019404FF6FF7303EA021319430184704751
:1035D0000A460021018C4FF67F7319404FF6FF73A6
:1035E00003EA02131943018470470A460021018C43
:1035F0004FF6FF5319404FF6FF7303EA02231943B6
:10360000018470470A460021018C4FF2FF73194074
:103610004FF6FF7303EA02231943018470470A46F9
:103620000021018C4DF6FF7319404FF6FF7303EA3A
:10363000023319430184704730B5002301248C40C4
:10364000A3B2048C9C430484048C02FA01F5ADB24D
:103650002C43048430BD30B5002304248C40A3B235
:10366000048C9C430484048C02FA01F5ADB22C4313
:10367000048430BD828B4FF2FF331A408283828BE9
:103680004FF6FF7303EA01231A4382837047F0B5B4
:103690000C461546002100220026078C4EF6FF7CC2
:1036A00007EA0C070784818B028C4FF6FF7707EA45
:1036B000043640F6FF4739404FF6FF7707EA052703
:1036C00039434FF6FF7707EA0337394345F6FF776B
:1036D0003A4046F480573A4381830284F0BD828B9E
:1036E0004FF6F3731A408283828B0A4382837047BA
:1036F000F0B50C461546002100220026078C4FF637
:10370000FF6C07EA0C070784818B028C4FF6FF776A
:1037100007EA04264FF60C7739404FF6FF7707EAA1
:1037200003172F4339434FF2FF573A4046F480774F
:103730003A4381830284F0BD028B4FF2FF331A407B
:103740000283028B4FF6FF7303EA01231A430283BD
:103750007047F0B50C461546002100220026078C64
:103760004FF6EF7C07EA0C070784018B028C4FF6BB
:10377000FF7707EA041640F6FF4739404FF6FF7718
:1037800007EA033739434FF6FF7703E000000140B3
:103790000004014007EA052739434FF65F773A40B6
:1037A00046F010073A4301830284F0BD028B4FF6C6
:1037B000F3731A400283028B0A4302837047F0B509
:1037C0000C46154600210022068C4FF6FE773E403F
:1037D0000684018B028C4FF60C7631407E1C06EA83
:1037E00003162E4331434FF6F576324044F001067E
:1037F000324301830284F0BD70B505460C46208833
:1038000050B92389A28861882846FFF7D8FFE1884C
:103810002846FFF7CBFF25E0208804280AD123891A
:10382000A28861882846FFF794FFE1882846FFF7C1
:1038300083FF17E0208808280AD12389A28861889D
:103840002846FFF755FFE1882846FFF748FF09E0C3
:103850002389A28861882846FFF719FFE188284656
:10386000FFF708FF70BD00210180418001218180A8
:103870000021C180018170472DE9F04105460C46C9
:1038800000260127608808B9022600E00026A088EB
:10389000012801D1022700E001272088A0B923894F
:1038A000A28861882846FFF78AFFE1882846FFF74B
:1038B0007DFF23893A4631462846FFF74AFFE188D3
:1038C0002846FFF739FF13E02389A288618828463C
:1038D000FFF73FFFE1882846FFF72EFF23893A468E
:1038E00031462846FFF76BFFE1882846FFF75EFF69
:1038F000BDE8F0810146486B70470146886B704710
:103900000146C86B70470146086C70470A884B88AF
:103910001A438B881A43CB881A430B891A434B8965
:103920001A438B891A43A0F8442070470021018074
:1039300041808180C180018141818181704731B1A5
:10394000B0F8442042F40042A0F8442005E0B0F86A
:103950004420C2F30E02A0F84420704721B18288AF
:1039600042F00402828004E082884FF6FB731A4022
:103970008280704721B1828842F00102828004E097
:1039800082884FF6FE731A40828070471AB183898D
:103990000B43838102E083898B438381704781825B
:1039A000704702460020138A0B4201D0012000E03C
:1039B00000207047CA430282704730B5024600209B
:1039C00000230024158A05EA0103958905EA01040C
:1039D00013B10CB1012000E0002030BDCA430282C7
:1039E000704741EA0203A0F8483070471AB1838952
:1039F0000B43838102E083898B438381704721B12C
:103A0000828842F00802828004E082884FF6F773D1
:103A10001A408280704701894FF6F8721140018187
:103A200070470A46002101894FF68F7319401143F0
:103A30000181704730B504460D4629462046FFF700
:103A4000F0FF208940F00700208130BD2DE9F041D2
:103A500004460D4616461F46602D06D13B46012200
:103A600031462046FFF775FE05E03B460122314610
:103A70002046FFF7A4FE29462046FFF7D2FF208903
:103A800040F007002081BDE8F08130B50C460021F0
:103A90000189C9B24FF6FF7505EA03251543254391
:103AA0002943018130BD2DE9F04105460E461746F8
:103AB0009846002443463A4631462846FFF7E5FF3C
:103AC0002C894FF6F870044044F007044FF68F70CD
:103AD000044044F070042C81BDE8F081F0B5044648
:103AE0000D4616461F463B46324629462046FFF7FE
:103AF000CCFF208940F480402081F0BD82884FF6C1
:103B00008F731A40828082880A43828070470289BC
:103B10004FF6F8731A40028102890A430281704706
:103B200002894FF67F731A40028102890A4302819B
:103B30007047F0B50C4615461E46002100220023B2
:103B40000189028B038C4FF6F877394021434FF6F9
:103B5000FC473A4040F201173A434FF6DD773B40CD
:103B60004FF6FF7707EA06172F433B430181028395
:103B70000384F0BD21B1828842F08002828004E09B
:103B800082884FF67F731A4082807047A0F85010E9
:103B90007047000010B50446F748844208D101215F
:103BA0001020FFF713F900211020FFF70FF93EE076
:103BB000F248844209D101214804FFF7F6F80021B8
:103BC0004FF40030FFF7F1F831E0ED48844209D1BD
:103BD00001218804FFF7E9F800214FF48020FFF766
:103BE000E4F824E0E748844209D10121C804FFF742
:103BF000DCF800214FF40020FFF7D7F817E0E24887
:103C0000844209D101210805FFF7CFF800214FF4C4
:103C10008010FFF7CAF80AE0DC48844207D101218E
:103C20002020FFF7D3F800212020FFF7CFF810BDA8
:103C30002DE9FF4705460E460024A14600BFA046D9
:103C4000B08900B100BF2C8A24F44054F0880443AA
:103C50002C82AC8941F20C608443B08831890843DE
:103C6000718908430443AC81AC8A24F44074B08960
:103C70000443AC826846FEF768FFBF48854202D025
:103C8000C248854202D1DDF80C9001E0DDF80890D1
:103C9000A88910F4004F08D009EBC90000EB091007
:103CA00031684900B0FBF1F707E009EBC90000EB10
:103CB000091031688900B0FBF1F76420B7FBF0F020
:103CC00004012009642101FB1078A88910F4004F39
:103CD00008D0322000EBC800B0FBF1F000F0070084
:103CE000044308E0322000EB08106421B0FBF1F03F
:103CF00000F00F0004432C81BDE8FF874FF41651FC
:103D0000016000218180C18001810C21418100215D
:103D10008181704710B502460020108A20F470603F
:103D20000B884C8823438C882343CC882343184337
:103D3000108210BD0021018041808180C1807047C8
:103D400021B1828942F40052828104E082894DF6D9
:103D5000FF731A4082817047028B02F47F42028314
:103D6000028B0A430283704721B1828942F40042E8
:103D7000828103E08289C2F30E028281704721B101
:103D8000828A42F40062828204E0828A4FF2FF73E8
:103D90001A4082827047C1F3080282807047014650
:103DA0008888C0F308007047028A4FF6F0731A4003
:103DB0000282028A0A430282704721B1828942F05C
:103DC0000202828104E082894FF6FD731A408281EB
:103DD000704782894FF2FF731A40828182890A43B9
:103DE00082817047028A4FF6DF731A400282028A8C
:103DF0000A430282704721B1028A42F48042028261
:103E000004E0028A4BF6FF731A40028270478189F0
:103E100041F001018181704721B1828A42F008029C
:103E2000828204E0828A4FF6F7731A4082827047DA
:103E3000028BD2B20283028B42EA012202837047D4
:103E400021B1828A42F02002828204E0828A4FF607
:103E5000DF731A408282704721B1828A42F01002D9
:103E6000828204E0828A4FF6EF731A4082827047A2
:103E7000828A4FF6FB731A408282828A0A438282C8
:103E8000704721B1828A42F00202828204E0828A73
:103E90004FF6FD731A40828270471AB1838A0B4332
:103EA000838202E0838A8B4383827047F0B50346A6
:103EB0000024002600250020A1F510676A3F00D1EC
:103EC00000BF1846C1F3421401F01F06012707FA8C
:103ED00006F5012C01D10C3004E0022C01D1103088
:103EE00000E014301AB107682F43076002E007684A
:103EF000AF430760F0BD02460020B1F5007F00D15E
:103F000000BF13880B4201D0012000E00020704761
:103F100001F40072B2F5007F00D100BFCA430280F5
:103F2000704770B502460024002300250020A1F54B
:103F300010666A3E00D100BFC1F3421501F01F03B5
:103F4000012606FA03F3012D02D19689334006E0DB
:103F5000022D02D1168A334001E0968A33400C12BA
:103F6000012606FA04F41688344013B10CB101207E
:103F700000E0002070BD000000100140004400403F
:103F800000480040004C0040005000400014014038
:103F900010B500220023A1F510646A3C00D100BFD7
:103FA0000A1201249440A3B2DC43048010BD2DE921
:103FB000F04791460F4680460446002614F8015B00
:103FC0002DB100F0D7F80068405DC007F6D12B2D69
:103FD00002D02D2D18D0641E4A463946204600F0E6
:103FE000D5F827B13968A14201D1C7F800804FF058
:103FF000020471050BD54042002803DD00F0C2F831
:104000000460A007BDE8F08746F48066E4E7002876
:10401000F8DA00F0B7F804606FF00040F2E710B58E
:10402000431C02E010F8011B71B18107FAD14FF077
:10403000013202C88C1A8C4314EAC211F9D0C01A9A
:104040000A0603D0C01E10BDC01A10BD0A0401D05C
:10405000801E10BD0902FCD0401E10BD032A40F294
:10406000308010F0030C00F0158011F8013BBCF11A
:10407000020F624498BF11F801CB00F8013B38BF32
:1040800011F8013BA2F1040298BF00F801CB38BF40
:1040900000F8013B11F0030300F02580083AC0F05E
:1040A000088051F8043B083A51F804CBA0E8081006
:1040B000F5E7121D5CBF51F8043B40F8043BAFF339
:1040C0000080D20724BF11F8013B11F801CB48BF93
:1040D00011F8012B24BF00F8013B00F801CB48BFC9
:1040E00000F8012B704710B5203AC0F00B80B1E802
:1040F0001850203AA0E81850B1E81850A0E818501D
:10410000BFF4F5AF5FEA027C24BFB1E81850A0E825
:10411000185044BF18C918C0BDE810405FEA827C3F
:1041200024BF51F8043B40F8043B08BF7047D20756
:1041300028BF31F8023B48BF11F8012B28BF20F8F7
:10414000023B48BF00F8012B70477047704770472B
:1041500070B5064C7C44064D7D4403E02068204445
:104160008047241DAC42F9D170BD0000F41200005C
:10417000F412000010B500F063F8001D10BD00BF80
:104180009D02000000487047681000202DE9F05F94
:10419000824615468B4600270AF10104B94600788D
:1041A000302801D09DB113E014F8010B01277828C5
:1041B00003D0582801D045B10AE00DB1102D07D128
:1041C000002714F8010B102502E0082500E00A255D
:1041D0000026B0460EE005FB080005FB06F10127AE
:1041E0001FFA80F801EB1046B6F5803F00D3B946C0
:1041F00014F8010B294600F027F80028EBDABBF190
:10420000000F05D00FB1641E00E05446CBF800400B
:10421000B9F1000F06D0FFF7B5FF02210160C81EFB
:10422000BDE8F09F48EA0640FAE710B500F020F834
:10423000BDE8104000F016B8004870476810002034
:1042400000487047881000203A2800D2303820F00B
:104250002002412A01D3A2F13700884201D34FF056
:10426000FF307047002801D000F01AB870470000F6
:1042700010B5002102A000F044F8012010BD00009C
:104280005349475056464E3A20507572652076691C
:10429000727475616C20666E2063616C6C6564007D
:1042A00001491820ABBEFEE7260002007546FFF765
:1042B000C3FFAE4605006946534620F00700854619
:1042C00018B020B5FBF7C6FFBDE820404FF0000650
:1042D0004FF000074FF000084FF0000B21F00701EE
:1042E000AC46ACE8C009ACE8C009ACE8C009ACE831
:1042F000C0098D4670470446AFF300802046FBF7A7
:1043000095FF70B505460C460A2000E06D1C00F0D4
:1043100051F835B128780028F8D102E0641C00F08B
:1043200049F814B120780028F8D1BDE870400A207F
:1043300000F040B84FF0013C50F8042B51F8043B1A
:104340009A4221D1A2EB0C03934313EACC1317D169
:1043500050F8042B51F8043B9A4215D1A2EB0C0300
:10436000934313EACC130BD150F8042B51F8043BC0
:104370009A4209D1A2EB0C03934313EACC13DBD08E
:104380004FF00000704700BFD01A01BAB1FA81F1B6
:1043900001F0180122FA01F0CB40C1F12001DBB29B
:1043A000C0B2C01A2CFA01F3D11A914311EAC31119
:1043B000E6D1704708B569468DF800000320ABBE12
:1043C00008BD704710B5044604F11000FDF7E8FC85
:1043D00010BD10B5044604F11000FDF7FDFC00B25D
:1043E00010BD70B505460C460CB9002070BD2046C6
:1043F000FFF715FE064628683246214643682846E0
:104400009847F3E7024901600021416070470000CE
:10441000E45200080020FFF708BF000010B5002993
:104420000AD00878002807D005487844FFF782FFB3
:10443000002801D0002010BD0248784410BD0000C3
:10444000120F00000A0F000010B591EA030F48BFD9
:1044500083F0004300F11084841A71EB030C05D241
:10446000121943EB0C03001B61EB0C01DFF824E194
:104470004FEA1154A4EB135C1EEA430F18BF9EEAE7
:10448000445F73D023EA0E03DCF1200E21EA0451CD
:1044900043F4801332D322FA0CFE10EB0E0023FA01
:1044A0000CFE41EB0E01CCF1200E03FA0EFE10EBD8
:1044B0000E0051F10001B1F5801FCCF1200E32D277
:1044C00001EB045112FA0EF2BDE8104058BF7047DC
:1044D000401C38BF5FEA420218BF7047002814BF73
:1044E00020F0010041F100014FEA410313F5001FE4
:1044F00038BF7047A1F1C04100F06EBB012A43EB09
:104500000302ACF1200CDCF11F0E32BF4FF0000EA5
:1045100023FA0CF310EB030041EB0451B4EB115FF1
:10452000D0D0A1EB045101F5801149085FEA3000B9
:1045300001EB04510ED350F1000038BF12FA0EFE09
:1045400008D1BDE81040C9E7401C38BF5FEA42020D
:10455000CAD1C3E7BDE810404FEA410313F5001F7D
:1045600038BF7047A1F1C04100F036BB9EEA445FFE
:1045700008D011EA5E0FBDE8104004BF01F0004111
:1045800000207047BDE8104070B500F0D7FA00BFBA
:1045900064FBBE3E0000E0FF491058BFC1F140413E
:1045A0005B1058BFC3F140438B42EFF3008070476C
:1045B0002DE9C04130B4DFF8A0C23CEA111418BFA5
:1045C0003CEA131400F0EC8081EA03051CEA1114A4
:1045D00044EAD57418BF1CEA131500F0C780A4EB99
:1045E00005044FF0004545EAC12145EAC32341EAED
:1045F000505143EA525304F17F74994204F5003458
:104600004FEAC0204FEAC22208BF904200F09C80CF
:104610004FEA13650FF24016765D4FEA134506FB2D
:1046200005F7C7F1807706FB07F74FEAD737A7FBF7
:1046300003687642C8F58038A7FB06CE38BFA8F1DC
:10464000010807FB08E64FF0000EA6FB028CE6FB14
:1046500003CEDCF1000CCEF1004E38BFAEF1010EFE
:10466000A6FB0C584FF000074FF00005E6FB0E8745
:10467000A1FB08C6A0FB07CE16EB0E0645F1000510
:10468000E1FB076515F1E04E7EBFA4F580345FEADB
:1046900046066D4116F1800745F100054FEA1727E0
:1046A0004FEA066647EA0567A6F1DE46B6F1805F87
:1046B0004FEA15251FD9384624F0010C05EBC471CB
:1046C000BCF1FE6F01EB0C1102D8F0BCBDE800811B
:1046D00024425CBF01F5801E9EEAC47F02D4F0BC78
:1046E000BDE80081244238D4F0BCA1F1C041BDE84E
:1046F000004100F071BA4FEAD22242EA43524FEA37
:10470000D323A7FB02864FEAD02040EA415007FBA3
:1047100003661EEA0E0F4FEAD12105FB026658BF61
:10472000A6EB0056B6EB00564FEA520E4EEAC37E99
:1047300018EB0E0E56EB530EBDD518EB02085E417A
:104740007F1C55F10005B6E74FF480154FF00007C8
:104750004FF000064FF00008ADE7F0BC4FF000004E
:1047600001F1C04101F00041BDE8008111EA0C1FD8
:104770000CEA131500D00CE013EA0C1F00F02580A2
:104780004FF00000F0BC81EA030101F00041BDE8F8
:104790000081F0BCBDE8004181EA030100F01CBAD1
:1047A000F0BCBDE8004170B500F0C8F9097EFC3EE0
:1047B00000F007B881EA03014FF0000001F000416A
:1047C000704781EA030100F007BAF0BCBDE8004180
:1047D0004FF0000021497047FFFDFBF9F7F5F4F2B7
:1047E000F0EEEDEBE9E8E6E4E3E1E0DEDDDBDAD88C
:1047F000D7D5D4D3D1D0CFCDCCCBCAC8C7C6C5C4EA
:10480000C2C1C0BFBEBDBCBBBAB9B8B7B6B5B4B300
:10481000B2B1B0AFAEADACABAAA9A8A8A7A6A5A4EB
:10482000A3A3A2A1A09F9F9E9D9C9C9B9A999998AF
:104830009797969595949393929191908F8F8E8E52
:104840008D8C8C8B8B8A89898888878786858584DF
:1048500084838382828181800000FF070000F87FCB
:104860004FEA41034FEA5353A3F58063D3F11E038C
:10487000C8BFD3F1210C0CDD4FF0004242EAC12247
:1048800042EA505232FA03FC8CEAE17CACEBE17074
:104890007047102BC4BF0020704703F5787CBCF133
:1048A000FF3F04D06FF0004282EA2100704770B5EC
:1048B00000F044F94992248000207047F2E700009C
:1048C0004FEA1153A3F58063D3F11E03A8BFD3F1C0
:1048D000200C08DB4FF0004242EAC12252EA50525B
:1048E00032FA03F0704709420BD4102BC4BF0020EA
:1048F000704703F5787CBCF1FF3F05D04FF0FF30E7
:1049000070474FF00000704770B500F017F900BF16
:104910004992248000207047F0E710F0004248BF21
:104920004042B0FA80F310FA03F10AD0C3F11D033C
:1049300003F580634FEA415002EB035202EBD121B1
:1049400070474FF000007047B0FA80F310FA03F19F
:104950000AD0C3F11D0303F580634FEA41504FEACB
:10496000035202EBD12170474FF000007047000066
:1049700051EA030C17D41CF5801F58BFBCF5801FEB
:1049800000F10680994218BF704708BF90427047F7
:1049900007D711F5801F58BF13F5801F19D499420E
:1049A0007047894270471CF5801F08D5BCF5801FF1
:1049B000F7D58B4218BF704708BF824270474FF44B
:1049C000001C1CEB410F38BF1CEB430F01D28B4284
:1049D000704770B500F0B2F8922449004FF00051D2
:1049E0004FF08053FFF7D8BDDFF848C170B51CEA1F
:1049F000111E1EBF1CEA13159EEA0C0F95EA0C0F40
:104A000000F06F8081EA030423EA4C134EEAD47E5F
:104A100021EA4C1141F4801143F48013AE44A1FB10
:104A2000024CA0FB0365AEF17F7E361955EB0C05F9
:104A3000A1FB034C4CF10003A0FB021C16EB0C067F
:104A4000654153F10003094218BF46F0010613F413
:104A5000007F0BD14FEA03314FEA0530340341EABE
:104A6000155140EA16506FF003020AE04FEAC321E5
:104A70004FEAC520F40241EA555140EA56506FF022
:104A8000020202EB2E4201EB025585EACE710AD0FA
:104A90005FEA440C18BF24F0004450F1000041F1DB
:104AA000000120EAD47040F2FE7C624500D270BD65
:104AB000A84214BF4FF080444FF04044002E08BF7E
:104AC0000024BEF1806FA8BFA1F1C041BDE87040D5
:104AD00080F282804FF0000001F1C04101F00041FE
:104AE00070479EEA0C0F0CEA131518BF95EA0C0FDD
:104AF00006D04FF0000081EA030E0EF0004170BDB9
:104B000000F01CF88900013E00F007B800F009B879
:104B10004FEA430C5FEA5C5C08D081EA030100F0D5
:104B20005BB84FEA410C5FEA5C5CF6D14FF00000E5
:104B3000014970470000FF070000F87F0EF1020EE8
:104B40002EF0030E5EF8046B364205D4012A43EBC7
:104B5000030515F5001F12D8012841EB010C1CF5C7
:104B6000001F0CD80ED14FEAD17C15F5001F0CEBBD
:104B70004C0C0CF1020C08BF4CEBD37C04E04FF062
:104B8000080C01E04FEAD37C0CEB4C0526FA05F645
:104B900006F00706B6F1040C06D20EEB860CBDE853
:104BA00070404CF0010C6047DFE80CF0090B02028A
:104BB0004FF000414FF00000A1F5002170BD1946F3
:104BC0001046012851EB010418BFD4F5001484BF2E
:104BD000002001F0004170BD0808A0F500114FEA67
:104BE0003101704753EA010C17D41CF5801F58BFE0
:104BF000BCF5801F00F106808B4218BF704708BFCC
:104C00008242704707D713F5801F58BF11F5801FE8
:104C100019D48B4270479B4270471CF5801F08D502
:104C2000BCF5801FF7D5994218BF704708BF904266
:104C300070474FF4001C1CEB430F38BF1CEB410FB7
:104C400001D2994270470FB40CBC03BCFFF7C1BE40
:104C500091EA030F10B581F000413FF5FDAB83F001
:104C6000004300F009B8000010B591EA030F48BFF7
:104C700083F000433FF5F0AB841A71EB030C07D2CD
:104C800012198CF0004C43EB0C03001B61EB0C0180
:104C9000DFF8A4E14FEA1154A4EB135C1EEA430FC2
:104CA00018BF9EEA445F00F0B08023EA6E035242D0
:104CB00021EA0451C3EB6E0338BF5B1EDCF1200E0A
:104CC00025D322FA0CFE10EB0E0043FA0CFE41EB4A
:104CD0000E01CCF1200E03FA0EFE10EB0E0051F186
:104CE0000001CCF1200E29D412FA0EF201EB04518E
:104CF000BDE8104058BF7047401C1CBFB2F1004FC8
:104D0000704700280CBF491C20F00100704712EBCF
:104D1000020E43EB030218BF4FF0010E4EEA4202AF
:104D2000ACF1200CDCF11E0E54D943FA0CFE10EB52
:104D30000E0051F1FF31CCF11E0ED5D50EF1010E52
:104D400012FA0EFE404141EB010101EB445C5FEAC7
:104D50005C5C10D910EBDE7001EB045138BFBEF182
:104D6000004FBDE8104018BF704700280CBF491C19
:104D700020F00100704730D24FEAD42C11F5001119
:104D800024F400641BD0B1FA81F20B3AA41AA41ED9
:104D9000D2F12003914030FA03F31943904001EB24
:104DA000CC71002C01EB0451BDE81040A8BF704746
:104DB00001F1C0414FF0000001F000417047B0FA2E
:104DC00080F310FA03F100D110BDE41A173C480536
:104DD000C90AE4E701EB045110BD491001EB04518D
:104DE000BDE810404FEA300002E04FF0000170478C
:104DF0004A0008BF0042F8D0B2F5001F28BF704734
:104E000001F000414FF0000070479EEA445F07D078
:104E100011EA5E0FBDE8104004BF0021002070477A
:104E2000BDE8104070B5FFF789FE00BF40DFF63ED9
:104E300083F00041104670470000E0FF43004FEA56
:104E4000D30C4FEA3C0C43401FBF40070CF16051AC
:104E500013F0FE4F70471CF0006F03D100200CF0E0
:104E6000004170470CF0004343EA507010B540EA2F
:104E7000CC0000F0E4F800BF000000924FEA00010F
:104E8000FFF7AABE4FF000414FF00000A1F500214E
:104E9000704700004FF47F0C1CEAD0121EBF1CEAC2
:104EA000D11392EA0C0F93EA0C0F00F0858090EA80
:104EB000010F48BF42F4807240F4000C41F400003E
:104EC0002CF07F4120F07F4000B58142A2EB03022D
:104ED0000FF2081CACEB504EC0F100009EF800E051
:104EE0004FEA4E0E00FB0EFC38BF49004FEA2C1C67
:104EF00002F5FA020CFB0EF34FEACE1E4FEA112C1C
:104F00004FEAC1210EEB635E42EB22420EFB0CFC2A
:104F10004FEA1C5300FB03114FEA112C4FEA0131F9
:104F20000EFB0CFC4FEADC4C00FB0C11C14228BF0D
:104F300009184CEB03335DF804EB10EB410143EB34
:104F4000C250B2F57C0F38BF704729D512F0F00F70
:104F50001CBF00F1C04000F0004070470081828318
:104F60008485868788898B8C8D8E8F919293959678
:104F700097999A9C9D9FA0A2A3A5A7A8AAACAEB002
:104F8000B2B3B5B7B9BCBEC0C2C5C7C9CCCED1D407
:104F9000D7D9DCDFE2E6E9ECF0F3F7FAFE00000037
:104FA0004FEA400C0CF1807CBCF17E4F28BF70476B
:104FB000B0F1C04000F089B890EA010F0CEAD113BB
:104FC00048BF42F48072624538BF634507D213F48C
:104FD0007F0F16D080EA010000F00040704710B546
:104FE00000F02DF8097EFC3E00F005B880EA0100D3
:104FF00000F00040704780EA010000F0004000F03F
:1050000064B812F47F0F04BF0248704780EA0100C1
:1050100000F05BB80000C07FB0FA80F310FA03F232
:10502000C3F19D030AD0D90501EB1220530638BF06
:10503000704700F1010008BF20F0010070470EF139
:10504000020E2EF0030E5EF8044B244204D44FEA05
:105050004102B2F17F4F11D84FEA4003B3F17F4FC5
:105060000CD80ED14FEAD07CB2F17F4F0CEB4C0C38
:105070000CF1020C08BF4CEBD17C04E04FF0080CA3
:1050800001E04FEAD17C0CEB4C0324FA03F404F06A
:105090000704B4F1040C06D20EEB840CBDE81040FA
:1050A0004CF0010C6047DFE80CF0070802024FF0FB
:1050B0000040A0F5800010BD0846420018BFD2F1A4
:1050C000807288BF00F0004010BDFF2141EAD0503F
:1050D000C00570475468697320726F79616C2074E1
:1050E00068726F6E65206F66206B696E67732C2027
:1050F00074686973207363657074657227642069CE
:10510000736C652C200A5468697320656172746839
:10511000206F66206D616A657374792C20746869EC
:10512000732073656174206F66204D6172732C204B
:105130000A54686973206F74686572204564656EEF
:105140002C2064656D692D70617261646973652CD2
:10515000200A5468697320666F72747265737320D5
:105160006275696C74206279204E61747572652075
:10517000666F722068657273656C660A4167616963
:105180006E737420696E66656374696F6E20616EFC
:1051900064207468652068616E64206F66207761A2
:1051A000722C200A546869732068617070792062DB
:1051B00072656564206F66206D656E2C2074686969
:1051C00073206C6974746C6520776F726C642C0A40
:1051D000546869732070726563696F7573207374A6
:1051E0006F6E652073657420696E20746865207326
:1051F000696C766572207365612C200A5768696353
:10520000682073657276657320697420696E2074F6
:105210006865206F6666696365206F662061207728
:10522000616C6C2C200A4F722061732061206D6FBD
:10523000617420646566656E7369766520746F209D
:105240006120686F7573652C200A416761696E7310
:10525000742074686520656E7679206F66206C65B1
:1052600073732068617070696572206C616E64731D
:105270002C200A5468697320626C6573736564201E
:10528000706C6F742C207468697320656172746827
:105290002C2074686973207265616C6D2C207468B1
:1052A000697320456E676C616E642C00000000001D
:1052B0004000000014000000540000000000000046
:1052C00000000000C11F000811140008D3430008AB
:1052D0000000000000000000C543000800000000BE
:1052E0000000000015440008111400080000000030
:1052F00000000000154400081114000815440008BF
:10530000154400081544000815440008000000007A
:1053100000000000BB1700081114000850540008DA
:1053200000000020A4000000C4010008F45400089C
:10533000A400002024160000E00100081001000075
:1053400043000000F8FFFFFF004040404040404065
:105350004040414141414140404040404040404048
:1053600040404040404040404005020202020202EC
:10537000020202020202020202202020202020203B
:10538000202020020202020202029090909090904F
:10539000101010101010101010101010101010100D
:1053A0001010101002020202020288888888888881
:1053B000080808080808080808080808080808086D
:1053C0000808080802020202400000000000000075
:1053D00000000000000000000000000000000000CD
:1053E00000000000000000000000000000000000BD
:1053F00000000000000000000000000000000000AD
:10540000000000000000000000000000000000009C
:10541000000000000000000000000000000000008C
:10542000000000000000000000000000000000007C
:10543000000000000000000000000000000000006C
:1054400000000000000000000000000061B3FFFF4A
:10545000007A030A000000000000000001020304BB
:10546000060708090000000000000000000000001E
:10547000010000000200000004000000080000001D
:10548000100000002000000040000000800000002C
:105490000001000000000000000002400004024083
:1054A00000080240000C02400010024000140240BC
:1054B00000180240001C02400020024001000200CF
:1054C00004000800100020004000800000010002DD
:1054D000000400080010002000400080FFFF0000D2
:1054E00000000000000000000102030401020304A8
:0454F000060708099A
:040000050800018965
:00000001FF
