:020000040800F2
:10000000681300202D020008F1050008F305000820
:10001000F5050008F7050008F905000800000000D4
:10002000000000000000000000000000FB050008C8
:10003000FD05000800000000FF050008251300086A
:10004000470200084702000847020008470200086C
:10005000470200084702000847020008470200085C
:10006000470200084702000847020008470200084C
:10007000470200084702000847020008470200083C
:10008000470200084702000847020008470200082C
:10009000470200084702000847020008470200081C
:1000A000470200084702000847020008470200080C
:1000B0003F080008470200084702000847020008FE
:1000C00047020008470200084702000847020008EC
:1000D0004702000873160008D316000833170008FB
:1000E00047020008470200084702000847020008CC
:1000F00047020008470200084702000847020008BC
:1001000047020008470200084702000847020008AB
:10011000931700084702000847020008470200083A
:10012000470200084702000847020008470200088B
:10013000470200084702000847020008470200087B
:10014000470200084702000847020008470200086B
:10015000470200084702000847020008470200085B
:10016000470200084702000847020008470200084B
:10017000470200084702000847020008470200083B
:10018000470200084702000800F002F800F03EF8BD
:100190000AA090E8000C82448344AAF10107DA45E2
:1001A00001D100F033F8AFF2090EBAE80F0013F0F6
:1001B000010F18BFFB1A43F001031847383A00003B
:1001C000583A0000103A24BF78C878C1FAD85207CC
:1001D00024BF30C830C144BF04680C6070470000C1
:1001E0000023002400250026103A28BF78C1FBD840
:1001F000520728BF30C148BF0B6070471FB503F0DE
:10020000CCFC02F0A9FE1FBD10B510BD02F0E0FE4F
:100210001146FFF7F3FF00F029F802F0FEFE03B4E9
:10022000FFF7F2FF03BC02F0CDFE00000948804753
:1002300009480047FEE7FEE7FEE7FEE7FEE7FEE7C8
:10024000FEE7FEE7FEE7FEE704480549054A064BE0
:10025000704700000106000889010008680D0020B1
:1002600068130020680F0020680F00202DED028B1E
:10027000A2B028201B9000F077FA40F20A324FF427
:100280009643511CB44801F0D3FAB4A1B24800F02F
:10029000C0FDB14810301C9001F0D0F91DA801F04C
:1002A0007CFEBCA1AC4800F0B4FD0A22AA481D990E
:1002B00000F079FEBAA1A84800F0ABFD0A22A648DA
:1002C0001E9900F070FEB9A1A34800F0A2FD0A2219
:1002D000A1481F9900F067FEB7A19F4800F099FD63
:1002E0000A229D48209900F05EFE9B4800F05EFEC9
:1002F0001C9801F0A3F940F20C47384600F0BEFA12
:1003000004467E1C304600F0B9FA0443701C00F02D
:10031000B5FA044340F20F4A504600F0AFFA0443E6
:10032000384600F0A5FA0021009101910223012234
:10033000214600F006FBA348009087484FF4027363
:100340005A1CA1491C3000F061FB83491C31A1F10A
:10035000340000F0B7FE8048183800F0DAFE7E481E
:100360002E21183800F05FFF7B4898A1183800F064
:1003700050FDDFF864824446404601F08AFB0546A2
:10038000304600F07BFAC5F30B010143204600F034
:1003900026FB1B9800F033FA00F02EFA4FF47A7423
:1003A000B0FBF4F500F028FAB0FBF4F0A842F9D065
:1003B00000F022FAB0FBF4F5B1464646A3463046BB
:1003C00001F067FB0446484600F058FAC4F30B04FA
:1003D00040EA0401304600F002FB1B9800F00FFADF
:1003E00040F20E48404600F049FA40EA0401304627
:1003F00000F0F5FA1B9800F002FA504600F03EFAC1
:1004000040EA0401304600F0EAFA1B9800F0F7F9E0
:10041000384600F033FA40EA0401304600F0DFFAD3
:100420001B9800F0ECF93C20B5FBF0F100FB1151FA
:100430000F20B1FBF0F088B101280BD0022805D0C5
:1004400003280BD1384600F019FA0443504600F057
:1004500015FA0443404600F011FA0443484600F000
:100460000DFA40EA0401304600F0B9FA4FEA0B04F5
:1004700000F0C2F9B0FBF4F0A842F9D000F0BCF9EA
:10048000B0FBF4F500F0B8F900EE100AF8EE400AFF
:100490009FED528A80EE880A10EE100A03F00CFBE2
:1004A00041EC100B03212C4800F0D2FD2A48012218
:1004B0000021183800F09AFE00F09EF900EE100AB4
:1004C000F8EE400A80EE880A10EE100A03F0F4FA03
:1004D00041EC100B20480321183800F065FD002482
:1004E0001C9801F0C2F800B200287FF768AF0DF148
:1004F00008081C9801F0B9F800B2002809DD5C2C4E
:1005000007D21C9801F090F808F80400641CA4B20B
:10051000EFE7002008F8040031A10F4800F079FC53
:1005200002A90D4800F075FC19A10B4800F071FC00
:1005300045E7094810B5183802F0ACFD29490160BB
:100540000548294C02F0A6FD4FF47A7181602749D5
:100550000461016010BD00009800002048617070C7
:1005600079206172652074686F73652077686F20E9
:100570006B6E6F7720746865792061726520737087
:100580006972697475616C6C7920706F6F723B2051
:100590000A000000535953434C4B203D20000000FB
:1005A0002C2048434C4B203D200000002C20504381
:1005B0004C4B31203D2000002C2050434C4B32202E
:1005C0003D200000A08601000054004057686F6F76
:1005D0006F65656521000000000C024000007A4450
:1005E0003E200000EC3B000800480040BC3B0008F7
:1005F0007047FEE7FEE7FEE7FEE77047704770478B
:10060000504810B5016841F4700101604E4801681E
:1006100041F0010101604C4A00210832116002687A
:100620004A4B1A400260031D494A1A60026822F4CC
:100630008022026044480C30016000F03CF84149DF
:100640004FF000608039086010BD70B53E4C083432
:100650002068404A10F00C013F4804D0551004298E
:1006600003D0082903D002601BE0056019E0364979
:10067000091D0B68C3F380560B6803F03F0316B1E6
:10068000B5FBF3F201E0B2FBF3F20B680968C3F3C8
:1006900088135A43C1F30141491C4900B2FBF1F1EF
:1006A000016021682C4AC1F30311121D515C0268DC
:1006B000CA40026070BD244900200A6842F48032BA
:1006C0000A604FF4A0630A6800F1010012F4003FD1
:1006D00001D19842F7D10868800331D51A484030DB
:1006E000026842F0805202601C48026842F4804274
:1006F00002601548083002680260026842F4004255
:100700000260026842F4A0520260031F144A1A6099
:100710000A6842F080720A600A689201FCD5114AA8
:1007200040F205611160016821F003010160016878
:1007300041F0020101600168C1F381010229FAD18F
:100740007047000088ED00E000380240FFFFF6FE31
:10075000103000240024F40000000020007000404D
:1007600008544007003C024030B589B004A801F0AD
:1007700014FC04983C494008B0FBF1F0ADF80000CF
:10078000002440F2E7300190ADF808400121ADF8B7
:1007900002408DF80A40084601F081FC4FF0804588
:1007A0006946284601F0B4FD0021284601F0F2FD1B
:1007B00001221146284602F034F91C208DF80C0065
:1007C0008DF80D4001218DF80E108DF80F1003A843
:1007D00001F039F80121284601F012FE2348046097
:1007E000446009B030BD10B54FF0804001F0D6FD37
:1007F0001E490968084410BD1C48406870471B49E1
:100800004A6810444A68824202D94A688242FCD24D
:100810004A688242FCD3704710B50446FFF7E3FFF5
:100820000444FFF7E0FFA04204D900BFFFF7DBFF5D
:10083000A042FBD2FFF7D7FFA042FBD310BD10B5FB
:1008400001218C07204602F000F900280BD001217D
:10085000204602F006F90548016801F57A71016049
:100860004168491C416010BD40420F001400002047
:100870005C49C0F3032051F82000704700F00F01DD
:100880000120884080B2704700F00F0070477CB5AF
:1008900004465448C4F3032528380E4650F8250072
:1008A000012101F0DEFB2046FFF7E8FF00908DF804
:1008B000046000208DF806008DF8070002208DF8F6
:1008C00005004848694650F8250001F06FF87CBDE6
:1008D00010B5444BC0F3032241B1FFF7CFFF0146EF
:1008E00053F82200BDE8104001F0D6B8FFF7C6FF6C
:1008F000014653F82200BDE8104001F0CFB803468E
:10090000384810B5C3F3032150F821201846FFF7EB
:10091000B5FF41001068C840C0B20128184609D090
:10092000FFF7ACFF0146104601F0A2F8002800D006
:10093000012010BDFFF7A2FF0146104601F0A2F80A
:10094000F4E72DE9FC470446DDE90A8926481D46FF
:1009500016460F46844202D1012102202EE0234890
:10096000844202D10121042028E02148844202D19E
:100970000121082022E01F48844202D101211020D9
:100980001CE01D48844202D10121202016E01B48B2
:10099000844202D10121402010E01948844202D152
:1009A000012180200AE01748844202D101218015EC
:1009B00004E01548844203D10121084601F051FBAF
:1009C0008DF804608DF806808DF8079000978DF8FB
:1009D00005506946204600F0E9FFBDE8FC8701F0BC
:1009E00064B80000440000200004024000080240F7
:1009F000000C0240001002400014024000180240A7
:100A0000001C024000200240000002402DE9F0419D
:100A100086B00446D74F0C9D2760A2800426D64A94
:100A2000F004E380914201D1400004E0D34A9142B6
:100A300001D14FF40000012101F031FBE088FFF704
:100A40001DFF8046E088FFF713FF01270223009770
:100A50001A4641460197FFF774FFA088FFF70EFF83
:100A60008046A088FFF704FF022300971A464146FC
:100A70000197FFF766FFE088FFF706FF0746E0886B
:100A8000FFF7F6FE3246394601F015F8A088FFF769
:100A9000FBFE0746A088FFF7EBFE3246394601F021
:100AA0000AF8B748281804D0B649401801D0B44D08
:100AB0006D420026ADF80C604BF6FF70ADF80E00ED
:100AC0004FF48060ADF812000001ADF814000295FB
:100AD00002A9206801F02EF80121206801F08EF8AB
:100AE000FF206072A67206B0BDE8F0812DE9F041EA
:100AF0000446FF200F466072052540F29B264FF406
:100B0000003805E0D5B33046FFF786FE6D1EADB266
:100B10004146206801F055F90028F3D160720121A7
:100B2000206801F075F80525DFF85C8205E02DB33B
:100B30003046FFF771FE6D1EADB24146206801F0F0
:100B40002DF90028F3D0012060727806010E0022F2
:100B5000206801F071F805258C4F05E075B130462D
:100B6000FFF75AFE6D1EADB23946206801F016F946
:100B70000028F3D002206072FF20B5E7FFE70020D5
:100B8000B2E72DE9FF5F04460120A0721F46204610
:100B9000FFF7ACFF002834D0DFF8F08100254FF0DC
:100BA000040A40F29B2908F102084FF0050B18E0F7
:100BB0000298415D206801F0ACF884F809A0052690
:100BC00005E00EB34846FFF727FE761EB6B2414653
:100BD000206801F0E3F80028F3D06D1C84F809B018
:100BE000ADB2BD42E4D30620607272B62068018BBC
:100BF000012101F017F862B6FF2060720020A07298
:100C0000FF2004B0BDE8F09F0020FAE72DE9F05F77
:100C100004460220DDF82880A07289461F4615464A
:100C20002046FFF763FF00287ED02946206801F0A8
:100C300070F80420DFF854A16072052540F29B266D
:100C40000AF1020A06E0002D6FD03046FFF7E4FDFE
:100C50006D1EADB25146206801F0A0F80028F2D018
:100C6000062060720121206800F0D2FF0525DFF820
:100C700018A106E0002D7AD03046FFF7CDFD6D1E9D
:100C8000ADB25146206801F089F80028F2D0072063
:100C900060724FEA4960010E0122206800F0CCFF2B
:100CA000DFF8E490052509F1010906E0002D5ED08A
:100CB0003046FFF7B1FD6D1EADB24946206801F028
:100CC0006DF80028F2D00320DFF8BCA06072012587
:100CD0000AF13F0A4FF0080BB14618E084F809B05A
:100CE000052605E00EB34846FFF796FD761EB6B220
:100CF0005146206801F052F80028F3D0206801F036
:100D00000AF807F8010B09206D1C6072ADB2454569
:100D1000E4D30A2060720021206800F095FF0121D1
:100D2000206800F07FFF01E020E020E00B206072EF
:100D30000525564605E0D5B14846FFF76DFD6D1E09
:100D4000ADB23146206801F029F80028F3D02068C0
:100D500000F0E1FF38700C2060720121206800F083
:100D600073FFFF2060720020A072FF204AE700207E
:100D700048E700000054004000580040005C00407C
:100D80006079FEFF206CFBFF01000300820007007A
:100D900010B58AB0002408AB8DF82040022A00D29A
:100DA0000A220C46B1FBF2F102FB1144E4B20A2C18
:100DB00001D2303400E0373403F8014D0029F0D17E
:100DC000194602F056F90AB010BD026812681047C1
:100DD00070B50C4605461AB10A2A08D0D2B214E002
:100DE0002868C9B202682846BDE870401047002C48
:100DF0000ADA2D21FFF7E9FF064661420A2228465A
:100E0000FFF7C6FF304470BD0A22BDE87040BFE75F
:100E1000DEE702F02EB90AB1D2B2B9E70268C9B270
:100E200012681047F0B506462DED048BB0EE408AEF
:100E3000F0EE608A0C4683B018EE900A18EE101A95
:100E400000278DED008B01B101210843854920F079
:100E50000040081AC00F01D083A11BE018EE900AD1
:100E60008249B1EB400F02D118EE100AD0B19FEDCC
:100E7000800B51EC180B53EC102B02F0F1FC08D353
:100E80009FED7D0B51EC180B53EC102B02F0AEFBD9
:100E90000AD27BA103B03046BDEC048BBDE8F04024
:100EA00002F0E7B877A1F5E79FED770B51EC180B4F
:100EB00053EC102B02F09AFB0AD22D213046FFF79B
:100EC00084FF074651EC180B02F0EFF841EC180BC9
:100ED0009FED6F0B00259FED709B09E053EC192BE4
:100EE00051EC100B02F0A2F941EC100B6D1CEDB2AD
:100EF000A542F3D353EC102B51EC180B02F0E2F89F
:100F000041EC180B02F01AFB054602F05BFB53ECB8
:100F1000182B02F0DBFC41EC180B0A222946304664
:100F2000FFF779FFC51924B35DA13046FFF771FFC4
:100F3000054419E053EC192B51EC180B02F092FB0D
:100F400041EC180B02F0CAFA074601460A22304665
:100F5000FFF75EFF0544384602F01DFB53EC182BEB
:100F600002F0B4FC41EC180B2000A4F10104E4B23F
:100F7000E0D103B02846BDEC048BF0BD2DE9F04173
:100F800014460E460746002507E000BF386816F8ED
:100F9000011B0268384690470544641EF6D2284675
:100FA000BDE8F08137E736E7C9B23BE770B50546E3
:100FB0000D21FFF70AFF04460A212846FFF705FF27
:100FC000204470BD70B50546FFF723FF0446284650
:100FD000FFF7ECFF204470BD70B50546FFF7F5FE46
:100FE00004462846FFF7E2FF204470BD70B5054671
:100FF000FFF7D8FF04462846FFF7D8FF204470BD0E
:1010000070B50546FFF704FF04462846FFF7CEFFFC
:10101000204470BD70B50546FFF7C5FF044628465D
:10102000FFF7C4FF204470BD70B50546FFF7D0FE42
:1010300004462846FFF7BAFF204470BD70B5054648
:10104000FFF7E9FE04462846FFF7B0FF204470BDD5
:1010500070B50546FFF7A8FF04462846FFF7A6FF30
:10106000204470BD0000F07F6E616E000000E0FF64
:10107000000000E0FFFFEF41000000E0FFFFEFC1D4
:101080006F766600696E66000000000000000000D8
:10109000000000000000E03F0000000000002440CD
:1010A0002E00000008B500228DF800208DF80110F8
:1010B000417D006902236A46FFF763FD3220FFF796
:1010C000ABFB08BD0222027310224273002282731E
:1010D0003E2242752A220275FF22C28201617047B8
:1010E00010B50221FFF7DEFFBDE81040C820FFF772
:1010F00086BB10B50121FFF7D5FFBDE81040C82021
:10110000FFF77DBB417A41F00401417241F00801D3
:10111000C8E710B504463821FFF7C4FF392120463F
:10112000FFF7C0FF0220FFF76AFB14212046FFF7FC
:10113000B9FF207D00F00F0040F070012046FFF75E
:10114000B1FF0220FFF75BFB207DC0F3011040F0F0
:101150005C012046FFF7A6FF6C212046FFF7A2FFA7
:101160004FF49670FFF74BFB38212046FFF79AFFAC
:101170000C212046FFF796FF0220FFF740FB0121DC
:101180002046FFF78FFF0220FFF739FB02212046A0
:10119000FFF788FF0220FFF732FB207A40F02001A2
:1011A0002046FFF77FFF042060722046FFF7AAFF6A
:1011B0002046FFF79EFF2046FFF792FF0220A07215
:1011C0002046BDE8104006216CE708B540228DF8A6
:1011D00000208DF80110417D006902236A46FFF767
:1011E000D0FC3220FFF718FB012008BD7FB54C4E24
:1011F00078CE8DE87800037B934203D8B2FBF3F4FA
:1012000003FB14221DF822201144C9B2817341F05E
:101210008001FFF747FF7FBD417A21F00401417251
:1012200041F008013EE710B5044601F07F0020754B
:1012300038212046FFF736FF39212046FFF732FFDD
:101240000220FFF7DCFA207D00F00F0040F0700173
:101250002046FFF727FF0220FFF7D1FA207DC0F3D9
:10126000011040F05C012046FFF71CFF38212046AA
:10127000FFF718FFBDE810400220FFF7C0BA417A1F
:1012800021F00101417241F008010BE7417A41F080
:101290000101417241F0080104E7417A21F00201A5
:1012A000417241F00801FDE6417A41F002014172CC
:1012B00041F00801F6E61821F4E61C21F2E6817AF5
:1012C00041F00201817241F00401EBE6817A21F0E4
:1012D0000201817241F00401E4E6817A41F00101EA
:1012E000817241F00401DDE6817A21F00101817211
:1012F00041F00401D6E670B5064601F00700402132
:1013000041EAC00115463046FFF7CCFE00243068A4
:10131000295D026830469047641C082CF7DB70BDDD
:10132000A43B000814480168491C01607047124A38
:10133000116813685B1A8342FBD370471FB5684678
:1013400000F02BFE01984FF47A71B0FBF1F0B0F190
:10135000807F0CD220F07F414FF0E020491E416198
:10136000064AF021117000218161072101611FBD32
:1013700001480068704700006C00002023ED00E089
:1013800000F5807000210180418081807047B0F8B5
:1013900004017047B0F90011B0F90221914204D163
:1013A000B0F8040108B1012070470020704710B563
:1013B0000C460346FFF7EEFF10B14FF6FF7010BD6D
:1013C000B3F900014100401CA3F800015C5203F591
:1013D00080739888401C9880B3F90000C11700EB17
:1013E000516121F07F01401A1880204610BDB0F8ED
:1013F0000411A1B1B0F90221491E5300521C12B2CE
:10140000A0F80221C35AA0F80411D11702EB5161D0
:1014100021F07F01511AA0F80211184670474FF6CB
:10142000FF707047B0F8041121B1B0F9021130F823
:10143000110070474FF6FF7070472DE9F04F8A4654
:1014400004460068EB490727252687B0934699464E
:10145000884208D10121102000F02BFEE648606090
:1014600000F224603FE0E549884209D101214804A7
:1014700000F015FEE2486060262600F2246032E0AB
:10148000E049884209D10121880400F008FEDE48C5
:101490006060272600F2246025E0DC4988420AD1FA
:1014A0000121C80400F0FBFDD948082760603426FC
:1014B00000F2246017E0D74988424FF0010109D1BA
:1014C000080500F0ECFDD44808276060352600F2DE
:1014D000246008E0202000F0ECFDD0480827606080
:1014E000472600F22460A0605046FFF7C7F9804607
:1014F0005046FFF7BDF90025022300951A464146E4
:101500000195FFF71EFA5846FFF7B8F9804658468E
:10151000FFF7AEF9022300951A4641460195FFF701
:1015200010FA5046FFF7B0F980465046FFF7A0F991
:101530003A46414600F0BFFA5846FFF7A5F9804603
:101540005846FFF795F93A46414600F0B4FAADF82F
:101550000C50ADF810500C20CDF80890ADF80E509E
:10156000ADF81450ADF8120002A9206801F069FB33
:10157000012240F22551206801F078FC002240F25F
:101580002771206801F072FC8DF818608DF81950F1
:101590008DF81A5001208DF81B0006A800F053F9B1
:1015A0006068FFF7EDFEA068FFF7EAFE0121206802
:1015B00001F0BDFB07B0BDE8F08F70B50D460446E5
:1015C0008021206801F06AFC0028F9D029462068B3
:1015D000BDE8704001F0D1BB2DE9F0410E46044654
:1015E000032540F29B2704E03846FFF715F96D1EEE
:1015F000ADB2A068FFF7CEFE08B1002DF4D140F2E5
:10160000277500222946206801F030FC3146A06889
:10161000FFF7CDFE01222946206801F027FC0120BA
:10162000BDE8F08101F0ADBB00B54068FFF7DFFE1B
:10163000A0F57F41FF3900D1002000BD70B5044600
:10164000FFF7DAF800F1640504E000BFFFF7D4F813
:10165000A84204D8A068B0F804010028F6D1606858
:10166000BDE870408CE64068DCE64068B0F80401F4
:10167000704770B55F4C40F22551204601F018FCD0
:1016800030B1204601F07DFB01465B48FFF78FFE3D
:1016900040F227752946204601F00AFC002817D0A1
:1016A0005F48B0F8040140B15D48FFF7A0FE014675
:1016B0002046BDE8704001F060BB0022294620466C
:1016C00001F0D4FB29462046BDE8704001F00FBC74
:1016D00070BD70B5494C40F22551204601F0E8FB41
:1016E00030B1204601F04DFB01464548FFF75FFE53
:1016F00040F227752946204601F0DAFB002817D072
:101700004748B0F80A0240B14648FFF770FE01466C
:101710002046BDE8704001F030BB0022294620463B
:1017200001F0A4FB29462046BDE8704001F0DFBB74
:1017300070BD70B5334C40F22551204601F0B8FB26
:1017400030B1204601F01DFB01462F48FFF72FFE68
:1017500040F227752946204601F0AAFB002817D041
:101760002F48B0F8100340B12F48FFF740FE014664
:101770002046BDE8704001F000BB0022294620460B
:1017800001F074FB29462046BDE8704001F0AFBB74
:1017900070BD70B51D4C40F22551204601F088FB0C
:1017A000224D30B1204601F0ECFA01462846FFF701
:1017B000FEFD40F227763146204601F079FB0028F5
:1017C00017D01748B0F8160440B12846FFF70FFEAF
:1017D00001462046BDE8704001F0CFBA00223146F4
:1017E000204601F043FB31462046BDE8704001F041
:1017F0007EBB70BD00100140C000002000440040CE
:10180000C601002000480040CC020020004C0040EF
:10181000D203002000500040D8040020DE05002044
:10182000E4060020EA070020F0080020F609002066
:101830001030FFF702BE1030FFF7CEBE2749084335
:1018400027490860704770B50F21C47802780123DA
:101850004FF0E026E4B1224C246804F4E064C4F5BF
:10186000E064C4F30724C4F10405E1404478AC40CB
:1018700085780D4025431B4C29011155007800F057
:101880001F018B40400906EB8000C0F8003170BD9D
:1018900002F01F008340500906EB8000C0F8803141
:1018A00070BD114A114001430D48001F016070478F
:1018B0000B4A121D0029116801D0014300E0814349
:1018C000116070474FF0E0210428086903D020F030
:1018D00004000861704740F00400FAE70000FA05D0
:1018E0000CED00E000E400E080FFFF1F7A4910B536
:1018F000884206D10121084600F0E5FB00210120C5
:101900004FE07649884206D10121022000F0DBFB3E
:101910000021022045E07249884206D101210420BD
:1019200000F0D1FB002104203BE06E49884206D143
:101930000121082000F0C7FB0021082031E06A499E
:10194000884206D10121102000F0BDFB00211020AB
:1019500027E06649884206D10121202000F0B3FB30
:10196000002120201DE06249884206D1012140204B
:1019700000F0A9FB0021402013E05E49884206D117
:101980000121802000F09FFB0021802009E05A49BE
:1019900088420AD184150121204600F094FB0021E1
:1019A0002046BDE8104000F08EBB10BDF0B500230E
:1019B000012403270D6804FA03F21540954242D131
:1019C000D0F800C05E0007FA06F52CEA050CC0F856
:1019D00000C091F804C0D0F800E00CFA06FC4CEA14
:1019E0000E0CC0F800C091F804C0BCF1010F02D089
:1019F000BCF1020F1FD1D0F808C02CEA050CC0F8CA
:101A000008C091F805C0D0F808E00CFA06FC4CEAD2
:101A10000E0CC0F808C0D0F804C02CEA020CC0F8C4
:101A200004C0426891F806C00CFA03FC1FFA8CFC53
:101A300042EA0C024260C268AA43C260CA79C56821
:101A4000B2402A43C2605B1C102BB3D3F0BD4FF6EB
:101A5000FF7101600021017141718171C171704795
:101A600041F48032C261C161C261C169C06970471D
:101A70000246002012690A4200D001207047006926
:101A800080B270470246002052690A4200D001200D
:101A90007047406980B27047018370474183704747
:101AA0000AB10183704741837047416170474269C1
:101AB0004A40426170474B07DB0E9A40C90810B597
:101AC00000EB8100016A0F249C40A1430162016A7E
:101AD0001143016210BD00000000024000040240FA
:101AE00000080240000C02400010024000140240B6
:101AF00000180240001C024000200240C44910B5FA
:101B0000884202D101214C050AE0C249884202D133
:101B100001218C0504E0C04988420AD10121CC058D
:101B2000204600F0EEFA2046BDE81040002100F00B
:101B3000E8BA10BD7FB5044680880D4620F03F0608
:101B4000684600F02AFAB5490298B0FBF1F189B273
:101B50000E43A680228822F001022280B04B2A6820
:101B60009A421BD85200B0FBF2F080B2042800D297
:101B70000420491C2184A083208840F0010020809B
:101B800021884FF6F5300140A8886A891043084340
:101B90002080A8892989084320817FBDEB88A3F58F
:101BA0003F46FF3E05D102EB4202B0FBF2F080B2AD
:101BB00008E002EBC20303EB0212B0FBF2F080B2CA
:101BC00040F48040020501D140F001004FF49672CC
:101BD00051434FF47A72B1FBF2F140F40040C8E790
:101BE00041F288310160002181804BF6FF72C28092
:101BF000018141814FF48041818170470029018832
:101C000002D041F0010101E021F0010101807047A3
:101C10000029018802D041F4807101E021F4807133
:101C2000018070470029018802D041F4007101E071
:101C300021F400710180704712B141F0010101E00F
:101C400001F0FE01018270470029018802D041F4B1
:101C5000806101E021F4806101807047828901F098
:101C6000FE0122F0FE021143818170470029818923
:101C700002D041F0010101E021F0010181817047B2
:101C80000029018802D041F0400101E021F040012B
:101C9000018070470029018802D041F4004101E031
:101CA000C1F30E01018070470029018803D021F0A3
:101CB00080010180704741F08001FAE7B1F5804F63
:101CC000818B02D021F4804101E041F48041818385
:101CD0007047B1F5006F018803D021F400610180E5
:101CE000704741F40061FAE7B1F5005F018803D065
:101CF00021F400510180704741F40051FAE70029B6
:101D0000018802D041F0100101E021F010010180B2
:101D1000704701827047008AC0B27047002901886D
:101D200002D041F4805101E021F4805101807047DC
:101D3000B1F5006F018803D021F400610180704784
:101D400041F40061FAE70029018802D041F0200146
:101D500001E021F0200101807047008B000A7047EC
:101D60000029818802D041F4006101E021F4006182
:101D7000818070470029818802D041F4805101E0C0
:101D800021F4805181807047405A7047002A828830
:101D900001D00A4300E08A43828070470246002057
:101DA000938A128B43EA024323F07F42914300D18E
:101DB00001207047818A008B41EA004121F07F4079
:101DC000704700220B0F21F07F4101D0143001E059
:101DD000090C18300068084200D0012210467047F4
:101DE000C9438182704710B502460020938801F0F4
:101DF000E064928A03EA144321F07F410A4202D050
:101E0000002B00D0012010BDC94381827047000023
:101E10000054004000580040005C004040420F0069
:101E2000A0860100E948016841F001010160E74A2C
:101E30000021083211600268E54B1A400260031D60
:101E4000E44A1A60026822F480220260DF480C3003
:101E500001607047DD490022891C0A7008707047D4
:101E600002460020510901290CD002290CD0D74983
:101E70007431096802F01F02012393400B4200D025
:101E800001207047D149F4E7D0497031F1E730B50E
:101E900000244FF4A0653120FFF7E2FF641CAC4240
:101EA00001D00028F7D03120FFF7DAFF002800D05A
:101EB000012030BDC5490A6822F0F80242EAC0009C
:101EC00008607047C44908607047C04900227031FB
:101ED0000A700A70012802D0042801D10520087078
:101EE0007047BE490860704741EA82115A0810B530
:101EF000BB4B029C03EB02421143014341EA0460E5
:101F0000B249091D086010BDB349086670478001D9
:101F100040EA0170AD49843108607047AE49886677
:101F20007047AD49C8647047A84A0832136808432F
:101F300023F0EC63184310607047A44A083213681A
:101F4000084323F078431843106070479F4A0832D3
:101F5000116821F003010143116070479B4808306C
:101F6000006800F00C007047984A0832116821F0B0
:101F7000F001014311607047944A0832116821F45E
:101F8000E051014311607047904908310A6822F41A
:101F9000604242EAC0000860704770B58B4A083260
:101FA0001168904B11F00C0104D05D10042903D08E
:101FB000082903D003601BE0056019E08349091D6F
:101FC0000C68C4F380560C6804F03F0416B1B5FBEE
:101FD000F4F301E0B3FBF4F30C680968C4F388146C
:101FE0006343C1F30141491C4900B3FBF1F10160B6
:101FF00011687D4B01F0F00109095C5C0168E1406A
:102000004160146804F4E054A40A1C5D21FA04F44D
:102010008460126802F46042520B9A5CD140C16045
:1020200070BDC0F30121032908D1684A0832116844
:1020300021F4F8136D49014019431160634970316F
:102040000A68C0F30B0002430A60704763494439D1
:10205000086070476149403908607047644908600A
:1020600070475A4A30320029116801D0014300E01C
:10207000814311607047554A34320029116801D0FC
:10208000014300E0814311607047504A3832002913
:10209000116801D0014300E08143116070474B4A51
:1020A00040320029116801D0014300E081431160F2
:1020B0007047464A44320029116801D0014300E0CC
:1020C000814311607047414A10320029116801D0E4
:1020D000014300E08143116070473C4A14320029FB
:1020E000116801D0014300E0814311607047374A15
:1020F00018320029116801D0014300E081431160CA
:102100007047324A20320029116801D0014300E0B3
:102110008143116070472D4A24320029116801D093
:10212000014300E0814311607047284A5032002982
:10213000116801D0014300E0814311607047234AD8
:1021400054320029116801D0014300E0814311603D
:1021500070471E4A58320029116801D0014300E03F
:10216000814311607047194A60320029116801D01B
:10217000014300E0814311607047144A6432002932
:10218000116801D0014300E08143116070470F4A9C
:102190000D320029117801D0014300E08143117014
:1021A00070470A487430016841F0807101607047DF
:1021B0000146064A00200C3212680A4200D0012073
:1021C000704702490E310870704700000038024025
:1021D000FFFFF6FE1030002400004742800E474209
:1021E0000000FFFF0024F40070000020FFFCFF0F40
:1021F0005C014742FE4910B5884206D101210846DC
:10220000FFF789FF002101205BE0B0F1804F09D08A
:10221000F84988420DD101210220FFF772FF002109
:10222000022070E001210846FFF76BFF002101202A
:1022300069E0F149884206D101210420FFF761FFDE
:10224000002104205FE0ED49884206D101210820E9
:10225000FFF757FF0021082055E0E949884206D1E1
:1022600001211020FFF74DFF002110204BE0E54930
:10227000884206D101212020FFF743FF00212020C2
:1022800041E0E149884206D101210220FFF743FFE6
:102290000021022015E0DD49884202D101210C0411
:1022A0000AE0DB49884202D101214C0404E0D9490B
:1022B00088420AD101218C042046FFF72CFF00211F
:1022C0002046BDE81040FFF726BFD349884206D11B
:1022D00001214020FFF715FF0021402013E0CF49E6
:1022E000884206D101218020FFF70BFF00218020CA
:1022F00009E0CB4988420AD1841501212046FFF725
:1023000000FF00212046BDE81040FFF7FABE10BDD7
:1023100030B50288B64BBC4C98420DD0A0420BD0D1
:10232000B0F1804F08D0B34DA84205D0B24DA842BD
:1023300002D0B24DA84203D122F070054A882A4348
:10234000AF4DA84206D0AF4DA84203D022F440754D
:102350000A892A4302804A68C2620A880285984232
:1023600001D0A04201D1897A01860121818230BD4C
:102370004FF0FF3141600021018001814180817275
:102380007047018582827047028822F070020A43FA
:102390000280704741627047C1627047406A70476F
:1023A000008D70470029018802D041F0020101E050
:1023B00021F00201018070470029018802D041F01C
:1023C000040101E021F00401018070470029018827
:1023D00002D041F0800101E021F0800101807047CE
:1023E000028822F00802028002880A4302807047B5
:1023F000028822F44072028002880A4302807047F9
:102400000029018802D041F0010101E021F0010121
:102410000180704730B5028C22F001020284028CE8
:102420008388048B22F0020224F073050C882C436D
:102430008D8915434A882A436D4DA84202D0724DBA
:10244000A8420DD122F00805CA8923F440732A431B
:1024500022F004058A882A430D8A1D434B8A2B43A8
:102460008380048389684163028430BD70B5028C27
:1024700022F010020284028C8488038B0D8823F4DE
:10248000E6464FF6FF7303EA052535438E8922F0B1
:10249000200203EA061616434A8803EA0212324370
:1024A000534EB04202D0584EB04215D122F08006B1
:1024B000CA8924F4406403EA0212324322F040063F
:1024C0008A8803EA021232430E8A03EA860626430A
:1024D0004C8A03EA840434438480058389688163D9
:1024E000028470BD70B5028C22F480720284028C6A
:1024F0008488838B0D8823F073031D4322F40073BB
:102500008E894FF6FF7202EA06261E434B8802EAC6
:1025100003233343364EB04202D03B4EB04215D176
:1025200023F40066CB8924F4405402EA03233343A6
:1025300023F480668B8802EA032333430E8A02EA7F
:10254000061626434C8A02EA0414344384808583A9
:102550008968C163038470BD70B5028C22F4805217
:102560000284048C8288838B0D8823F4E6464FF620
:10257000FF7303EA0525354324F400568C8903EAEA
:10258000043434434E8803EA06362643184CA042EE
:1025900002D01D4CA04205D122F480440A8A03EAED
:1025A000821222438280858389680164068470BD1B
:1025B000002101804180818081608181C18101820F
:1025C0004182704730B50124058C00F118038C401E
:1025D000A543058431B308292CD0091FC1F34E004F
:1025E0001844016848F6FF731940016001681AE059
:1025F000000001400004004000080040000C0040C2
:102600000010004000140040000401400040014060
:10261000004401400048014000180040001C0040F8
:102620000020004006E04FF6FF7303EA0222114348
:10263000016030BD03EB510001684FF68F73194004
:1026400001600168F3E74163704781637047C163CC
:10265000704701647047028B22F070020A430283C4
:102660007047028B4FF6FF7322F4E04203EA012128
:10267000114301837047828B22F070020A438283E8
:102680007047828B4FF6FF7322F4E04203EA012188
:10269000114381837047028B22F008020A430283B0
:1026A0007047028B4FF6FF7322F4006203EA0121A8
:1026B000114301837047828B22F008020A43828310
:1026C0007047828B4FF6FF7322F4006203EA012108
:1026D000114381837047028B22F004020A43028374
:1026E0007047028B4FF6FF7322F4806203EA0121E8
:1026F000114301837047828B22F004020A438283D4
:102700007047828B4FF6FF7322F4806203EA012147
:10271000114381837047028B22F080020A430283B7
:102720007047028B4FF6FF73C2F30E0203EA0121DA
:10273000114301837047828B22F080020A43828317
:102740007047828B4FF6FF73C2F30E0203EA01213A
:10275000114381837047028C22F002020A430284F3
:102760007047028C22F008020A4302847047028CF0
:102770004FF6FF7322F0200203EA01111143018496
:102780007047028C4FF6FF7322F0800203EA0111BA
:10279000114301847047028C4FF6FF7322F40072DC
:1027A00003EA0121114301847047028C4FF6FF7345
:1027B00022F4006203EA0121114301847047028C74
:1027C0004FF6FF7322F4005203EA013111430184F2
:1027D000704710B50123048C8B409C430484038C08
:1027E0008A401343038410BD10B50423048C8B402E
:1027F0009C430484038C8A401343038410BD828B62
:1028000022F440628283828B4FF6FF7303EA012138
:102810000A4382837047828B22F00C028283828B70
:102820000A4382837047028B22F440620283028B48
:102830004FF6FF7303EA01210A4302837047F0B5A4
:10284000048C24F010040484078B068C4FF6FF746C
:1028500004EA011527F4734704EA0331394304EA13
:1028600002220A4326F0A001294341F0100102830D
:102870000184F0BD028B22F00C020283028B0A431A
:10288000028370472DE9F0410D460E884988AA88D9
:102890002B8904460EB3042E26D0082E268C4FF624
:1028A000FF7028D026F480562684A78B268C00EA59
:1028B000022200EA013127F473473A4300EA033069
:1028C000104326F420420A4342F48051A08321841D
:1028D000E9882046BDE8F04191E700F061F9E98818
:1028E0002046BDE8F041C5E7FFF7A9FFE98820468B
:1028F000BDE8F04197E726F480762684A78B268CE6
:1029000000EA012100EA0310104327F0F3073843DF
:1029100026F420620A4342F48071A0832184E9886E
:102920002046BDE8F04176E7002101804180012288
:102930008280C180018170472DE9F0410C4600255D
:1029400049880746012601B90225A288012A00D13B
:102950000226208823890028384610D0FFF76FFF11
:10296000E1883846FFF75FFF23893246294638461B
:1029700000F016F9E1883846BDE8F0417AE700F04A
:102980000FF9E1883846FFF775FF2389324629465B
:102990003846FFF754FFE1883846BDE8F04142E78A
:1029A000406B7047806B7047C06B7047006C70471E
:1029B00010B50A884B88CC881A438B8823431A4366
:1029C0000B891A434B8989891A430A43A0F844208A
:1029D00010BD0021018041808180C1800181418141
:1029E00081817047002930F8441F02D041F4004132
:1029F00001E0C1F30E01018070470029818802D0F7
:102A000041F0040101E021F00401818070470029B8
:102A1000818802D041F0010101E021F001018180B3
:102A20007047002A828901D00A4300E08A438281EC
:102A300070478182704702460020128A0A4200D005
:102A400001207047C9430182704702460020138A63
:102A500092890B4202EA010202D0002A00D0012032
:102A60007047C943018270471143A0F8481070476E
:102A7000002A828901D00A4300E08A43828170479C
:102A80000029818802D041F0080101E021F008010D
:102A900081807047018921F0070101817047028917
:102AA00022F070020A430281704700B50346FFF727
:102AB000F6FF188940F00700188100BD70B50D467B
:102AC00011460446602D4FF001020AD000F068F86C
:102AD00029462046FFF7E3FF208940F007002081C8
:102AE00070BDFFF7ACFEF3E730B504894FF6FF7514
:102AF00005EA03231343E4B20B432343038130BDB0
:102B000010B50446FFF7F0FF208940F077002081E0
:102B100010BD10B50446FFF7E7FF208940F4804060
:102B2000208110BD828822F07002828082880A4350
:102B300082807047028922F00702028102890A43DB
:102B400002817047028922F08002028102890A43D1
:102B50000281704770B50589048B068C25F0070546
:102B60000D434FF6FC410C4040F201110C434FF66F
:102B7000FF7101EA031126F022061143314305815A
:102B80000483018470BD0029818802D041F0800156
:102B900001E021F0800181807047A0F8501070475B
:102BA00070B5048C24F001040484058B048C4FF66A
:102BB000FF7606EA0313134325F0F3052B4324F0B5
:102BC0000A020A4342F001010383018470BD000040
:102BD000CA4910B5884206D101211020FFF79BFA9F
:102BE0000021102028E0C649884202D101214C046E
:102BF00010E0C449884202D101218C040AE0C24994
:102C0000884202D10121CC0404E0C04988420AD1A3
:102C100001210C052046FFF774FA2046BDE810405C
:102C20000021FFF76EBABA49884209D1012120205C
:102C3000FFF771FA00212020BDE81040FFF76BBAC2
:102C400010BD7FB50446008A0D4620F44051E88847
:102C500008432082A08941F20C618843A9882A890F
:102C600011436A8902431143A181A08A20F4407173
:102C7000A8890843A0826846FFF78FF99F488442DD
:102C800002D0A348844201D1039800E00298A189B0
:102C90000904002900EBC00101EB0010296802DAE9
:102CA0004FEA410101E04FEA8101B0FBF1F26420FB
:102CB000B2FBF0F14FEA01114FEA11136FF0180562
:102CC0006B4302EB8302A3891D044FF0320306D548
:102CD00003EBC202B2FBF0F000F0070005E003EBEB
:102CE0000212B2FBF0F000F00F00084320817FBD1C
:102CF0004FF41651016000218180C18001810C22B6
:102D000042818181704710B5028A4C8822F4706339
:102D10000A8822438C88C9880C4322431A430282C2
:102D200010BD0021018041808180C1807047002951
:102D3000818902D041F4005101E021F400518181E8
:102D40007047028B02F47F420283028B0A430283A4
:102D500070470029818902D041F4004101E0C1F3AC
:102D60000E01818170470029818A02D041F40061FF
:102D700001E021F4006181827047C1F30801818084
:102D800070478088C0F308007047028A22F00F0263
:102D90000282028A0A43028270470029818902D096
:102DA00041F0020101E021F0020181817047828936
:102DB00022F40062828182890A4382817047028AFA
:102DC00022F020020282028A0A430282704700290E
:102DD000018A02D041F4804101E021F48041018266
:102DE0007047818941F00101818170470029818A02
:102DF00002D041F0080101E021F008018182704712
:102E0000028BD2B20283028B42EA01210183704716
:102E10000029818A02D041F0200101E021F0200147
:102E2000818270470029818A02D041F0100101E0BF
:102E300021F0100181827047828A22F0040282828E
:102E4000828A0A43828270470029818A02D041F037
:102E5000020101E021F0020181827047002A828A8A
:102E600001D00A4300E08A438282704710B5C1F363
:102E7000421301F01F040121A140012B07D0022BB6
:102E800007D01430002A026805D00A4304E00C3051
:102E9000F8E71030F6E78A43026010BD02460020D2
:102EA00012880A4200D001207047C9430180704750
:102EB00030B501F01F0201240025C1F3421304FACA
:102EC00002F2012B0FD0022B0FD0838A4FEA11217F
:102ED0000088134204FA01F400EA040001D000B1B2
:102EE0000125284630BD8389F0E7038AEEE70A0A08
:102EF00001219140C943018070470000001001404A
:102F00000044004000480040004C00400050004099
:102F10000014014010B5431C02E010F8011B71B110
:102F20008107FAD14FF0013202C88C1A8C4314EA9F
:102F3000C211F9D0C01A0A0603D0C01E10BDC01AB3
:102F400010BD0A0401D0801E10BD0902FCD0401E35
:102F500010BD70477047704770B5064C7C44064DF5
:102F60007D4403E0206820448047241DAC42F9D111
:102F700070BD0000B40C0000B40C000010B500F0EF
:102F800009F8BDE81040AFF30080002801D000F040
:102F900019B8704710B5002102A000F044F80120D4
:102FA00010BD00005349475056464E3A20507572A6
:102FB00065207669727475616C20666E2063616C41
:102FC0006C65640001491820ABBEFEE726000200D4
:102FD000754600F049F8AE4605006946534620F0B4
:102FE0000700854618B020B5FDF72EF9BDE8204052
:102FF0004FF000064FF000074FF000084FF0000BB5
:1030000021F00701AC46ACE8C009ACE8C009ACE867
:10301000C009ACE8C0098D4670470446AFF3008094
:103020002046FDF7FCF870B505460C460A2000E086
:103030006D1C00F011F835B128780028F8D102E0B5
:10304000641C00F009F814B120780028F8D1BDE81C
:1030500070400A20AFF3008008B569468DF8000083
:103060000320ABBE08BD000000487047080D0020DB
:10307000704770B505460C000AD00846FFF74AFFB6
:1030800002462868214643682846BDE87040184734
:10309000002070BD024901600021416070470000BE
:1030A000DC3B00080020FFF769BF81F0004170475A
:1030B00080F00040704721F00041704720F0004050
:1030C0007047000010B591EA030F48BF83F000433A
:1030D00000F11084841A71EB030C05D2121943EB32
:1030E0000C03001B61EB0C01DFF824E14FEA1154E3
:1030F000A4EB135C1EEA430F18BF9EEA445F73D033
:1031000023EA0E03DCF1200E21EA045143F480137C
:1031100032D322FA0CFE10EB0E0023FA0CFE41EB28
:103120000E01CCF1200E03FA0EFE10EB0E0051F151
:103130000001B1F5801FCCF1200E32D201EB045119
:1031400012FA0EF2BDE8104058BF7047401C38BF5D
:103150005FEA420218BF7047002814BF20F0010048
:1031600041F100014FEA410313F5001F38BF7047DA
:10317000A1F1C04100F06EBB012A43EB0302ACF1A8
:10318000200CDCF11F0E32BF4FF0000E23FA0CF3BF
:1031900010EB030041EB0451B4EB115FD0D0A1EB75
:1031A000045101F5801149085FEA300001EB045138
:1031B0000ED350F1000038BF12FA0EFE08D1BDE860
:1031C0001040C9E7401C38BF5FEA4202CAD1C3E7DA
:1031D000BDE810404FEA410313F5001F38BF7047A8
:1031E000A1F1C04100F036BB9EEA445F08D011EA6D
:1031F0005E0FBDE8104004BF01F0004100207047A1
:10320000BDE8104070B500F0D7FA00BF64FBBE3EC9
:103210000000E0FF491058BFC1F140415B1058BFAA
:10322000C3F140438B42EFF3008070472DE9C0416A
:1032300030B4DFF8A0C23CEA111418BF3CEA131402
:1032400000F0EC8081EA03051CEA111444EAD5740D
:1032500018BF1CEA131500F0C780A4EB05044FF05B
:10326000004545EAC12145EAC32341EA505143EAFA
:10327000525304F17F74994204F500344FEAC020A0
:103280004FEAC22208BF904200F09C804FEA1365CB
:103290000FF24016765D4FEA134506FB05F7C7F1BE
:1032A000807706FB07F74FEAD737A7FB036876421C
:1032B000C8F58038A7FB06CE38BFA8F1010807FB88
:1032C00008E64FF0000EA6FB028CE6FB03CEDCF115
:1032D000000CCEF1004E38BFAEF1010EA6FB0C582B
:1032E0004FF000074FF00005E6FB0E87A1FB08C674
:1032F000A0FB07CE16EB0E0645F10005E1FB0765C6
:1033000015F1E04E7EBFA4F580345FEA46066D41BC
:1033100016F1800745F100054FEA17274FEA0666C8
:1033200047EA0567A6F1DE46B6F1805F4FEA15254C
:103330001FD9384624F0010C05EBC471BCF1FE6FB7
:1033400001EB0C1102D8F0BCBDE8008124425CBF47
:1033500001F5801E9EEAC47F02D4F0BCBDE8008166
:10336000244238D4F0BCA1F1C041BDE8004100F0D6
:1033700071BA4FEAD22242EA43524FEAD323A7FB63
:1033800002864FEAD02040EA415007FB03661EEA5E
:103390000E0F4FEAD12105FB026658BFA6EB00567F
:1033A000B6EB00564FEA520E4EEAC37E18EB0E0EF5
:1033B00056EB530EBDD518EB02085E417F1C55F14C
:1033C0000005B6E74FF480154FF000074FF00006F8
:1033D0004FF00008ADE7F0BC4FF0000001F1C04134
:1033E00001F00041BDE8008111EA0C1F0CEA131541
:1033F00000D00CE013EA0C1F00F025804FF0000015
:10340000F0BC81EA030101F00041BDE80081F0BC9D
:10341000BDE8004181EA030100F01CBAF0BCBDE840
:10342000004170B500F0C8F9097EFC3E00F007B815
:1034300081EA03014FF0000001F00041704781EA8A
:10344000030100F007BAF0BCBDE800414FF00000F6
:1034500021497047FFFDFBF9F7F5F4F2F0EEEDEBD3
:10346000E9E8E6E4E3E1E0DEDDDBDAD8D7D5D4D382
:10347000D1D0CFCDCCCBCAC8C7C6C5C4C2C1C0BFCE
:10348000BEBDBCBBBAB9B8B7B6B5B4B3B2B1B0AFD4
:10349000AEADACABAAA9A8A8A7A6A5A4A3A3A2A1B8
:1034A000A09F9F9E9D9C9C9B9A9999989797969573
:1034B00095949393929191908F8F8E8E8D8C8C8B0F
:1034C0008B8A898988888787868585848483838297
:1034D000828181800000FF070000F87F4FEA4103EE
:1034E0004FEA5353A3F58063D3F11E03C8BFD3F152
:1034F000210C0CDD4FF0004242EAC12242EA505258
:1035000032FA03FC8CEAE17CACEBE1707047102BE3
:10351000C4BF0020704703F5787CBCF1FF3F04D0A6
:103520006FF0004282EA2100704770B500F044F964
:103530004992248000207047F2E700004FEA1153BF
:10354000A3F58063D3F11E03A8BFD3F1200C08DBE1
:103550004FF0004242EAC12252EA505232FA03F0DE
:10356000704709420BD4102BC4BF0020704703F5ED
:10357000787CBCF1FF3F05D04FF0FF3070474FF033
:103580000000704770B500F017F900BF4992248021
:1035900000207047F0E710F0004248BF4042B0FA08
:1035A00080F310FA03F10AD0C3F11D0303F5806321
:1035B0004FEA415002EB035202EBD12170474FF02A
:1035C00000007047B0FA80F310FA03F10AD0C3F19B
:1035D0001D0303F580634FEA41504FEA035202EBAB
:1035E000D12170474FF000007047000051EA030CF2
:1035F00017D41CF5801F58BFBCF5801F00F1068052
:10360000994218BF704708BF9042704707D711F51D
:10361000801F58BF13F5801F19D499427047894203
:1036200070471CF5801F08D5BCF5801FF7D58B426D
:1036300018BF704708BF824270474FF4001C1CEB54
:10364000410F38BF1CEB430F01D28B42704770B55E
:1036500000F0B2F8922449004FF000514FF080532F
:10366000FFF7D8BDDFF848C170B51CEA111E1EBFB8
:103670001CEA13159EEA0C0F95EA0C0F00F06F8000
:1036800081EA030423EA4C134EEAD47E21EA4C116A
:1036900041F4801143F48013AE44A1FB024CA0FB23
:1036A0000365AEF17F7E361955EB0C05A1FB034C8B
:1036B0004CF10003A0FB021C16EB0C06654153F114
:1036C0000003094218BF46F0010613F4007F0BD136
:1036D0004FEA03314FEA0530340341EA155140EA1D
:1036E00016506FF003020AE04FEAC3214FEAC520EB
:1036F000F40241EA555140EA56506FF0020202EBE3
:103700002E4201EB025585EACE710AD05FEA440CE5
:1037100018BF24F0004450F1000041F1000120EAFC
:10372000D47040F2FE7C624500D270BDA84214BF46
:103730004FF080444FF04044002E08BF0024BEF1FB
:10374000806FA8BFA1F1C041BDE8704080F28280C7
:103750004FF0000001F1C04101F0004170479EEAC6
:103760000C0F0CEA131518BF95EA0C0F06D04FF09A
:10377000000081EA030E0EF0004170BD00F01CF85D
:103780008900013E00F007B800F009B84FEA430C89
:103790005FEA5C5C08D081EA030100F05BB84FEAA5
:1037A000410C5FEA5C5CF6D14FF0000001497047C4
:1037B0000000FF070000F87F0EF1020E2EF0030E4E
:1037C0005EF8046B364205D4012A43EB030515F578
:1037D000001F12D8012841EB010C1CF5001F0CD86A
:1037E0000ED14FEAD17C15F5001F0CEB4C0C0CF1FF
:1037F000020C08BF4CEBD37C04E04FF0080C01E056
:103800004FEAD37C0CEB4C0526FA05F606F00706CA
:10381000B6F1040C06D20EEB860CBDE870404CF0FD
:10382000010C6047DFE80CF0090B02024FF0004189
:103830004FF00000A1F5002170BD19461046012887
:1038400051EB010418BFD4F5001484BF002001F02F
:10385000004170BD0808A0F500114FEA3101704722
:1038600053EA010C17D41CF5801F58BFBCF5801F0C
:1038700000F106808B4218BF704708BF8242704734
:1038800007D713F5801F58BF11F5801F19D48B423D
:1038900070479B4270471CF5801F08D5BCF5801F00
:1038A000F7D5994218BF704708BF904270474FF450
:1038B000001C1CEB430F38BF1CEB410F01D2994297
:1038C00070470FB40CBC03BCFFF7C1BE91EA030FF5
:1038D00010B581F000413FF5FDAB83F0004300F0EF
:1038E00009B8000010B591EA030F48BF83F0004308
:1038F0003FF5F0AB841A71EB030C07D212198CF070
:10390000004C43EB0C03001B61EB0C01DFF8A4E15E
:103910004FEA1154A4EB135C1EEA430F18BF9EEA52
:10392000445F00F0B08023EA6E03524221EA045162
:10393000C3EB6E0338BF5B1EDCF1200E25D322FAE9
:103940000CFE10EB0E0043FA0CFE41EB0E01CCF125
:10395000200E03FA0EFE10EB0E0051F10001CCF127
:10396000200E29D412FA0EF201EB0451BDE81040EA
:1039700058BF7047401C1CBFB2F1004F7047002871
:103980000CBF491C20F00100704712EB020E43EB04
:10399000030218BF4FF0010E4EEA4202ACF1200CB8
:1039A000DCF11E0E54D943FA0CFE10EB0E0051F15F
:1039B000FF31CCF11E0ED5D50EF1010E12FA0EFE1E
:1039C000404141EB010101EB445C5FEA5C5C10D9D2
:1039D00010EBDE7001EB045138BFBEF1004FBDE8C3
:1039E000104018BF704700280CBF491C20F0010090
:1039F000704730D24FEAD42C11F5001124F4006442
:103A00001BD0B1FA81F20B3AA41AA41ED2F1200302
:103A1000914030FA03F31943904001EBCC71002C34
:103A200001EB0451BDE81040A8BF704701F1C0414F
:103A30004FF0000001F000417047B0FA80F310FA37
:103A400003F100D110BDE41A173C4805C90AE4E7A8
:103A500001EB045110BD491001EB0451BDE81040C9
:103A60004FEA300002E04FF0000170474A0008BF03
:103A70000042F8D0B2F5001F28BF704701F00041A6
:103A80004FF0000070479EEA445F07D011EA5E0FD6
:103A9000BDE8104004BF002100207047BDE8104081
:103AA00070B5FFF789FE00BF40DFF63E83F00041AE
:103AB000104670470000E0FF43004FEAD30C4FEA86
:103AC0003C0C43401FBF40070CF1605113F0FE4F08
:103AD00070471CF0006F03D100200CF000417047CC
:103AE0000CF0004343EA507010B540EACC0000F0FF
:103AF0000EF800BF000000924FEA0001FFF7AABED7
:103B00004FF000414FF00000A1F5002170470EF189
:103B1000020E2EF0030E5EF8044B244204D44FEA4A
:103B20004102B2F17F4F11D84FEA4003B3F17F4F0A
:103B30000CD80ED14FEAD07CB2F17F4F0CEB4C0C7D
:103B40000CF1020C08BF4CEBD17C04E04FF0080CE8
:103B500001E04FEAD17C0CEB4C0324FA03F404F0AF
:103B60000704B4F1040C06D20EEB840CBDE810403F
:103B70004CF0010C6047DFE80CF0070802024FF040
:103B80000040A0F5800010BD0846420018BFD2F1E9
:103B9000807288BF00F0004010BD4FF04070E1EE31
:103BA000100A7047000000004000000014000000F0
:103BB000540000000000000000000000371800085A
:103BC0007D0F000800000000000000000000000061
:103BD000000000000000000000000000A530000808
:103BE0007D0F00080000000000000000CB1100085D
:103BF0007D0F0008183C0008000000208000000035
:103C0000C4010008983C000880000020E812000071
:103C1000E00100081FC9FFFF007A030A000000004E
:103C2000000000000102030406070809000000006C
:103C30000000000000000000010000000200000081
:103C40000400000008000000100000002000000038
:103C500040000000800000000001000000000000A3
:103C6000000002400004024000080240000C024034
:103C7000001002400014024000180240001C0240E4
:103C800000200240000000000000000001020304C8
:083C9000010203040607080904
:040000050800018965
:00000001FF
