:020000040800F2
:1000000068130020450600088506000887060008DA
:10001000890600088B0600088D0600080000000015
:100020000000000000000000000000008F06000833
:100030009106000800000000930600083115000832
:100040005F0600085F0600085F0600085F060008FC
:100050005F0600085F0600085F0600085F060008EC
:100060005F0600085F0600085F0600085F060008DC
:100070005F0600085F0600085F0600085F060008CC
:100080005F0600085F0600085F0600085F060008BC
:100090005F0600085F0600085F0600085F060008AC
:1000A0005F0600085F0600085F0600085F0600089C
:1000B000D10800085F0600085F0600085F06000818
:1000C0005F0600085F0600085F0600085F0600087C
:1000D0005F0600087D180008DD1800083D190008BB
:1000E0005F0600085F0600085F0600085F0600085C
:1000F0005F0600085F0600085F0600085F0600084C
:100100005F0600085F0600085F0600085F0600083B
:100110009D1900085F0600085F0600085F060008DA
:100120005F0600085F0600085F0600085F0600081B
:100130005F0600085F0600085F0600085F0600080B
:100140005F0600085F0600085F0600085F060008FB
:100150005F0600085F0600085F0600085F060008EB
:100160005F0600085F0600085F0600085F060008DB
:100170005F0600085F0600085F0600085F060008CB
:100180005F0600085F06000800F002F800F03EF885
:100190000AA090E8000C82448344AAF10107DA45E2
:1001A00001D100F033F8AFF2090EBAE80F0013F0F6
:1001B000010F18BFFB1A43F001031847083F000066
:1001C000283F0000103A24BF78C878C1FAD85207F7
:1001D00024BF30C830C144BF04680C6070470000C1
:1001E0000023002400250026103A28BF78C1FBD840
:1001F000520728BF30C148BF0B6070471FB503F0DE
:1002000034FF03F011F91FBD10B510BD03F048F91C
:100210001146FFF7F3FF00F009F803F066F903B4A5
:10022000FFF7F2FF03BC03F035F9000098B0282077
:10023000169000F0E3FA40F20A324FF49643511C54
:10024000C24801F0FBFBC2A1C04800F024FECBA1D4
:10025000BE4800F020FED3A1BC4800F01CFEDBA18C
:10026000BA4800F018FEB9481030179001F0ECFAC7
:1002700012A801F0EEFDDBA1B44800F00CFE0A224A
:10028000B248129900F0CFFED9A1B04800F003FEA9
:100290000A22AE48139900F0C6FED8A1AB4800F080
:1002A000FAFD0A22A948149900F0BDFED6A1A7487C
:1002B00000F0F1FD0A22A548159900F0B4FED5A181
:1002C000A24800F0E8FD179801F0BEFA40F20C4693
:1002D000304600F01DFB40F20D4904464D464846AD
:1002E00000F016FB0443B01C00F012FB0443F01CAA
:1002F00000F00EFB0443304600F004FB4FF0000812
:10030000CDF80080022301222146CDF8048000F0C0
:1003100062FB4FF40377FB1C5A1E511EBE48009728
:1003200000F000FF0121384600F01CFB3A1FBB4BD8
:10033000511CBB4800F0B4FB8448B949183800F0A0
:10034000C3FF8248183800F0E6FF80482E21183895
:1003500001F06FF87D48B3A1183800F09CFDDFF87C
:10036000CCA25446504601F085FC0090284600F08F
:10037000CFFA01460098C0F30B000143204600F07D
:1003800078FB169800F085FA00F080FA4FF47A7442
:10039000B0FBF4F500F07AFAB0FBF4F0A842F9D023
:1003A00000F074FAB0FBF4F5CB46A04E304601F0F5
:1003B00061FC0446584600F0ABFAC4F30B0440EA73
:1003C0000401304600F055FB169800F062FA40F246
:1003D0000E49484600F09CFA40EA0401304600F01D
:1003E00048FB169800F055FA40F20F4A504600F0CC
:1003F0008FFA40EA0401304600F03BFB169800F00B
:1004000048FA40F20C4000F083FA40EA040130461A
:1004100000F02FFB169800F03CFA3C20B5FBF0F101
:1004200000FB11510F20B1FBF0F090B101280CD06E
:10043000022806D003280CD140F20C4000F068FAE4
:100440000443504600F064FA0443484600F060FA62
:100450000443584600F05CFA40EA0401304600F0DC
:1004600008FB4FF47A7400F011FAB0FBF4F0A842E4
:10047000F9D000F00BFAB0FBF4F500F007FA0146F2
:100480000A22324800F006FE3048012200211838C6
:1004900000F0AEFF00F0FAF900EE100AF8EE400AA4
:1004A0009FED631A80EE810A10EE100A03F06CFDD6
:1004B00041EC100B25480221183800F0B5FD234807
:1004C0002E21183800F0C3FC0021384600F04AFA0B
:1004D000082202A9504800F0C3FE0121384600F06E
:1004E00041FA0024179801F0C5F900B200287FF7FF
:1004F0005CAF02AE179801F0BDF900B2002808DD2C
:100500005C2C06D2179801F095F93055641CA4B202
:10051000F0E706F8048047A10C4800F0BCFC02A9F3
:100520000A4800F08FFD40E7084810B5183803F07E
:1005300019F8414901600548404C03F013F84FF4A5
:100540007A7181603E490461016010BDA400002001
:1005500054686973207468726F6E65206F66206BD3
:10056000696E672C20746869732073636570747298
:1005700027642069736C652C200A0000546865208C
:100580006B696E67646F6D206F6620686561766564
:100590006E2062656C6F6E677320746F207468657F
:1005A0006D210A0049662074686F75206265657365
:1005B000742068652120427574204F20686F772071
:1005C00066616C6C276E210A00000000486F77207E
:1005D0006368616E6727642066726F6D2068696D5D
:1005E000210A0000535953434C4B203D200000008A
:1005F0002C2048434C4B203D200000002C20504331
:100600004C4B31203D2000002C2050434C4B3220DD
:100610003D2000000A00000000380040A0860100D4
:100620006C0000205361642100000000000C0240B7
:1006300000007A443E200000BC4000080048004012
:100640008C4000080948804709480047FEE7FEE75C
:10065000FEE7FEE7FEE7FEE7FEE7FEE7FEE7FEE772
:1006600004480549054A064B7047000095060008F6
:1006700089010008680D002068130020680F002021
:10068000680F00207047FEE7FEE7FEE7FEE77047D1
:1006900070477047504810B5016841F4700101601F
:1006A0004E48016841F0010101604C4A00210832C6
:1006B000116002684A4B1A400260031D494A1A60E1
:1006C000026822F48022026044480C30016000F08D
:1006D0003CF841494FF000608039086010BD70B5AA
:1006E0003E4D08352868404B404910F00C0004D0BE
:1006F0005E10042803D0082803D00B601BE00E60B6
:1007000019E0364A121D1068C0F38054106800F0DA
:100710003F0014B1B6FBF0F001E0B3FBF0F013685A
:100720001268C3F388135843C2F30142521C5200AB
:10073000B0FBF2F0086028682C4AC0F30310121DC9
:10074000105C0A68C2400A6070BD244A002011682B
:1007500041F4803111604FF4A063116800F1010091
:1007600011F4003F01D19842F7D11068800331D5D0
:100770001A484030016841F0805101601C4801680E
:1007800041F480410160154808300168016001684A
:1007900041F400410160016841F4A0510160031F70
:1007A00014491960116841F0807111601168890164
:1007B000FCD5114A40F205611160016821F0030186
:1007C0000160016841F0020101600168C1F381012B
:1007D0000229FAD17047000088ED00E0003802409D
:1007E000FFFFF6FE103000240024F400000000207B
:1007F0000070004008544007003C024030B589B00A
:1008000004A801F026FB04983C494008B0FBF1F035
:10081000ADF80000002440F2E7300190ADF8084048
:100820000121ADF802408DF80A40084601F093FB23
:100830004FF080456946284601F05AFE00212846BF
:1008400001F098FE01221146284602F0DAF91C2038
:100850008DF80C008DF80D4001218DF80E108DF8EB
:100860000F1003A801F0F5F80121284601F0B8FEA9
:1008700023480460446009B030BD10B54FF080409B
:1008800001F07CFE1E490968084410BD1C48406800
:1008900070471B494A6810444A68824202D94A6834
:1008A0008242FCD24A688242FCD3704710B50446AB
:1008B000FFF7E3FF0444FFF7E0FFA04203D9FFF78F
:1008C000DCFFA042FBD2FFF7D8FFA042FBD310BD54
:1008D00010B501218C07204602F0A7F900280BD0A3
:1008E0000121204602F0ADF90548016801F57A7151
:1008F00001604168491C416010BD000040420F008A
:10090000140000205C49C0F3032051F82000704718
:1009100000F00F010120884080B2704700F00F0006
:1009200070477CB505465448C5F3032428380E4665
:1009300050F82400012101F0F0FA2846FFF7E8FF03
:1009400000908DF8046000208DF806008DF80700F7
:1009500002208DF805004848694650F8240001F04F
:100960002BF97CBD10B5444BC0F3032241B1FFF716
:10097000CFFF014653F82200BDE8104001F07DB9D9
:10098000FFF7C6FF014653F82200BDE8104001F012
:1009900076B90346384810B5C3F3032150F8212037
:1009A0001846FFF7B5FF41001068C840C0B20128E3
:1009B000184609D0FFF7ACFF0146104601F049F98F
:1009C000002800D0012010BDFFF7A2FF014610460D
:1009D00001F049F9F4E72DE9FC470446DDE90A890D
:1009E00026481D4616460F46844202D101210220A8
:1009F0002EE02348844202D10121042028E021482E
:100A0000844202D10121082022E01F48844202D101
:100A1000012110201CE01D48844202D10121202028
:100A200016E01B48844202D10121402010E0194801
:100A3000844202D1012180200AE01748844202D179
:100A40000121801504E01548844203D101210846A4
:100A500001F063FA8DF804608DF806808DF8079038
:100A600000978DF805506946204601F0A5F8BDE8CD
:100A7000FC8701F00BB90000440000200004024094
:100A800000080240000C0240001002400014024026
:100A900000180240001C02400020024000000240FA
:100AA0002DE9F041044686B0A180E2800426D34AB5
:100AB0002168F0041D46914201D1400004E0D04A73
:100AC000914201D14FF40000012101F044FAE08885
:100AD000FFF71EFF8046E088FFF714FF012702237F
:100AE00000971A4641460197FFF775FFA088FFF768
:100AF0000FFF8046A088FFF705FF022300971A46E4
:100B000041460197FFF767FFE088FFF707FF0746B9
:100B1000E088FFF7F7FE3246394601F0BDF8A088BD
:100B2000FFF7FCFE0746A088FFF7ECFE3246394689
:100B300001F0B2F8B348281804D0B349401801D0E6
:100B4000B04D6D420026ADF80C604BF6FF70ADF86D
:100B50000E004FF48060ADF812000001ADF81400F3
:100B6000029502A9206801F0BDFA0121206801F078
:100B70001DFBFF206072A67206B0BDE8F0812DE972
:100B8000F0410446FF200F466072052540F29B2687
:100B90004FF4003805E0D5B33046FFF787FE6D1EF1
:100BA000ADB24146206801F0E4FB0028F3D1607249
:100BB0000121206801F004FB0525DFF8508205E0E3
:100BC0002DB33046FFF772FE6D1EADB24146206870
:100BD00001F0BCFB0028F3D0012060727806010E02
:100BE0000022206801F000FB0525894F05E075B162
:100BF0003046FFF75BFE6D1EADB23946206801F04E
:100C0000A5FB0028F3D002206072FF20B5E7FFE7C4
:100C10000020B2E72DE9F05F04460120A0721F46D4
:100C200090462046FFF7ABFF00282FD0DFF8E0A169
:100C300000264FF0040B40F29B290AF1020A18E04B
:100C400018F80610206801F03CFB84F809B005256F
:100C500005E0EDB14846FFF729FE6D1EADB25146E5
:100C6000206801F073FB0028F3D00520761C607229
:100C7000B6B2BE42E4D3062060720121206801F0C2
:100C8000A9FAFF2060720020A072FF20BDE8F09F4B
:100C90000020FBE72DE9F05F04460220DDF828A0E4
:100CA000A07288461F4615462046FFF768FF0028B9
:100CB0007ED02946206801F004FB0420DFF8509123
:100CC0006072052540F29B2609F1020906E0002D1D
:100CD0006FD03046FFF7EAFD6D1EADB24946206881
:100CE00001F034FB0028F2D0062060720121206858
:100CF00001F066FA0525DFF8149106E0002D7AD0A0
:100D00003046FFF7D3FD6D1EADB24946206801F0B5
:100D10001DFB0028F2D0072060724FEA4860010EE8
:100D20000122206801F060FADFF8E090052509F162
:100D30000109B04606E0002D5DD04046FFF7B6FD44
:100D40006D1EADB24946206801F000FB0028F2D0CC
:100D50000320DFF8B8906072012609F13F094FF0D7
:100D6000080B18E084F809B0052505E00DB34046EE
:100D7000FFF79CFD6D1EADB24946206801F0E6FA12
:100D80000028F3D0206801F09EFA07F8010B092033
:100D9000761C6072B6B25645E4D30A206072002118
:100DA000206801F029FA0121206801F013FA01E01E
:100DB00020E020E00B20607205254E4605E0D5B10D
:100DC0004046FFF773FD6D1EADB23146206801F05D
:100DD000BDFA0028F3D0206801F075FA38700C20B5
:100DE00060720121206801F007FAFF206072002084
:100DF000A072FF204AE7002048E7000000580040AA
:100E0000005C00406079FEFF206CFBFF01000300E6
:100E10008200070010B58AB0002308AC8DF820309E
:100E2000022A00D20A220B46B1FBF2F102FB113377
:100E3000DBB20A2B01D2303300E0373304F8013D36
:100E40000029F0D1214602F07CFB0AB010BD0268F7
:100E50001268104770B50C4605461AB10A2A08D028
:100E6000D2B214E02868C9B202682846BDE87040D2
:100E70001047002C0ADA2D21FFF7E9FF06466142F0
:100E80000A222846FFF7C6FF304470BD0A22BDE89B
:100E90007040BFE7DEE702F054BB0AB1D2B2B9E757
:100EA0000268C9B212681047F0B506462DED048BF2
:100EB000B0EE408AF0EE608A0C4683B018EE901ACD
:100EC00018EE100A00278DED008B00B101200143C0
:100ED00021F000408349081AC00F01D082A11BE015
:100EE00018EE900A8149B1EB400F02D118EE100ABA
:100EF000C8B19FED7F0B51EC180B53EC102B02F097
:100F000017FF08D39FED7C0B51EC180B53EC102B03
:100F100002F0D4FD09D27AA103B03046BDEC048BB7
:100F2000BDE8F040B7E777A1F6E79FED770B51EC0E
:100F3000180B53EC102B02F0C1FD0AD22D213046C4
:100F4000FFF785FF074651EC180B02F016FB41EC4A
:100F5000180B9FED6F0B00259FED6F9B09E053EC85
:100F6000192B51EC100B02F0C9FB41EC100B6D1C5E
:100F7000EDB2A542F3D353EC102B51EC180B02F059
:100F800009FB41EC180B02F041FD054602F082FD21
:100F900053EC182B02F002FF41EC180B0A222946F1
:100FA0003046FFF77AFFC519FCB15DA13046FFF767
:100FB00072FF054419E053EC192B51EC180B02F0A9
:100FC000B9FD41EC180B02F0F1FC074601460A227C
:100FD0003046FFF75FFF0544384602F044FD53EC0E
:100FE000182B02F0DBFE41EC180B2000A4F10104E9
:100FF000E4B2E0D103B02846BDEC048BF0BD2DE98E
:10100000F04115460C460746002606E0386814F8FD
:10101000011B02683846904706446D1EF6D23046E2
:10102000BDE8F08139E738E7C9B23DE770B505465C
:101030000D21FFF70CFF04460A212846FFF707FFA2
:10104000204470BD70B50546FFF725FF04462846CD
:10105000FFF7ECFF204470BD70B50546FFF7F7FEC3
:1010600004462846FFF7E2FF204470BD70B50546F0
:10107000FFF7D8FF04462846FFF7D8FF204470BD8D
:1010800070B50546FFF706FF04462846FFF7CEFF7A
:10109000204470BD70B50546FFF7C5FF04462846DD
:1010A000FFF7C4FF204470BD70B50546FFF7D2FEC0
:1010B00004462846FFF7BAFF204470BD70B50546C8
:1010C000FFF7EBFE04462846FFF7B0FF204470BD53
:1010D00070B50546FFF7A8FF04462846FFF7A6FFB0
:1010E000204470BD0000F07F6E616E000000E0FFE4
:1010F000000000E0FFFFEF41000000E0FFFFEFC154
:101100006F766600696E6600000000000000000057
:10111000000000000000E03F00000000000024404C
:101120002E0000002DE9F04F07465D4887B0894644
:1011300092469B46874204D10121801400F015FF9E
:1011400007E058484FF00101874204D1001400F035
:1011500002FF052504E04FF4004000F02EFF0625B5
:101160004846FFF7D5FB80464846FFF7CBFB0126F4
:101170000024CDE90046334602224146FFF72BFC0E
:101180005046FFF7C5FB80465046FFF7BBFBCDE955
:101190000046012302224146FFF71DFC5846FFF797
:1011A000B7FB80465846FFF7ADFBCDE9004601236B
:1011B00002224146FFF70FFC4846FFF7AFFB80468F
:1011C0004846FFF79FFB2A46414600F065FD504622
:1011D000FFF7A4FB80465046FFF794FB2A464146A2
:1011E00000F05AFD5846FFF799FB80465846FFF736
:1011F00089FB2A46414600F04FFD1098FFF788FB17
:1012000005461098FFF77EFBCDE9004601231A46FC
:101210002946FFF7E0FB01211098FFF7A3FBADF88B
:1012200008404FF48270ADF80A00ADF8104070022B
:10123000ADF812001020ADF81400ADF80C40ADF878
:101240000E40ADF81640ADF8186002A9384601F01E
:1012500075FF0121384602F000F807B0BDE8F08FB5
:1012600070B515460C46064616E00221304602F0DF
:1012700087F80028F9D02178304602F054F801218F
:10128000304602F07DF80028F9D0304602F049F8E7
:101290006D1E04F8010BADB2002DE6D170BD00004B
:1012A000003001400038004008B500228DF80020D1
:1012B0008DF80110417D006902236A46FFF7AAFC00
:1012C0003220FFF7F3FA08BD0222027310224273A4
:1012D000002282733E2242752A220275FF22C282B8
:1012E0000161704710B50221FFF7DEFFBDE8104035
:1012F000C820FFF7CEBA10B50121FFF7D5FFBDE832
:101300001040C820FFF7C5BA417A41F0040141728C
:1013100041F00801C8E710B504463821FFF7C4FFC3
:1013200039212046FFF7C0FF0220FFF7B2FA14214F
:101330002046FFF7B9FF207D00F00F0040F070015C
:101340002046FFF7B1FF0220FFF7A3FA207DC0F38C
:10135000011040F05C012046FFF7A6FF6C212046FB
:10136000FFF7A2FF4FF49670FFF793FA382120465B
:10137000FFF79AFF0C212046FFF796FF0220FFF7A8
:1013800088FA01212046FFF78FFF0220FFF781FA3C
:1013900002212046FFF788FF0220FFF77AFA207A21
:1013A00040F020012046FFF77FFF042060722046B6
:1013B000FFF7AAFF2046FFF79EFF2046FFF792FFA8
:1013C0000220A0722046BDE8104006216CE708B557
:1013D00040228DF800208DF80110417D0069022324
:1013E0006A46FFF717FC3220FFF760FA012008BDBC
:1013F0007FB54E4B93E87000DB68CDE90045CDE941
:101400000263037B934203D8B2FBF3F403FB142281
:101410001DF822201144C9B2817341F08001FFF709
:1014200043FF7FBD417A21F00401417241F0080180
:101430003AE710B5044601F07F00207538212046B8
:10144000FFF732FF39212046FFF72EFF0220FFF77A
:1014500020FA207D00F00F0040F070012046FFF7D9
:1014600023FF0220FFF715FA207DC0F3011040F0A2
:101470005C012046FFF718FF38212046FFF714FFD4
:10148000BDE810400220FFF704BA417A21F00101C3
:10149000417241F0080107E7417A41F001014172D0
:1014A00041F0080100E7417A21F00201417241F068
:1014B0000801F9E6417A41F00201417241F0080168
:1014C000F2E61821F0E61C21EEE6817A41F00201F5
:1014D000817241F00401E7E6817A21F00201817214
:1014E00041F00401E0E6817A41F00101817241F0AE
:1014F0000401D9E6817A21F00101817241F00401F1
:10150000D2E670B5064601F00700402141EAC0016D
:1015100015463046FFF7C8FE00243068295D036891
:1015200030469847641C082CF7DB70BD74400008F7
:1015300014480168491C0160704712490A680B6829
:101540009B1A8342FBD370471FB5684600F081FCAD
:1015500001984FF47A71B0FBF1F0B0F1807F0CD2BA
:1015600020F07F414FF0E020491E4161064AF02102
:10157000117000218161072101611FBD01480068D0
:10158000704700007800002023ED00E000F5807037
:1015900000210180418081807047B0F804017047CC
:1015A000B0F90011B0F90221914204D1B0F8040160
:1015B00008B1012070470020704710B50C46034663
:1015C000FFF7EEFF10B14FF6FF7010BDB3F9000149
:1015D0004100401CA3F800015C5203F58073988819
:1015E000401C9880B3F90000C11700EB516121F055
:1015F0007F01401A1880204610BDB0F80421A2B126
:10160000B0F90211521E4B00491C09B2A0F8021198
:10161000C35AA0F80421CA1701EB526222F07F02DC
:10162000891AA0F80211184670474FF6FF707047EC
:10163000B0F8041121B1B0F9021130F8110070476F
:101640004FF6FF7070472DE9F04F8A460446006858
:10165000EB490727252587B093469946884208D14C
:101660000121102000F081FCE648606000F2246057
:101670003FE0E549884209D10121480400F06BFCB4
:10168000E2486060262500F2246032E0E0498842AA
:1016900009D10121880400F05EFCDE486060272546
:1016A00000F2246025E0DC4988420AD10121C80407
:1016B00000F051FCD94808276060342500F224600E
:1016C00017E0D74988424FF0010109D1080500F021
:1016D00042FCD44808276060352500F2246008E009
:1016E000202000F042FCD04808276060472500F227
:1016F0002460A0605046FFF70BF980465046FFF784
:1017000001F90026022300961A4641460196FFF78A
:1017100062F95846FFF7FCF880465846FFF7F2F8A2
:10172000022300961A4641460196FFF754F95046A7
:10173000FFF7F4F880465046FFF7E4F83A46414692
:1017400000F0AAFA5846FFF7E9F880465846FFF736
:10175000D9F83A46414600F09FFAADF80C60ADF872
:1017600010600C20CDF80890ADF80E60ADF8146054
:10177000ADF8120002A9206801F053FB012240F2EB
:101780002551206801F062FC002240F22771206898
:1017900001F05CFC8DF818508DF819608DF81A6016
:1017A00001208DF81B0006A800F053F96068FFF7D0
:1017B000EDFEA068FFF7EAFE0121206801F0A7FB1B
:1017C00007B0BDE8F08F70B50D4604468021206853
:1017D00001F054FC0028F9D029462068BDE870408B
:1017E00001F0BBBB2DE9F0410F460546032440F252
:1017F0009B2604E03046FFF759F8641EA4B2A8689F
:10180000FFF7CEFE08B1002CF4D140F2277400227D
:101810002146286801F01AFC3946A868FFF7CDFE7A
:1018200001222146286801F011FC0120BDE8F08169
:1018300001F097BB00B54068FFF7DFFEA0F57F41E0
:10184000FF3900D1002000BD70B50546FFF71EF836
:1018500000F1640403E0FFF719F8A04204D8A96876
:10186000B1F804010028F6D16868BDE870408DE643
:101870004068DDE64068B0F80401704770B5604C20
:1018800040F22551204601F003FC30B1204601F022
:1018900068FB01465B48FFF790FE40F2277529463A
:1018A000204601F0F5FB002817D06048B0F804018D
:1018B00040B15E48FFF7A1FE01462046BDE87040FA
:1018C00001F04BBB00222946204601F0BFFB294610
:1018D0002046BDE8704001F0FABB70BD70B54A4CBF
:1018E00040F22551204601F0D3FB30B1204601F0F3
:1018F00038FB01464548FFF760FE40F22775294650
:10190000204601F0C5FB002817D04848B0F80A026D
:1019100040B14748FFF771FE01462046BDE87040E0
:1019200001F01BBB00222946204601F08FFB29460F
:101930002046BDE8704001F0CABB70BD70B5344CA4
:1019400040F22551204601F0A3FB30B1204601F0C2
:1019500008FB01462F48FFF730FE40F22775294665
:10196000204601F095FB002817D03048B0F810034E
:1019700040B13048FFF741FE01462046BDE87040C7
:1019800001F0EBBA00222946204601F05FFB294610
:101990002046BDE8704001F09ABB70BD70B51E4D89
:1019A00040F22551284601F073FB234C30B1284604
:1019B00001F0D7FA01462046FFF7FFFD40F22776F7
:1019C0003146284601F064FB002817D01748B0F8CC
:1019D000160440B12046FFF710FE01462846BDE838
:1019E000704001F0BABA00223146284601F02EFBC1
:1019F00031462846BDE8704001F069BB70BD00006B
:101A000000100140C000002000440040C60100203A
:101A100000480040CC020020004C0040D2030020CF
:101A200000500040D8040020DE050020E40600201D
:101A3000EA070020F0080020F60900201030FFF728
:101A400002BE1030FFF7CEBE274908432749086081
:101A5000704770B50F23C278017801254FF0E0265A
:101A6000E2B1224A126802F4E062C2F5E062C2F317
:101A70000722C2F10404D3404278A24084781C407B
:101A80001B4B14432201CA54007800F01F018D4003
:101A9000400906EB8000C0F8005170BD01F01F0046
:101AA0008540480906EB8000C0F8805170BD114A9E
:101AB000114001430D48001F016070470B4A121D81
:101AC0000029116801D0014300E081431160704793
:101AD0004FF0E0210428086903D020F004000861D9
:101AE000704740F00400FAE70000FA050CED00E052
:101AF00000E400E080FFFF1F6F4910B5884206D167
:101B00000121084600F03BFA002101204FE06B491B
:101B1000884206D10121022000F031FA0021022082
:101B200045E06749884206D10121042000F027FAE8
:101B3000002104203BE06349884206D101210820AE
:101B400000F01DFA0021082031E05F49884206D1EB
:101B50000121102000F013FA0021102027E05B493A
:101B6000884206D10121202000F009FA002120201E
:101B70001DE05749884206D10121402000F0FFF9BD
:101B80000021402013E05349884206D101218020E2
:101B900000F0F5F90021802009E04F4988420AD180
:101BA00084150121204600F0EAF900212046BDE815
:101BB000104000F0E4B910BDF0B5002201274FF04D
:101BC000030C0B6807FA02F52B40AB422CD10668D8
:101BD00053000CFA03F4A64306600E79D0F800E037
:101BE0009E4046EA0E0606600E79012E01D0022EB6
:101BF00012D18668A64386604E79D0F808E09E40F0
:101C000046EA0E0686604668AE43466045688E79B1
:101C10009640B6B235434560C568A543C560CC79EA
:101C20009C40C3681C43C460521C102AC9D3F0BD39
:101C30004FF6FF7101600021017141718171C17125
:101C4000704741F48032C261C161C261C169C0693B
:101C500070470246002012690A4200D001207047F6
:101C6000006980B270470246002052690A4200D0E3
:101C700001207047406980B27047018370474183FB
:101C800070470AB1018370474183704741617047D3
:101C900042694A40426170474B07DB0E9A40C908CF
:101CA00010B500EB8100016A0F249C40A143016242
:101CB000016A1143016210BD0000024000040240AD
:101CC00000080240000C02400010024000140240D4
:101CD00000180240001C024000200240E948016850
:101CE00041F001010160E74A0021083211600268F9
:101CF000E54B1A400260031DE44A1A60026822F4B0
:101D000080220260DF480C3001607047DD4900220C
:101D1000891C0A7008707047024600205109012989
:101D20000CD002290CD0D7497431096802F01F0287
:101D3000012393400B4200D001207047D149F4E7C2
:101D4000D0497031F1E730B500244FF4A06531205F
:101D5000FFF7E2FF641CAC4201D00028F7D031202D
:101D6000FFF7DAFF002800D0012030BDC54A116816
:101D700021F0F80141EAC00010607047C4490860D2
:101D80007047C049002270310A700A70012802D0E1
:101D9000042801D1052008707047BE4908607047CB
:101DA00041EA82115A0810B5BB4B029C03EB024278
:101DB0001143014341EA0460B249091D086010BDA6
:101DC000B34908667047800140EA0170AD4984312B
:101DD00008607047AE4988667047AD49C86470476F
:101DE000A84B08331A68084322F0EC6210431860CD
:101DF0007047A44B08331A68084322F07842104316
:101E0000186070479F4A0832116821F003010143AE
:101E1000116070479B480830006800F00C00704764
:101E2000984A0832116821F0F001014311607047AF
:101E3000944A0832116821F4E0510143116070475F
:101E4000904A0832116821F4604141EAC0001060F4
:101E5000704770B58B4B08331968904C11F00C012A
:101E600004D06610042903D0082903D004601BE0C5
:101E7000066019E0834A121D1168C1F3805511688C
:101E800001F03F0115B1B6FBF1F101E0B4FBF1F156
:101E900014681268C4F388146143C2F30142521CEF
:101EA0005200B1FBF2F1016019687D4A01F0F001C6
:101EB0000909545C0168E14041601C6804F4E05485
:101EC000A40A145D21FA04F484601B6803F46043DF
:101ED0005B0BD25CD140C16070BDC0F3012103290E
:101EE00008D1684B083319686E4A21F4F811024092
:101EF0000A431A60634970310A68C0F30B00024359
:101F00000A60704763494439086070476149403945
:101F1000086070476449086070475A4A30320029A7
:101F2000116801D0014300E0814311607047554AB8
:101F300034320029116801D0014300E0814311606F
:101F40007047504A38320029116801D0014300E03F
:101F50008143116070474B4A40320029116801D01B
:101F6000014300E0814311607047464A4432002932
:101F7000116801D0014300E0814311607047414A7C
:101F800010320029116801D0014300E08143116043
:101F900070473C4A14320029116801D0014300E027
:101FA000814311607047374A18320029116801D007
:101FB000014300E0814311607047324A203200291A
:101FC000116801D0014300E08143116070472D4A40
:101FD00024320029116801D0014300E081431160DF
:101FE0007047284A50320029116801D0014300E0AF
:101FF000814311607047234A54320029116801D08F
:10200000014300E08143116070471E4A58320029A5
:10201000116801D0014300E0814311607047194A03
:1020200060320029116801D0014300E08143116052
:102030007047144A64320029116801D0014300E05E
:102040008143116070470F4A0D320029117801D089
:10205000014300E08143117070470A487430016801
:1020600041F08071016070470146064A00200C3241
:1020700012680A4200D00120704702490E310870F0
:102080007047000000380240FFFFF6FE10300024C9
:1020900000004742800E47420000FFFF0024F4008A
:1020A0007C000020FFFCFF0F5C014742C44910B5D3
:1020B000884202D101214C050AE0C249884202D17E
:1020C00001218C0504E0C04988420AD10121CC05D8
:1020D0002046FFF772FF2046BDE810400021FFF7C1
:1020E0006CBF10BD7FB5044680880D4620F03F06CA
:1020F0006846FFF7AEFEB5490298B0FBF1F189B230
:102100000E43A680228822F001022280B04B2A686A
:102110009A421BD85200B0FBF2F080B2042800D2E1
:102120000420491C2184A083208840F001002080E5
:1021300020884FF6F5310840A9886A891143014388
:102140002180A8892989084320817FBDEB88A3F5D8
:102150003F46FF3E05D102EB4202B0FBF2F080B2F7
:1021600008E002EBC20303EB0212B0FBF2F080B214
:1021700040F48040020501D140F001004FF4967216
:1021800051434FF47A72B1FBF2F140F40040C8E7DA
:1021900041F288310160002181804BF6FF72C280DC
:1021A000018141814FF4804181817047002901887C
:1021B00002D041F0010101E021F0010101807047EE
:1021C0000029018802D041F4807101E021F480717E
:1021D000018070470029018802D041F4007101E0BC
:1021E00021F400710180704712B141F0010101E05A
:1021F00001F0FE01018270470029018802D041F4FC
:10220000806101E021F4806101807047828901F0E2
:10221000FE0122F0FE02114381817047002981896D
:1022200002D041F0010101E021F0010181817047FC
:102230000029018802D041F0400101E021F0400175
:10224000018070470029018802D041F4004101E07B
:10225000C1F30E01018070470029018803D021F0ED
:1022600080010180704741F08001FAE7B1F5804FAD
:10227000818B02D021F4804101E041F480418183CF
:102280007047B1F5006F018803D021F4006101802F
:10229000704741F40061FAE7B1F5005F018803D0AF
:1022A00021F400510180704741F40051FAE7002900
:1022B000018802D041F0100101E021F010010180FD
:1022C000704701827047008AC0B2704700290188B8
:1022D00002D041F4805101E021F480510180704727
:1022E000B1F5006F018803D021F4006101807047CF
:1022F00041F40061FAE70029018802D041F0200191
:1023000001E021F0200101807047008B000A704736
:102310000029818802D041F4006101E021F40061CC
:10232000818070470029818802D041F4805101E00A
:1023300021F4805181807047405A7047002A82887A
:1023400001D00A4300E08A438280704703460020A0
:102350009A8A1B8B42EA034222F07F42914300D1CA
:1023600001207047818A008B41EA004121F07F40C3
:10237000704700220B0F21F07F4101D0143001E0A3
:10238000090C18300068084200D00122104670473E
:10239000C9438182704710B502460020938801F03E
:1023A000E064928A03EA144321F07F410A4202D09A
:1023B000002B00D0012010BDC9438182704700006E
:1023C0000054004000580040005C004040420F00B4
:1023D000A0860100FE4910B5884206D101210846B9
:1023E000FFF7F5FD002101205BE0B0F1804F09D03F
:1023F000F84988420DD101210220FFF7DEFD0021BE
:10240000022070E001210846FFF7D7FD00210120DE
:1024100069E0F149884206D101210420FFF7CDFD92
:10242000002104205FE0ED49884206D10121082007
:10243000FFF7C3FD0021082055E0E949884206D195
:1024400001211020FFF7B9FD002110204BE0E549E4
:10245000884206D101212020FFF7AFFD0021202076
:1024600041E0E149884206D101210220FFF7AFFD9A
:102470000021022015E0DD49884202D101210C042F
:102480000AE0DB49884202D101214C0404E0D94929
:1024900088420AD101218C042046FFF798FD0021D3
:1024A0002046BDE81040FFF792BDD349884206D1CF
:1024B00001214020FFF781FD0021402013E0CF499A
:1024C000884206D101218020FFF777FD002180207E
:1024D00009E0CB4988420AD1841501212046FFF743
:1024E0006CFD00212046BDE81040FFF766BD10BD21
:1024F00030B50288B64CBC4DA0420DD0A8420BD0DE
:10250000B0F1804F08D0B34B984205D0B24B9842FF
:1025100002D0B24B984203D122F070034A881A438A
:10252000AF4B984206D0AF4B984203D022F4407391
:102530000A891A4302804A68C2620A880285A04258
:1025400001D0A84201D1897A01860121818230BD62
:102550004FF0FF3141600021018001814180817293
:102560007047018582827047028822F070020A4318
:102570000280704741627047C1627047406A70478D
:10258000008D70470029018802D041F0020101E06E
:1025900021F00201018070470029018802D041F03A
:1025A000040101E021F00401018070470029018845
:1025B00002D041F0800101E021F0800101807047EC
:1025C000028822F00802028002880A4302807047D3
:1025D000028822F44072028002880A430280704717
:1025E0000029018802D041F0010101E021F0010140
:1025F0000180704730B5028C22F001020284028C07
:102600008388048B22F0020224F073050C882C438B
:102610008D8915434A882A436D4DA84202D0724DD8
:10262000A8420DD122F00805CA8923F440732A4339
:1026300022F004058A882A430D8A1D434B8A2B43C6
:102640008380048389684163028430BD70B5028C45
:1026500022F010020284028C8388048B0D8824F4FB
:10266000E6464FF6FF7404EA052535438E8922F0CD
:10267000200204EA061616434A8804EA021232438C
:10268000534EB04202D0584EB04215D122F08006CF
:10269000CA8923F4406304EA0212324322F040065E
:1026A0008A8804EA021232430E8A04EA86061E432E
:1026B0004B8A04EA830333438380058389688163FB
:1026C000028470BD70B5028C22F480720284028C88
:1026D0008388848B0D8824F0730425438E894FF6FC
:1026E000FF7422F4007204EA062616434A8804EABC
:1026F00002223243364EB04202D03B4EB04215D198
:1027000022F40066CA8923F4405304EA02223243C9
:1027100022F480668A8804EA022232430E8A04EA9E
:1027200006161E434B8A04EA0313334383808583D2
:102730008968C163028470BD70B5028C22F4805236
:102740000284058C8288838B0C8823F4E6464FF63E
:10275000FF7303EA0424344325F400568D8903EA09
:10276000053535434E8803EA06362E43184DA842F8
:1027700002D01D4DA84205D122F480450A8A03EA01
:1027800082122A438280848389680164068470BD32
:10279000002101804180818081608181C18101822D
:1027A0004182704730B50124058C00F118038C403C
:1027B000A543058431B308292CD0091FC1F34E006D
:1027C0001844016848F6FF731940016001681AE077
:1027D000000001400004004000080040000C0040E0
:1027E000001000400014004000040140004001407F
:1027F000004401400048014000180040001C004017
:102800000020004006E04FF6FF7303EA0222114366
:10281000016030BD03EB510001684FF68F73194022
:1028200001600168F3E74163704781637047C163EA
:10283000704701647047028B22F070020A430283E2
:102840007047028B4FF6FF7322F4E04203EA012146
:10285000114301837047828B22F070020A43828306
:102860007047828B4FF6FF7322F4E04203EA0121A6
:10287000114381837047028B22F008020A430283CE
:102880007047028B4FF6FF7322F4006203EA0121C6
:10289000114301837047828B22F008020A4382832E
:1028A0007047828B4FF6FF7322F4006203EA012126
:1028B000114381837047028B22F004020A43028392
:1028C0007047028B4FF6FF7322F4806203EA012106
:1028D000114301837047828B22F004020A438283F2
:1028E0007047828B4FF6FF7322F4806203EA012166
:1028F000114381837047028B22F080020A430283D6
:102900007047028B4FF6FF73C2F30E0203EA0121F8
:10291000114301837047828B22F080020A43828335
:102920007047828B4FF6FF73C2F30E0203EA012158
:10293000114381837047028C22F002020A43028411
:102940007047028C22F008020A4302847047028C0E
:102950004FF6FF7322F0200203EA011111430184B4
:102960007047028C4FF6FF7322F0800203EA0111D8
:10297000114301847047028C4FF6FF7322F40072FA
:1029800003EA0121114301847047028C4FF6FF7363
:1029900022F4006203EA0121114301847047028C92
:1029A0004FF6FF7322F4005203EA01311143018410
:1029B000704710B50123048C8B409C430484038C26
:1029C0008A401343038410BD10B50423048C8B404C
:1029D0009C430484038C8A401343038410BD828B80
:1029E00022F440628283828B4FF6FF7303EA012157
:1029F0000A4382837047828B22F00C028283828B8F
:102A00000A4382837047028B22F440620283028B66
:102A10004FF6FF7303EA01210A4302837047F0B5C2
:102A2000048C24F010040484078B068C4FF6FF748A
:102A300004EA011527F4734704EA0331394304EA31
:102A400002220A4326F0A001294341F0100102832B
:102A50000184F0BD028B22F00C020283028B0A4338
:102A6000028370472DE9F0410C460E884988A28800
:102A7000238905460EB3042E26D0082E2E8C4FF641
:102A8000FF7028D026F480562E84AF8B2E8C00EA5F
:102A9000022200EA013127F473473A4300EA033087
:102AA000104326F420420A4342F48051A88329842B
:102AB000E1882846BDE8F04191E700F061F9E1883E
:102AC0002846BDE8F041C5E7FFF7A9FFE1882846A1
:102AD000BDE8F04197E726F480762E84AF8B2E8CEC
:102AE00000EA012100EA0310104327F0F3073843FE
:102AF00026F420620A4342F48071A8832984E18885
:102B00002846BDE8F04176E700210180418001229E
:102B10008280C180018170472DE9F0410C4600257B
:102B200049880746012601B90225A288012A00D159
:102B30000226208823890028384610D0FFF76FFF2F
:102B4000E1883846FFF75FFF238932462946384639
:102B500000F016F9E1883846BDE8F0417AE700F068
:102B60000FF9E1883846FFF775FF23893246294679
:102B70003846FFF754FFE1883846BDE8F04142E7A8
:102B8000406B7047806B7047C06B7047006C70473C
:102B900010B50A884B88CC881A438B8823431A4384
:102BA0000B891A434B8989891A430A43A0F84420A8
:102BB00010BD0021018041808180C180018141815F
:102BC00081817047002930F8441F02D041F4004150
:102BD00001E0C1F30E01018070470029818802D015
:102BE00041F0040101E021F00401818070470029D7
:102BF000818802D041F0010101E021F001018180D2
:102C00007047002A828901D00A4300E08A4382810A
:102C100070478182704702460020128A0A4200D023
:102C200001207047C94301827047034600201A8A79
:102C30009B890A4203EA010302D0002B00D0012045
:102C40007047C943018270471143A0F8481070478C
:102C5000002A828901D00A4300E08A4382817047BA
:102C60000029818802D041F0080101E021F008012B
:102C700081807047018921F0070101817047028935
:102C800022F070020A430281704700B50346FFF745
:102C9000F6FF188940F00700188100BD70B50D4699
:102CA00011460446602D4FF001020AD000F068F88A
:102CB00029462046FFF7E3FF208940F007002081E6
:102CC00070BDFFF7ACFEF3E730B504894FF6FF7532
:102CD00005EA03231343E4B20B432343038130BDCE
:102CE00010B50446FFF7F0FF208940F077002081FF
:102CF00010BD10B50446FFF7E7FF208940F480407F
:102D0000208110BD828822F07002828082880A436E
:102D100082807047028922F00702028102890A43F9
:102D200002817047028922F08002028102890A43EF
:102D30000281704770B50589048B068C25F0070564
:102D40000D434FF6FC410C4040F201110C434FF68D
:102D5000FF7101EA031126F0220611433143058178
:102D60000483018470BD0029818802D041F0800174
:102D700001E021F0800181807047A0F85010704779
:102D800070B5048C24F001040484058B048C4FF688
:102D9000FF7606EA0313134325F0F3052B4324F0D3
:102DA0000A020A4342F001010383018470BD00005E
:102DB000CA4910B5884206D101211020FFF707F952
:102DC0000021102028E0C649884202D101214C048C
:102DD00010E0C449884202D101218C040AE0C249B2
:102DE000884202D10121CC0404E0C04988420AD1C2
:102DF00001210C052046FFF7E0F82046BDE8104011
:102E00000021FFF7DAB8BA49884209D10121202010
:102E1000FFF7DDF800212020BDE81040FFF7D7B80C
:102E200010BD7FB50446008A0D46C98820F4405085
:102E300001432182A08941F20C618843A9882A8933
:102E400011436A8902431143A181A08A20F4407191
:102E5000A8890843A0826846FEF7FBFF9F4884428A
:102E600002D0A348844201D1039800E00298A189CE
:102E70000904002900EBC00101EB0010296802DA07
:102E80004FEA410101E04FEA8101B0FBF1F0642219
:102E9000B0FBF2F14FEA01114FEA11136FF0180580
:102EA0006B4300EB8300A3891D044FF0320306D56A
:102EB00003EBC000B0FBF2F000F0070005E003EB0D
:102EC0000010B0FBF2F000F00F00084320817FBD3E
:102ED0004FF41651016000218180C18001810C22D4
:102EE00042818181704710B5028A4C8822F4706358
:102EF0000A8822438C88C9880C4322431A430282E1
:102F000010BD0021018041808180C180704700296F
:102F1000818902D041F4005101E021F40051818106
:102F20007047028B02F47F420283028B0A430283C2
:102F300070470029818902D041F4004101E0C1F3CA
:102F40000E01818170470029818A02D041F400611D
:102F500001E021F4006181827047C1F308018180A2
:102F600070478088C0F308007047028A22F00F0281
:102F70000282028A0A43028270470029818902D0B4
:102F800041F0020101E021F0020181817047828954
:102F900022F40062828182890A4382817047028A18
:102FA00022F020020282028A0A430282704700292C
:102FB000018A02D041F4804101E021F48041018284
:102FC0007047818941F00101818170470029818A20
:102FD00002D041F0080101E021F008018182704730
:102FE000028BD2B20283028B42EA01210183704735
:102FF0000029818A02D041F0200101E021F0200166
:10300000818270470029818A02D041F0100101E0DD
:1030100021F0100181827047828A22F004028282AC
:10302000828A0A43828270470029818A02D041F055
:10303000020101E021F0020181827047002A828AA8
:1030400001D00A4300E08A438282704710B5C1F381
:10305000421301F01F040121A140012B07D0022BD4
:1030600007D01430002A026805D00A4304E00C306F
:10307000F8E71030F6E78A43026010BD02460020F0
:1030800012880A4200D001207047C943018070476E
:1030900070B501F01F0501260024C1F3421306FAA2
:1030A00005F2012B0FD0022B0FD0838A4FEA11219A
:1030B0000088134206FA01F600EA060001D000B1CA
:1030C0000124204670BD8389F0E7038AEEE70A0AEF
:1030D00001219140C9430180704700000010014068
:1030E0000044004000480040004C004000500040B8
:1030F00000140140B64910B588420AD18414012158
:103100002046FEF764FF2046BDE810400021FEF790
:103110005EBFB049884202D10121041404E0AE49E7
:1031200088420AD10121C4132046FEF746FF2046FB
:10313000BDE810400021FEF740BF10BD30B5028849
:103140004C8802F441530A88CD8822438C882C4352
:1031500022430C8922434C8922438C892243CC8907
:1031600022431A430280828B22F400628283098AFE
:10317000018230BDF0B502220023858B01244FF27D
:103180004006354085830284858B8E68022E38D0B8
:103190008A8802B10224914A13681B0203D513687E
:1031A00023F4000313608D4A7C3213681268C3F362
:1031B00088138A4EC2F30272361F3668884F06F0B3
:1031C0003F06B7FBF6F65E43B6FBF2F2CB88B3F5EB
:1031D000007F2BD06301B2FBF3F202EB82028B681B
:1031E0005200B2FBF3F2521D92B20A23B2FBF3F289
:1031F00002F00103D21A4FF6FF74C2F34F0204EA41
:103200000323941EFE2C01D302220023CC881A43F0
:10321000144304840A884B881A438B8889890B439A
:103220001A432A4342F400618183F0BD120AD4E7B5
:103230000021018041808180C180018141818181A3
:10324000C181072101827047002101804180818076
:10325000C18002228260818170470029018802D0EA
:1032600041F0400101E021F0400101807047002958
:10327000818B02D041F4806101E021F4806181837F
:103280007047028822F40062028002880A430280AA
:103290007047B1F5804F018803D021F4804101804F
:1032A000704741F48041FAE7A1F57E420188FF3A78
:1032B00002D041F4807101E021F4807101807047F7
:1032C0000029818802D041F0040101E021F00401CD
:1032D000818070470029818802D041F0100101E00F
:1032E00021F010018180704730B5828B00234FF2AE
:1032F00040042240828302220284848B0A884FF495
:103300008075B2F5007F00D002B92B464A888D88BF
:1033100089892A4319430A43224342F40061818385
:1033200030BD80897047818170470029018802D0B3
:1033300041F4005101E021F40051018070470188FF
:1033400041F4805101807047012901D0008B704702
:10335000808A7047008A7047002A828801D00A4319
:1033600000E08A4382807047090901238B40002ACC
:10337000828899B201D00A4300E08A438280704774
:103380000246002012890A4200D001207047C9433A
:103390000181704730B501F00F030125024605FA9F
:1033A00003F40020A3B2090905FA01F49188A4B23C
:1033B000128921401A4202D0002900D0012030BDDC
:1033C00001F00F0201219140C943018170470000C3
:1033D0000030014000380040003C00400838024006
:1033E00000127A0010B5431C02E010F8011B71B105
:1033F0008107FAD14FF0013202C88C1A8C4314EACB
:10340000C211F9D0C01A0A0603D0C01E10BDC01ADE
:1034100010BD0A0401D0801E10BD0902FCD0401E60
:1034200010BD70477047704770B5064C7C44064D20
:103430007D4403E0206820448047241DAC42F9D13C
:1034400070BD0000B40C0000B40C000010B500F01A
:1034500009F8BDE81040AFF30080002801D000F06B
:1034600019B8704710B5002102A000F044F80120FF
:1034700010BD00005349475056464E3A20507572D1
:1034800065207669727475616C20666E2063616C6C
:103490006C65640001491820ABBEFEE726000200FF
:1034A000754600F049F8AE4605006946534620F0DF
:1034B0000700854618B020B5FDF7D2F8BDE82040DA
:1034C0004FF000064FF000074FF000084FF0000BE0
:1034D00021F00701AC46ACE8C009ACE8C009ACE893
:1034E000C009ACE8C0098D4670470446AFF30080C0
:1034F0002046FCF794FE70B505460C460A2000E015
:103500006D1C00F011F835B128780028F8D102E0E0
:10351000641C00F009F814B120780028F8D1BDE847
:1035200070400A20AFF3008008B569468DF80000AE
:103530000320ABBE08BD000000487047080D002006
:10354000704770B505460C000AD00846FFF74AFFE1
:1035500002462868214643682846BDE8704018475F
:10356000002070BD024901600021416070470000E9
:10357000AC4000080020FFF769BF81F000417047B0
:1035800080F00040704721F00041704720F000407B
:103590007047000010B591EA030F48BF83F0004365
:1035A00000F11084841A71EB030C05D2121943EB5D
:1035B0000C03001B61EB0C01DFF824E14FEA11540E
:1035C000A4EB135C1EEA430F18BF9EEA445F73D05E
:1035D00023EA0E03DCF1200E21EA045143F48013A8
:1035E00032D322FA0CFE10EB0E0023FA0CFE41EB54
:1035F0000E01CCF1200E03FA0EFE10EB0E0051F17D
:103600000001B1F5801FCCF1200E32D201EB045144
:1036100012FA0EF2BDE8104058BF7047401C38BF88
:103620005FEA420218BF7047002814BF20F0010073
:1036300041F100014FEA410313F5001F38BF704705
:10364000A1F1C04100F06EBB012A43EB0302ACF1D3
:10365000200CDCF11F0E32BF4FF0000E23FA0CF3EA
:1036600010EB030041EB0451B4EB115FD0D0A1EBA0
:10367000045101F5801149085FEA300001EB045163
:103680000ED350F1000038BF12FA0EFE08D1BDE88B
:103690001040C9E7401C38BF5FEA4202CAD1C3E705
:1036A000BDE810404FEA410313F5001F38BF7047D3
:1036B000A1F1C04100F036BB9EEA445F08D011EA98
:1036C0005E0FBDE8104004BF01F0004100207047CC
:1036D000BDE8104070B500F0D7FA00BF64FBBE3EF5
:1036E0000000E0FF491058BFC1F140415B1058BFD6
:1036F000C3F140438B42EFF3008070472DE9C04196
:1037000030B4DFF8A0C23CEA111418BF3CEA13142D
:1037100000F0EC8081EA03051CEA111444EAD57438
:1037200018BF1CEA131500F0C780A4EB05044FF086
:10373000004545EAC12145EAC32341EA505143EA25
:10374000525304F17F74994204F500344FEAC020CB
:103750004FEAC22208BF904200F09C804FEA1365F6
:103760000FF24016765D4FEA134506FB05F7C7F1E9
:10377000807706FB07F74FEAD737A7FB0368764247
:10378000C8F58038A7FB06CE38BFA8F1010807FBB3
:1037900008E64FF0000EA6FB028CE6FB03CEDCF140
:1037A000000CCEF1004E38BFAEF1010EA6FB0C5856
:1037B0004FF000074FF00005E6FB0E87A1FB08C69F
:1037C000A0FB07CE16EB0E0645F10005E1FB0765F1
:1037D00015F1E04E7EBFA4F580345FEA46066D41E8
:1037E00016F1800745F100054FEA17274FEA0666F4
:1037F00047EA0567A6F1DE46B6F1805F4FEA152578
:103800001FD9384624F0010C05EBC471BCF1FE6FE2
:1038100001EB0C1102D8F0BCBDE8008124425CBF72
:1038200001F5801E9EEAC47F02D4F0BCBDE8008191
:10383000244238D4F0BCA1F1C041BDE8004100F001
:1038400071BA4FEAD22242EA43524FEAD323A7FB8E
:1038500002864FEAD02040EA415007FB03661EEA89
:103860000E0F4FEAD12105FB026658BFA6EB0056AA
:10387000B6EB00564FEA520E4EEAC37E18EB0E0E20
:1038800056EB530EBDD518EB02085E417F1C55F177
:103890000005B6E74FF480154FF000074FF0000623
:1038A0004FF00008ADE7F0BC4FF0000001F1C0415F
:1038B00001F00041BDE8008111EA0C1F0CEA13156C
:1038C00000D00CE013EA0C1F00F025804FF0000040
:1038D000F0BC81EA030101F00041BDE80081F0BCC9
:1038E000BDE8004181EA030100F01CBAF0BCBDE86C
:1038F000004170B500F0C8F9097EFC3E00F007B841
:1039000081EA03014FF0000001F00041704781EAB5
:10391000030100F007BAF0BCBDE800414FF0000021
:1039200021497047FFFDFBF9F7F5F4F2F0EEEDEBFE
:10393000E9E8E6E4E3E1E0DEDDDBDAD8D7D5D4D3AD
:10394000D1D0CFCDCCCBCAC8C7C6C5C4C2C1C0BFF9
:10395000BEBDBCBBBAB9B8B7B6B5B4B3B2B1B0AFFF
:10396000AEADACABAAA9A8A8A7A6A5A4A3A3A2A1E3
:10397000A09F9F9E9D9C9C9B9A999998979796959E
:1039800095949393929191908F8F8E8E8D8C8C8B3A
:103990008B8A8989888887878685858484838382C2
:1039A000828181800000FF070000F87F4FEA410319
:1039B0004FEA5353A3F58063D3F11E03C8BFD3F17D
:1039C000210C0CDD4FF0004242EAC12242EA505283
:1039D00032FA03FC8CEAE17CACEBE1707047102B0F
:1039E000C4BF0020704703F5787CBCF1FF3F04D0D2
:1039F0006FF0004282EA2100704770B500F044F990
:103A00004992248000207047F2E700004FEA1153EA
:103A1000A3F58063D3F11E03A8BFD3F1200C08DB0C
:103A20004FF0004242EAC12252EA505232FA03F009
:103A3000704709420BD4102BC4BF0020704703F518
:103A4000787CBCF1FF3F05D04FF0FF3070474FF05E
:103A50000000704770B500F017F900BF499224804C
:103A600000207047F0E710F0004248BF4042B0FA33
:103A700080F310FA03F10AD0C3F11D0303F580634C
:103A80004FEA415002EB035202EBD12170474FF055
:103A900000007047B0FA80F310FA03F10AD0C3F1C6
:103AA0001D0303F580634FEA41504FEA035202EBD6
:103AB000D12170474FF000007047000051EA030C1D
:103AC00017D41CF5801F58BFBCF5801F00F106807D
:103AD000994218BF704708BF9042704707D711F549
:103AE000801F58BF13F5801F19D49942704789422F
:103AF00070471CF5801F08D5BCF5801FF7D58B4299
:103B000018BF704708BF824270474FF4001C1CEB7F
:103B1000410F38BF1CEB430F01D28B42704770B589
:103B200000F0B2F8922449004FF000514FF080535A
:103B3000FFF7D8BDDFF848C170B51CEA111E1EBFE3
:103B40001CEA13159EEA0C0F95EA0C0F00F06F802B
:103B500081EA030423EA4C134EEAD47E21EA4C1195
:103B600041F4801143F48013AE44A1FB024CA0FB4E
:103B70000365AEF17F7E361955EB0C05A1FB034CB6
:103B80004CF10003A0FB021C16EB0C06654153F13F
:103B90000003094218BF46F0010613F4007F0BD161
:103BA0004FEA03314FEA0530340341EA155140EA48
:103BB00016506FF003020AE04FEAC3214FEAC52016
:103BC000F40241EA555140EA56506FF0020202EB0E
:103BD0002E4201EB025585EACE710AD05FEA440C11
:103BE00018BF24F0004450F1000041F1000120EA28
:103BF000D47040F2FE7C624500D270BDA84214BF72
:103C00004FF080444FF04044002E08BF0024BEF126
:103C1000806FA8BFA1F1C041BDE8704080F28280F2
:103C20004FF0000001F1C04101F0004170479EEAF1
:103C30000C0F0CEA131518BF95EA0C0F06D04FF0C5
:103C4000000081EA030E0EF0004170BD00F01CF888
:103C50008900013E00F007B800F009B84FEA430CB4
:103C60005FEA5C5C08D081EA030100F05BB84FEAD0
:103C7000410C5FEA5C5CF6D14FF0000001497047EF
:103C80000000FF070000F87F0EF1020E2EF0030E79
:103C90005EF8046B364205D4012A43EB030515F5A3
:103CA000001F12D8012841EB010C1CF5001F0CD895
:103CB0000ED14FEAD17C15F5001F0CEB4C0C0CF12A
:103CC000020C08BF4CEBD37C04E04FF0080C01E081
:103CD0004FEAD37C0CEB4C0526FA05F606F00706F6
:103CE000B6F1040C06D20EEB860CBDE870404CF029
:103CF000010C6047DFE80CF0090B02024FF00041B5
:103D00004FF00000A1F5002170BD194610460128B2
:103D100051EB010418BFD4F5001484BF002001F05A
:103D2000004170BD0808A0F500114FEA310170474D
:103D300053EA010C17D41CF5801F58BFBCF5801F37
:103D400000F106808B4218BF704708BF824270475F
:103D500007D713F5801F58BF11F5801F19D48B4268
:103D600070479B4270471CF5801F08D5BCF5801F2B
:103D7000F7D5994218BF704708BF904270474FF47B
:103D8000001C1CEB430F38BF1CEB410F01D29942C2
:103D900070470FB40CBC03BCFFF7C1BE91EA030F20
:103DA00010B581F000413FF5FDAB83F0004300F01A
:103DB00009B8000010B591EA030F48BF83F0004333
:103DC0003FF5F0AB841A71EB030C07D212198CF09B
:103DD000004C43EB0C03001B61EB0C01DFF8A4E18A
:103DE0004FEA1154A4EB135C1EEA430F18BF9EEA7E
:103DF000445F00F0B08023EA6E03524221EA04518E
:103E0000C3EB6E0338BF5B1EDCF1200E25D322FA14
:103E10000CFE10EB0E0043FA0CFE41EB0E01CCF150
:103E2000200E03FA0EFE10EB0E0051F10001CCF152
:103E3000200E29D412FA0EF201EB0451BDE8104015
:103E400058BF7047401C1CBFB2F1004F704700289C
:103E50000CBF491C20F00100704712EB020E43EB2F
:103E6000030218BF4FF0010E4EEA4202ACF1200CE3
:103E7000DCF11E0E54D943FA0CFE10EB0E0051F18A
:103E8000FF31CCF11E0ED5D50EF1010E12FA0EFE49
:103E9000404141EB010101EB445C5FEA5C5C10D9FD
:103EA00010EBDE7001EB045138BFBEF1004FBDE8EE
:103EB000104018BF704700280CBF491C20F00100BB
:103EC000704730D24FEAD42C11F5001124F400646D
:103ED0001BD0B1FA81F20B3AA41AA41ED2F120032E
:103EE000914030FA03F31943904001EBCC71002C60
:103EF00001EB0451BDE81040A8BF704701F1C0417B
:103F00004FF0000001F000417047B0FA80F310FA62
:103F100003F100D110BDE41A173C4805C90AE4E7D3
:103F200001EB045110BD491001EB0451BDE81040F4
:103F30004FEA300002E04FF0000170474A0008BF2E
:103F40000042F8D0B2F5001F28BF704701F00041D1
:103F50004FF0000070479EEA445F07D011EA5E0F01
:103F6000BDE8104004BF002100207047BDE81040AC
:103F700070B5FFF789FE00BF40DFF63E83F00041D9
:103F8000104670470000E0FF43004FEAD30C4FEAB1
:103F90003C0C43401FBF40070CF1605113F0FE4F33
:103FA00070471CF0006F03D100200CF000417047F7
:103FB0000CF0004343EA507010B540EACC0000F02A
:103FC0000EF800BF000000924FEA0001FFF7AABE02
:103FD0004FF000414FF00000A1F5002170470EF1B5
:103FE000020E2EF0030E5EF8044B244204D44FEA76
:103FF0004102B2F17F4F11D84FEA4003B3F17F4F36
:104000000CD80ED14FEAD07CB2F17F4F0CEB4C0CA8
:104010000CF1020C08BF4CEBD17C04E04FF0080C13
:1040200001E04FEAD17C0CEB4C0324FA03F404F0DA
:104030000704B4F1040C06D20EEB840CBDE810406A
:104040004CF0010C6047DFE80CF0070802024FF06B
:104050000040A0F5800010BD0846420018BFD2F114
:10406000807288BF00F0004010BD4FF04070E1EE5C
:10407000100A70470000000040000000140000001B
:10408000540000000000000000000000431A000877
:10409000FF0F00080000000000000000000000000A
:1040A000000000000000000000000000753500085E
:1040B000FF0F00080000000000000000CF13000800
:1040C000FF0F0008E8400008000000208C000000FE
:1040D000C4010008744100088C000020DC120000BC
:1040E000E001000845C4FFFF007A030A0000000059
:1040F0000000000001020304060708090000000098
:1041000000000000000000000100000002000000AC
:104110000400000008000000100000002000000063
:1041200040000000800000000001000000000000CE
:10413000000002400004024000080240000C02405F
:10414000001002400014024000180240001C02400F
:104150000020024000540040000000000000000069
:10416000000000000000000001020304010203043B
:04417000060708092D
:040000050800018965
:00000001FF
