:020000042000DA
:100000000000011051020020890100208901002018
:100010008901002089010020890100208901002038
:100020008901002089010020890100208901002028
:100030008901002089010020890100206D02002033
:100040008901002089010020890100208901002008
:1000500089010020890100208901002089010020F8
:1000600089010020890100208901002089010020E8
:1000700089010020890100208901002089010020D8
:1000800089010020890100208901002089010020C8
:1000900089010020890100208901002089010020B8
:1000A00089010020890100208901002089010020A8
:1000B0008901002089010020890100208901002098
:1000C0008901002089010020890100208901002088
:1000D0008901002089010020890100208901002078
:1000E0008901002089010020890100208901002068
:1000F0008901002089010020890100208901002058
:100100008901002089010020890100208901002047
:100110008901002089010020890100208901002037
:100120008901002089010020890100208901002027
:100130008901002089010020890100208901002017
:100140008901002089010020890100208901002007
:1001500089010020890100208901002089010020F7
:1001600089010020890100208901002089010020E7
:1001700089010020890100208901002089010020D7
:100180008901002089010020FEE70000084B812042
:10019000186000229A60DA604FF4801119635A6384
:1001A0009A631A645A64186B40F008021A63704725
:1001B0000038024038B5FFF7E9FF4FF000521B4806
:1001C00082601B4B1B4A9B1A10461AD01A49914257
:1001D0000C4616D006D90022A15C815401329A4205
:1001E000FAD10EE0981859181A46C3EB010C0CEB23
:1001F000020515F8015CC41AA41804F8015C013A60
:10020000F3D10E4A0E4B9B1A03E0002002F8010BBB
:10021000013B002BF9D10B484FF0AA420260436129
:1002200009490A4B4B6007220A6038BD00ED00E027
:100230000000001000000010C402002000000010A8
:1002400004000010000C024010E000E0FF7002000B
:1002500008B5054BD3F8880040F47002C3F8882035
:10026000FFF7A8FF00F00EF800ED00E00721034AB9
:100270001160034B1868421C1A60704710E000E0E0
:10028000000000100D4B00221A6019460B689811EF
:1002900000F00302022A0A4B08D0032A09D0012ADF
:1002A00014BF4FF480524FF4804204E04FF40052E8
:1002B00001E04FF400425A61E8E700BF000000107F
:0402C000000C0240EC
:040000052000025085
:00000001FF
